:100000000C94B32E0C94E42E0C94E42E0C94E42E59
:100010000C94E42E0C94E42E0C94E42E0D9462B710
:100020000C94E42E0C94E42E0C94E42E0C94E42E08
:100030000C94E42E0C94E42E0C94E42E0D948BC9B5
:100040000C94E42E0C94E42E0C94E42E0C94E42EE8
:100050000C94E42E0C94E42E0C94E42E0C94E42ED8
:100060000C94E42E0D9413B80D9442B80C94E42E25
:100070000C94E42E0C94E42E0C94E42E0C94E42EB8
:100080000C94E42E0C94E42E0C94E42E0C94E42EA8
:100090000D947DB80D94ACB80C94E42E0D9429BC4D
:1000A0000C94E42E0D94B8C90C94E42E0C94E42E18
:1000B0000C94E42E0C94E42E0D94E5C90C94E42EDB
:1000C0000C94E42E0C94E42E0D9446C20D94E7B8E3
:1000D0000D9416B90C94E42E0C94E42E0C94E42E9A
:1000E0000C94E42E4C31513156315B316031653125
:1000F0006F3174316A31933179317E31833193318B
:100100009331883193318D31464B4A4B484B464BA6
:10011000464B484B484B484B484B4D4B4A4B4A4B40
:100120004A4B4D4B4D4B4A4B4C4B9C6A026A9C6A66
:100130009C6AE7699C6AFC69EE69DC699E6A126ADE
:100140002C6A7B6A9E6A9E6A946AD8699C6A6D7200
:1001500050723F72D26F56709B70E071E5719B7068
:10016000D0726D6ECF6FCF6FD072D072CF6FD072F2
:100170008E72D08EBF8EC58EBC8EBF8EC28EC28E4A
:10018000BF8ED28ED08ED08ED08ED28ED28ED08E8A
:1001900058909F90A8907A908E90B1904B91039137
:1001A000FA90E7900C9121913491C190D490F29102
:1001B000659154917691F2917F9188919B91AE9146
:1001C000E191B791F291CF91BF91E99187AA8DAA60
:1001D00094AA9BAAA9AABFAAC7AAA3AB9CABB2AB7D
:1001E000BFABD7ABF0ABFCAB44B23FB24BB24FB2FC
:1001F0005AB275B299B2A2B2CDB2C8B2D6B2DBB21F
:10020000DFB2EFB2F9B22BB724B734B73FB74FB76D
:1002100064B784B7A7B7B2B76FB868B877B881B812
:1002200095B8ABB8C2B8E0B8ECB820E034E03AE03A
:1002300066E075E096E0A0E0C5E0CBE0ECE0FAE037
:100240000EE119E13EE155E185E193E1B3E1C5E15C
:10025000E5E1F7E127E23EE270E276E27CE290E25D
:10026000A6E2B4E2C4E2DBE2FAE218E333E342E3FB
:100270005CE377E396E3A006A006E803AA03AA03DB
:10028000AA03AA03AA03AA03A006AA03AA03AA030D
:10029000AA03E803E803E803E803E803E803AA0382
:1002A000AA03E803E803E8033A04E2022004AE06E6
:1002B000E802FE02A203FE02FE02FE02FC05920418
:1002C000DC030C060C06BE042A04FA054C06F603F1
:1002D0006805E6034606F4062C03EE02A805EE02C6
:1002E000EE023E036C03EE02EE0232052403B60476
:1002F000EE02EE02EE02EE02EE02EE02EE02EE027E
:10030000EE02EE02EE02F002EE02EE02EE02EE026B
:10031000EE02EE02EE027A04D802EE027E037E04C2
:10032000EE0262043203EE02EE02EE02EE025C0422
:10033000BA04BA04B406BA04BA04B406B406A804EB
:100340006403A8046403A8046403A804CA06CA06D4
:10035000CA06CA06CA06CA06CA06CA06CA069C064B
:10036000A8046403A8046403A8046403A804640341
:10037000A8049C06A804CA06CA066403A804CA0600
:100380006403A8046403A8049C067005C8027005F1
:10039000C8027005C8027005C8027005C802BE0315
:1003A000BE03BE03A205A205BE03BE03BE03A20593
:1003B000A205B804B804B80484058405B804B804D8
:1003C000B80484058405BA029E06BA029E06BA02E3
:1003D0009E06BA029E06BA025C06BE06BE0612065B
:1003E00012061206960396039603F8061C031C03D6
:1003F0007A05FC04DE023806DA06CC03C2062205C2
:100400000A068E06A4034205D8057406C2056E03CB
:100410009003AE050403C003FA02CE04C2028A03AD
:10042000AA026A0346041A03DA04720598038006D6
:10043000BA0574041A061604CE03A802E2042606BE
:100440000605A8036A04B205036EDB363D9A999946
:10045000993DABAAAA2A3E000000803F084AD73B3C
:100460003BCE016E84BCBFFDC12F3D6C74319ABD83
:1004700056833DDA3D00C77F11BED9E4BB4C3E91A7
:100480006BAAAABE000000803F072C7AA5BA6CC5F3
:1004900090DA3B9365FC8BBC53F810FD3C5692837D
:1004A0004DBD879D3AB63DCBC9BF5BBE73DA0FC960
:1004B0003F05A84CCDB2D44EB93836A9020C50B97C
:1004C000918688083CA6AAAA2ABE000000803F08A0
:1004D000000000BE922449123EABAAAA2ABECDCC8F
:1004E000CC4C3E00000080BEABAAAAAA3E00000091
:1004F00000BF000000803F0000000000084178D3EA
:10050000BB4387D1133D190E3CC3BD4282AD2B3E88
:1005100068EC8276BED98FE1A93E4C80EFFFBE0128
:10052000C4FF7F3F00000000000664EC1B3C04BCDD
:10053000163E3BE5B93CC93C37C29E5A3D6604981D
:10054000083EEA69AAAA3E000000803F0D941820E8
:100550000D9414C00D94AABF0D9414BA0D94647A2E
:100560000D942B6D0D9406670D94D2BF0D948145AB
:100570000D9406770D9462A70D94CFC60D94FBC41D
:100580000D9402130D94A0BF0D9452900D94DE882B
:100590000D9410A70D949A710D9487640D94ADA4D9
:1005A0000D94DC4E0D94F41C0D944F6E0D94296A3D
:1005B0000D94796F0D94F4520D94572F0D9427BF1D
:1005C0000D94EA320D94C0450D94C1AE0D9469BAF4
:1005D0000D94CC450D94967C0D94D8020D947F70AB
:1005E0000D9442700D947A1D0D947AB60D948A6321
:1005F0000D9455270D947DBF0D9433080D94F1454E
:100600000D94CA080D94B8020D9477BF0D94A2C33F
:100610000D949F840D9478010D9494B70D94952FAB
:100620000D9498B60D94E2630D94C82F0D94BFB24B
:100630000D94F1710D94B9BF0D9402BF0D94B102E8
:100640000D942F6C0D949BB70D9460700D941EC784
:100650000D949C620D9499B10D94946F0D949B69C7
:100660000D9485B30D94416F0D94A4440D94ACA8E2
:100670000D9432C30D9481500D94F5770D94296F2C
:100680000D940E490D94BEC00D945C840D94BA99DE
:100690000D94B2210D945AA20D94BBC00D945484B4
:1006A0000D9413B60D94D7C00D941C960D94AF7C89
:1006B0000D9404B00D9452BD0D94AC770D94B3A479
:1006C0000D946EC70D94DB240D943AA50D94AC21C6
:1006D0000D9431C10D94AFBF0D94526F0D9469BF4D
:1006E0000D9437B60D9481340D943B2F0D94DD1984
:1006F0000D94D8BF0D94A7050D9404A60D94B96F61
:100700000D9495B70D943D6D0D94EEBD0D944581FE
:100710000D94E87C0D94A5BF0D9495690D948FB749
:100720000D946FBF0D940DC70D9493B70D94FDBE3E
:100730000D94D1BF0D94FE220D9437C00D9406B6D2
:100740000D949A420D94D0450D9447BF0D94317588
:100750000D9432C00D94811E0D9483A90D94392FF0
:100760000D9400C60D9489390D947B5E0D942E84F2
:100770000D94C2300D9434BB0D94F7470D9423A70C
:100780000D9486BF0D945F760D9483C10D94C37252
:100790000D9430680D9409BA0D9435BF0D940FC0B7
:1007A0000D94A1B70D949F7D0D9450C10D94A55B40
:1007B0000D946D4A0D94F3C00D94DC450D94DAC68A
:1007C0000D942A0D0D948B220D94B1C00D947F537E
:1007D0000D947E1E0D94A71C0D9419220D94A49FB8
:1007E0000D94EEBA0D943FAC0D94687D0D94515369
:1007F0000D94F7B60D94C69F0D94D17E0D94D10D36
:100800000D94ABA40D94F8C10D9416960D94A97C8B
:100810000D9499B70D9430920D9439AC0D94F12349
:100820000D94106B0D942DBA0D94A76D0D940AC004
:100830000D940F520D947CC70D94D81F0D942DBDAF
:100840000D94C4450D94F4BD0D944B810D94B2AD3F
:100850000D9406C60D9441530D9415A30D94240DCB
:100860000D94A4B70D9425B70D9497650D94AD051F
:100870000D947FC30D94A2450D94FDC50D9442B512
:100880000D9469BB0D94EC2D0D947EA40D94B4BF12
:100890000D94736A0D943BB60D94CCB60D94934CA5
:1008A0000D947DB20D9405AB0D949FA70D943D263C
:1008B0000D94C8020D94458B0D940C700D9435C7A2
:1008C0000D948EA10D941C6F0D94A8C60D9445B582
:1008D0000D94BE910D9428C00D94DF990D942D08B0
:1008E0000D94B6020D944DB40D9400C00D941531C5
:1008F0000D942A290D94F56E0D94E9BE0D94636F45
:100900000D94ABC80D94E6AA0D94AFC50D94F77184
:100910000D9465AA0D9448070D94A9C50D94640320
:100920000D9411B80D94D8450D94C3C00D94D20206
:100930000D945E030D94FF070D945B130D9498BB0B
:100940000D944BBA0D94DEB60D94F9C50D9462B6B4
:100950000D9488A50D94F5B50D944EC10D94E1BB91
:100960000D9449710D9413BF0D942ABA0D942770FC
:100970000D9443A70D94E0A30D94E7940D94215397
:100980000D941C660D946D6A0D9435BA0D947B23FD
:100990000D9416340D9412C50D9490660D9481BF7C
:1009A0000D94C57E0D949A790D94C22F0D9460C05C
:1009B0000D94F10F0D94BEBF0D9433BD0D94DD5A0F
:1009C0000D9414550D9419C00D940C670D94824D1F
:1009D0000D94F3070D9432770D94CF480D944EABE0
:1009E0000D943AB60D9448B70D94A1650D94B2C01C
:1009F0000D9465BD0D94751F0D9421BF0D946CC6AB
:100A00000D9401050D9406A50D94E7A60D9423C041
:100A10000D94CDC60D9498B70D947EC30D94648447
:100A20000D945B070D94F9560D94AF0A0D94FB7A63
:100A30000D94B6AB0D94C84B0D94ED340D943ABBA8
:100A40000D94D4C60D943DBF0D941F1C0D94B0C8D9
:100A50000D94CB210D943EC40D948D780D94B35418
:100A60000D94A0020D94FF6F0D940A200D94AC35E7
:100A70000D94E4BC0D94A0B70D9412C70D94F72902
:100A80000D94C0020D9457BF0D9481070D948102FF
:100A90000D9428020D947BA90D94F6BF0D94A765C3
:100AA0000D949B5E0D9422020D94BA070D9487025B
:100AB0000D94A8090D940D7D0D943BBA0D948D6491
:100AC0000D94A8020D943DC00D948DB90D94D7A43A
:100AD0000D9464530D94D3430D94607E0D94177957
:100AE0000D940BA70D94C3BF0D94209F0D9461C36B
:100AF0000D94411F0D941DBF0D94FEA50D94B81BC0
:100B00000D9430300D940CA60D9445A70D94E07211
:100B10000D940BB70D9430650D94166B0D940DBAB2
:100B20000D94A16C0D944DBF0D9463BB0D941020DA
:100B30000D94443A0D94A4A00D94F6200D9475A93B
:100B40000D9456BC0D9425A70D94262E0D94A57DCD
:100B50000D94D26F0D944B070D9472BD0D9473BF1D
:100B60000D9429A40D942DC00D94FA3E0D94EDC161
:100B70000D949C7C0D94CDBF0D94D93C0D94137DA8
:100B80000D944C100D9465BF0D945AC00D947CC605
:100B90000D9488C40D94D2C20D94F1C20D942CC34F
:100BA0000D94422A0D9443710D940D080D94B402D6
:100BB0000D945BBF0D94C9A70D9458480D94B900CE
:100BC0000D940AC70D949A010D941D640D94108420
:100BD0000D9400C20D94DF7C0D941AC10D94E36B4B
:100BE0000D946FA90D9459C00D9496570D947222CF
:100BF0000D94D5700D9438530D94D4450D94042064
:100C00000D9497220D945A7D0D94C3A20D9487BF25
:100C10000D9462230D944CBF0D9411530D94AD6D42
:100C20000D9480190D94F8BE0D944A7D0D94E050FA
:100C30000D94BA020D9405C00D94C9A20D9469A13A
:100C40000D94AA460D9485C40D941F090D941EC0E1
:100C50000D942A680D94EC410D94AAB20D9442555E
:100C60000D94B7C00D9436840D9490B70D945E1B0F
:100C70000D942BBF0D94BE020D948BA90D94E27CB4
:100C80000D941D060D9403760D9437A40D94BC535A
:100C90000D944E070D94ECAA0D9449530D94A8C3DE
:100CA0000D94A5840D9481B30D94DB760D940F31D2
:100CB0000D94B7730D94B4C70D9466A70D945BB6ED
:100CC0000D9410BA0D94E06C0D94700C0D94FB040F
:100CD0000D9456C10D94F18C0D947E430D9491A901
:100CE0000D94DD6B0D9460CF0D9461BF0D94EA4DB2
:100CF0000D9424B30D94FC200D94F9430D94FAC681
:100D00000D94C8BF0D94A2C60D94C4C40D949D2229
:100D10000D94AEC70D94F5C50D94660B0D9443BFAD
:100D20000D9443740D94E9680D9451070D94BC30F3
:100D30000D948F2F0D9404430D948AA50D9464A7F0
:100D40000D94781E0D94E4610D94D3C60D94236424
:100D50000D94BABD0D94627D0D9431B30D94C845C8
:100D60000D943EB50D94DBBB0D94E9A30D94E1BC4D
:100D70000D94BC020D94BCA20D94A2B70D94F3BEC9
:100D80000D9425380D9439BF0D9447730D947267F7
:100D90000D94B1B60D94F9A50D948BC60D94B4C401
:100DA0000D9488490D94758A0D9425090D940508B4
:100DB0000D9412590D942FBF0D949EB70D942FA42E
:100DC0000D947EB30D94DEBC0D9491B70D94CD3788
:100DD0000D949EBB0D9485C10D94A5BC0D94ADBE24
:100DE0000D94B7860D94621E0D94016F0D9465C924
:100DF0000D9410BF0D9450C70D941F840D94D77E91
:100E00000D942C7A0D947E330D94DB700D94F26367
:100E10000D94855A0D940DB6536574207468726FE5
:100E200074746C65202575005365742067726F7546
:100E30006E64737065656420257500536574206168
:100E400069727370656564202575206D2F7300527B
:100E50006573657474696E6720707265765F57504C
:100E6000005365742066656E636520656E61626C13
:100E7000656420737461746520746F202575005556
:100E80006E61626C6520746F207365742066656E98
:100E9000636520656E61626C65642073746174655E
:100EA00020746F2025750053657420696E76657215
:100EB00074656420257500457865637574696E678F
:100EC00020636F6D6D616E642049442023256900A5
:100ED000457865637574696E67206E617620636F0F
:100EE0006D6D616E6420494420232569005265744C
:100EF00075726E696E6720746F20486F6D65004D66
:100F00006F6465282575290054616B656F666600FE
:100F1000477569646564004C6F697465720052546A
:100F20004C004155544F00435255495345004642E9
:100F3000575F42004155544F54554E450046425765
:100F40005F41004143524F00547261696E696E67A0
:100F50000053746162696C697A6500436972636CFD
:100F600065004D616E75616C0041504D2032000A84
:100F700041726475506C616E652056332E322E318D
:100F80000A467265652052414D3A2025750A006275
:100F90006164206C6F67206E756D6265720A006413
:100FA000756D70696E6720616C6C0A00656E6162B8
:100FB0006C6500534F4E41520052430043414D4532
:100FC0005241005445435300434F4D504153530049
:100FD00043555252454E5400434D4400494D55002F
:100FE0004D4F4445004E54554E004354554E00500D
:100FF0004D004750530041545449545544455F4DAA
:1010000045440041545449545544455F4641535466
:1010100000616C6C006D697373696E67206C6F673B
:1010200020747970650A0020255300534F4E4152B9
:1010300000202553005243002025530043414D45D5
:1010400052410020255300544543530020255300AE
:10105000434F4D50415353002025530043555252A6
:10106000454E540020255300434D44002025530095
:10107000494D5500202553004D4F44450020255330
:10108000004E54554E00202553004354554E002029
:10109000255300504D002025530047505300202574
:1010A000530041545449545544455F4D4544002034
:1010B00025530041545449545544455F46415354C7
:1010C000006E6F6E65006C6F677320656E61626C99
:1010D00065643A20004C6F772042617474657279C0
:1010E00020252E326656205573656420252E3066E5
:1010F000206D4168006661696C656420746F2073BF
:1011000065742072616C6C7920706F696E74006216
:1011100061642072616C6C7920706F696E742069F3
:101120006E646578006261642072616C6C79207015
:101130006F696E74206D65737361676520636F7589
:101140006E74006261642072616C6C7920706F69EA
:101150006E74206D65737361676520494400626138
:10116000642066656E636520706F696E74006261ED
:10117000642066656E636520706F696E74006665D5
:101180006E63696E67206D75737420626520646993
:101190007361626C65640041726475506C616E6568
:1011A0002056332E322E310052656A6563746564B1
:1011B00020676F2061726F756E6420636F6D6D6163
:1011C0006E642E00476F2061726F756E6420636FCE
:1011D0006D6D616E642061636365707465642E007B
:1011E000556E737570706F72746564207072656689
:1011F0006C696768742063616C6962726174696F9D
:101200006E00636F6D6D616E6420726563656976F3
:1012100065643A200044656D6F20536572766F7384
:1012200021007A65726F2061697273706565642050
:1012300063616C69627261746564006261726F6D92
:10124000657465722063616C6962726174696F6E46
:1012500020636F6D706C6574650043616C696272C8
:101260006174696E67206261726F6D65746572008A
:101270004E4F2061697273706565640042656769ED
:101280006E6E696E6720494E532063616C696272AD
:101290006174696F6E3B20646F206E6F74206D6F98
:1012A000766520706C616E65000A0A205265616483
:1012B0007920746F20464C592E003C73746172740F
:1012C00075705F67726F756E643E2047524F554E62
:1012D00044205354415254004C6F6720657261732F
:1012E0006520636F6D706C6574650045726173692C
:1012F0006E67206C6F6773006C6F61645F616C6C0C
:1013000020746F6F6B20256C7575730A00646F6EA7
:10131000652E004669726D77617265206368616E43
:1013200067653A2065726173696E67204545505262
:101330004F4D2E2E2E0A0042616420706172616D45
:1013400065746572207461626C650042616420702E
:101350006172616D65746572207461626C650A000A
:10136000496E697469616C6973696E672041504D9B
:101370002E2E2E000A507265737320454E5445522E
:1013800020332074696D657320746F2073746172EB
:101390007420696E74657261637469766520736523
:1013A0007475700A00436F6D7061737320696E69A4
:1013B0007469616C69736174696F6E206661696CD0
:1013C0006564210045524153494E47204C4F4753D5
:1013D000004E6F2064617461666C617368206361A4
:1013E000726420696E736572746564000A0A496EDE
:1013F00069742041726475506C616E652056332E9D
:10140000322E310A0A467265652052414D3A202536
:10141000750A004D5347204653204F4646202575F8
:10142000004D5347204653204F4E202575004661FE
:10143000696C73616665202D2053686F7274206536
:1014400076656E74206F666600666C6967687420E6
:101450006D6F6465203D202575004661696C736180
:101460006665202D2053686F7274206576656E74F2
:10147000206F6E2C200046425741207464726167D1
:10148000206D6F64650A00464257412074647261A2
:1014900067206F66660054726967676572656420CD
:1014A0004155544F2C20475053737064203D2025E4
:1014B0002E316600426164204C61756E6368204184
:1014C00055544F0054696D656F7574204155544FE4
:1014D0000041726D6564204155544F2C2078616342
:1014E00063656C203D20252E3166206D2F732F7390
:1014F0002C2077616974696E6720252E3166207310
:1015000065630054696D657220496E746572727509
:1015100070746564204155544F0067707320616C8E
:10152000743A20256C7500696E697420686F6D656A
:1015300000556E61626C6520746F20737461727403
:10154000206C616E64696E672073657175656E638A
:10155000652E004C616E64696E67207365717565F8
:101560006E636520626567756E2E00526561636803
:10157000656420686F6D65007665726966795F6E77
:1015800061763A204C4F495445522074696D65206C
:10159000636F6D706C657465007665726966795FFE
:1015A0006E61763A204C4F49544552206F72626901
:1015B000747320636F6D706C657465005061737334
:1015C000656420576179706F696E742023256920E6
:1015D000646973742025756D005265616368656484
:1015E00020576179706F696E7420232569206469C2
:1015F00073742025756D00466C61726520252E314F
:10160000666D2073696E6B3D252E326620737065A2
:1016100065643D252E31660046656E636520656E06
:1016200061626C65642E20286175746F656E6162FD
:101630006C65642900456E61626C652066656E6349
:1016400065206661696C6564202863616E6E6F74E5
:10165000206175746F656E61626C6500486F6C64C3
:10166000696E6720636F7572736520256C642061F5
:101670007420252E31666D2F732028252E31662982
:10168000007665726966795F636F6E6469746F6E08
:101690003A20496E76616C6964206F72206E6F200B
:1016A00063757272656E7420436F6E646974696FDE
:1016B0006E20636D64007665726966795F6E61762F
:1016C0003A20496E76616C6964206F72206E6F20DB
:1016D00063757272656E74204E617620636D64006E
:1016E00067656F2D66656E636520747269676765EF
:1016F0007265640067656F2D66656E6365204F4B8C
:101700000067656F2D66656E63652073657475701F
:10171000206572726F720067656F2D66656E636516
:10172000206C6F616465640046656E636520646962
:101730007361626C656420286175746F646973619C
:10174000626C65290044697361626C652066656E30
:101750006365206661696C656420286175746F64D7
:10176000697361626C652900666C69676874206DD5
:101770006F6465203D202575004E6F204743532040
:101780006865617274626561742E004661696C738C
:10179000616665202D204C6F6E67206576656E74DE
:1017A000206F6E2C2000475F44745F6D61783D258B
:1017B0006C7520475F44745F6D696E3D256C750ADA
:1017C0000041726475506C616E652056332E322E66
:1017D0003100F1000400524C4C325352565F50001D
:1017E00000000000000000F1010400524C4C325394
:1017F00052565F490000000000000000F1020400A2
:10180000524C4C325352565F44000000000000001E
:1018100000F1030400524C4C325352565F494D4183
:10182000580000000000F2000400505443483253B6
:1018300052565F5000000000000000F2010400500A
:10184000544348325352565F4900000000000000E4
:10185000F202040050544348325352565F44000091
:101860000000000000F20304005054434832535279
:10187000565F494D4158000000008600010042417A
:1018800054545F4D4F4E49544F520000000000A881
:10189000000100424154545F564F4C545F50494E32
:1018A00000000000A9000100424154545F4355521A
:1018B000525F50494E00000000870004004241542E
:1018C000545F564F4C545F4D554C540000008800F7
:1018D0000400424154545F414D505F504552564FB1
:1018E0004C54008F000400424154545F414D505FFE
:1018F0004F464653455400008A0003004241545469
:101900005F4341504143495459000000000B00021D
:10191000004C4F475F4249544D41534B000000007B
:1019200000003400040052414C4C595F4C494D4971
:10193000545F4B4D000000EE00010052414C4C59E9
:101940005F544F54414C0000000000008059464D48
:1019500054000042426E4E5A000000000000000099
:10196000000000547970652C4C656E6774682C4ECD
:10197000616D652C466F726D61742C436F6C756D73
:101980006E73000000000000000000000000000076
:101990000000000000000000000000000000000047
:1019A00000000081175041524D004E6600000000BB
:1019B000000000000000000000004E616D652C5624
:1019C000616C756500000000000000000000000070
:1019D0000000000000000000000000000000000007
:1019E00000000000000000000000000000000000F7
:1019F00000000000000000000000822D475053004E
:101A00000042494842634C4C6565456566490000A3
:101A1000005374617475732C54696D654D532C5764
:101A200065656B2C4E536174732C48446F702C4C5D
:101A300061742C4C6E672C52656C416C742C416C3B
:101A4000742C5370642C474372732C565A2C5400D8
:101A5000008327494D5500004966666666666649FB
:101A6000490000000000000054696D654D532C478B
:101A70007972582C477972592C4779725A2C4163E4
:101A800063582C416363592C4163635A2C4572722D
:101A9000472C457272410000000000000000000069
:101AA000000000000000000084434D534700005A2E
:101AB0000000000000000000000000000000004DD9
:101AC000657373616765000000000000000000009E
:101AD0000000000000000000000000000000000006
:101AE00000000000000000000000000000000000F6
:101AF0000000000000000000000000000000008561
:101B0000235243494E004968686868686868686895
:101B100068686868680054696D654D532C43312CC2
:101B200043322C43332C43342C43352C43362C4343
:101B3000372C43382C43392C4331302C4331312C52
:101B40004331322C4331332C433134000000000048
:101B5000000000000000861F52434F55004968688E
:101B60006868686868686868686800000054696D3B
:101B7000654D532C4368312C4368322C4368332C19
:101B80004368342C4368352C4368362C4368372C23
:101B90004368382C4368392C436831302C43683112
:101BA000312C4368313200000000000000881542EB
:101BB00041524F0049666663660000000000000065
:101BC0000000000054696D654D532C416C742C501D
:101BD000726573732C54656D702C43527400000051
:101BE00000000000000000000000000000000000F5
:101BF00000000000000000000000000000000000E5
:101C000000000000A3154241523200496666636637
:101C1000000000000000000000000054696D654DE8
:101C2000532C416C742C50726573732C54656D7019
:101C30002C4352740000000000000000000000006F
:101C40000000000000000000000000000000000094
:101C50000000000000000000000000890D504F57F8
:101C6000520049434348000000000000000000000B
:101C7000000054696D654D532C5663632C565365B3
:101C800072766F2C466C61677300000000000000E4
:101C90000000000000000000000000000000000044
:101CA0000000000000000000000000000000000034
:101CB00000009129434D4400004948484866666643
:101CC00066666666000000000054696D654D532C21
:101CD00043546F742C434E756D2C4349642C5072E1
:101CE0006D312C50726D322C50726D332C50726DE0
:101CF000342C4C61742C4C6E672C416C74000000C9
:101D0000000000000000000000921052414400005A
:101D100049424242424248480000000000000000A0
:101D200054696D654D532C525353492C52656D5275
:101D30005353492C54784275662C4E6F6973652C49
:101D400052656D4E6F6973652C52784572726F7271
:101D5000732C4669786564000000000000000000F4
:101D6000941F43414D000049484C4C6565636343F3
:101D70000000000000000047505354696D652C4777
:101D800050535765656B2C4C61742C4C6E672C411D
:101D90006C742C52656C416C742C526F6C6C2C50B2
:101DA000697463682C59617700000000000000002E
:101DB00000000000000000A4194152535000496681
:101DC00066636666000000000000000000005469C1
:101DD0006D654D532C41697273706565642C44695F
:101DE000666650726573732C54656D702C52617702
:101DF00050726573732C4F66667365740000000043
:101E00000000000000000000000000000000A61517
:101E100043555252004968686848666800000000EF
:101E2000000000000054696D654D532C5468726FBA
:101E300074746C652C566F6C742C437572722C56CE
:101E400063632C43757272546F742C566F6C7432CA
:101E50000000000000000000000000000000000082
:101E60000000000000A5174154540000496363635B
:101E700063434343430000000000000054696D6564
:101E80004D532C446573526F6C6C2C526F6C6C2CE0
:101E900044657350697463682C50697463682C449A
:101EA00065735961772C5961772C45727252502CA9
:101EB000457272596177000000000000A7194D417A
:101EC00047000049686868686868686868000000DA
:101ED00000000054696D654D532C4D6167582C4DC1
:101EE0006167592C4D61675A2C4F6673582C4F66A9
:101EF00073592C4F66735A2C4D4F6673582C4D4FA7
:101F00006673592C4D4F66735A00000000000000A4
:101F1000000000AA094D4F444500494D4200000011
:101F20000000000000000000000054696D654D5382
:101F30002C4D6F64652C4D6F64654E756D0000000F
:101F40000000000000000000000000000000000091
:101F50000000000000000000000000000000000081
:101F6000000000000000000000000216504D0000BC
:101F700000494849686868424800000000000000C5
:101F8000004C54696D652C4D4C432C6744742C47B0
:101F900044782C4744792C47447A2C493243457283
:101FA000722C494E53457272000000000000000080
:101FB0000000000000000000000000000000000021
:101FC000000506535452540042480000000000002F
:101FD000000000000000000053547970652C435449
:101FE0006F7400000000000000000000000000000E
:101FF00000000000000000000000000000000000E1
:1020000000000000000000000000000000000000D0
:10201000000000000000000000174354554E004926
:10202000636363636868660000000000000000549A
:10203000696D654D532C4E6176526F6C6C2C526FEE
:102040006C6C2C4E617650697463682C50697463B3
:10205000682C5468724F75742C5264724F75742CCE
:10206000416363590000000000000000000000010F
:102070001D4E54554E0049436663636363664900D1
:1020800000000000000054696D654D532C596177C4
:102090002C5770446973742C546172674272672CB8
:1020A0004E61764272672C416C744572722C41729B
:1020B0007370642C416C742C47537064434D000062
:1020C0000000000000000E1D534F4E52004966668E
:1020D0006666424266000000000000000054696D20
:1020E000654D532C44697374434D2C566F6C742C9E
:1020F0004261726F416C742C475370642C54687247
:102100002C436E742C436F727200000000000000BC
:1021100000000000000000000000000000100A4164
:10212000524D00004948420000000000000000003D
:102130000000000054696D654D532C41726D53745D
:102140006174652C41726D436865636B73000000B8
:10215000000000000000000000000000000000007F
:10216000000000000000000000000000000000006F
:1021700000000000931741545250004942426366E8
:10218000666600000000000000000054696D654DA7
:10219000532C547970652C53746174652C5365729B
:1021A000766F2C44656D616E6465642C416368696B
:1021B000657665642C5000000000000000000000FF
:1021C00000000000000000000000000C37544543F0
:1021D000530049666666666666666666666666009B
:1021E000000054696D654D532C682C64682C685F41
:1021F00064656D2C64685F64656D2C73705F6465E5
:102200006D2C73702C6473702C6974682C69706801
:102210002C74682C70682C6473705F64656D0000AA
:1022200000004C6F670064756D70000000000000D6
:10223000000000003E2F6572617365000000000021
:10224000000000006334656E61626C650000000090
:1022500000000000894964697361626C65000000D8
:10226000000000008949CE660100BC023E8B0100DF
:10227000E803D338010000198F4001004006466E84
:1022800001007805EF4F0100AC0D0C600100400625
:10229000566D0700E803E1330100E8031D37010034
:1022A000C409F47D0500C4097F840500B80B5157AB
:1022B0000500B004BD350500B004156D0500480DDE
:1022C00013550500E803E62E0500E8037335010009
:1022D000A4060C5F0100B80B6E350100DC05F84464
:1022E00005002C01138C0500E80365350100DC05B1
:1022F0006035010084035B3501002C013E5B010069
:10230000F401FB343200E803B9860F00E803B1445E
:102310000500E8031C473200E803C0330100DC0578
:10232000B77CF401E803B733B80BC409265705009E
:10233000A40669320500A406E72E0500F401024652
:102340004F524D41545F56455253494F4E00000085
:10235000002D12000000000153595349445F5357A8
:102360005F5459504500000000012F12000000008A
:102370000253595349445F544849534D4156000054
:1023800000007030120000803F0253595349445FEF
:102390004D59474353000000000000713212000005
:1023A0007F430253455249414C305F4241554400FE
:1023B000000000003F34120000E64202534552493B
:1023C000414C315F4241554400000000004036124C
:1023D00000006442014155544F54554E455F4C45F1
:1023E00056454C0000003D2A140000C040015445F1
:1023F0004C454D5F44454C415900000000000073BE
:10240000381200000000044B46465F524444524DCF
:102410004958000000000000C93A120000003F04C3
:102420004B46465F54485232505443480000000027
:1024300000CB42120000000004535441425F504957
:102440005443485F444F574E00004C4C120000006C
:102450004002474C4944455F534C4F50455F4D49FE
:102460004E00004BEE120000704101535449434BA3
:102470005F4D4958494E47000000000019D6120030
:1024800000803F01534B49505F4759524F5F4341D2
:102490004C000000002F561200000000014155546E
:1024A0004F5F4642575F5354454552000000305736
:1024B000120000000004544B4F46465F5448525FE0
:1024C0004D494E5350440022D712000000000454DE
:1024D0004B4F46465F5448525F4D494E414343007F
:1024E00023DB120000000001544B4F46465F544866
:1024F000525F44454C415900002EDF12000000405D
:1025000001544B4F46465F54445241475F454C454A
:10251000560042E0120000000004544B4F46465F54
:1025200054445241475F535044310043E11200008C
:10253000000004544B4F46465F524F544154455F90
:102540005350440044E5120000000001544B4F4634
:10255000465F5448525F534C455700000045E9120E
:102560000000000001544B4F46465F464C41505F0F
:1025700050434E54000051CF12000000000146426B
:1025800057415F54445241475F4348414E00004E1B
:10259000F01200000000014C4556454C5F524F4C74
:1025A0004C5F4C494D49540025EB120000A04002FD
:1025B0004C414E445F50495443485F43440000003F
:1025C00000172B1400000000044C414E445F464CA1
:1025D0004152455F414C540000001BB912000040BD
:1025E00040044C414E445F464C4152455F53454385
:1025F0000000001CBD1200000040014E41565F4328
:102600004F4E54524F4C4C4552000000285412007B
:1026100000803F04414C545F4D49580000000000C9
:1026200000000000008358120000803F01414C541C
:102630005F4354524C5F414C4700000000007C5CFB
:10264000120000000002414C545F4F46465345546F
:102650000000000000000020971200000000025758
:10266000505F5241444955530000000000000000F3
:10267000DF5E120000B4420257505F4D41585F5276
:102680004144495553000000003160120000000031
:102690000257505F4C4F495445525F52414400002D
:1026A0000000E06212000070420146454E43455F63
:1026B000414354494F4E0000000000E16412000005
:1026C00000000146454E43455F544F54414C0000C5
:1026D00000000000E26512000000000146454E4384
:1026E000455F4348414E4E454C00000000E36612F2
:1026F000000000000246454E43455F4D494E414CA7
:10270000540000000000E46712000000000246458B
:102710004E43455F4D4158414C540000000000E5D8
:102720006912000000000246454E43455F52455481
:10273000414C540000000000696B120000000001D1
:1027400046454E43455F4155544F454E41424C45E9
:10275000006A6D12000000000146454E43455F527D
:1027600045545F52414C4C5900006B6E1200000002
:1027700000015354414C4C5F50524556454E54490C
:102780004F4E00552D140000803F024152535044DB
:102790005F4642575F4D494E00000000782214000A
:1027A0000010410241525350445F4642575F4D4131
:1027B00058000000007924140000B041014642573F
:1027C000425F454C45565F524556000000007B6F06
:1027D000120000000001464257425F434C494D42FF
:1027E0005F5241544500007D7012000000400154CA
:1027F00048525F4D494E00000000000000000000FC
:10280000B51E1400000000015448525F4D415800AD
:10281000000000000000000000B61F1400009642F7
:1028200001544B4F46465F5448525F4D415800009B
:10283000000046EA1200000000015448525F534C69
:102840004557524154450000000000BD20140000CF
:10285000C84201464C41505F534C45575241544584
:102860000000000052F21200009642015448525FEC
:10287000535550505F4D414E0000000000BE711294
:1028800000000000015448525F504153535F5354BD
:10289000414200000000BF721200000000015448D5
:1028A000525F4641494C534146450000000000B785
:1028B00073120000803F025448525F46535F5641F6
:1028C0004C55450000000000B8741200806D4401B2
:1028D0005452494D5F5448524F54544C45000000E7
:1028E00000B9211400003442015448524F54544C52
:1028F000455F4E554447450000001F76120000809A
:102900003F0146535F53484F52545F4143544E007A
:10291000000000BA7712000000000446535F5348DD
:102920004F52545F54494D454F555400C3791200DE
:1029300000C03F0146535F4C4F4E475F4143544EEA
:102940000000000000BB7812000000000446535F46
:102950004C4F4E475F54494D454F55540000C47D80
:10296000120000A0410446535F424154545F564F49
:102970004C544147450000C182120000000004464B
:10298000535F424154545F4D414800000000000035
:10299000C28612000000000146535F4743535F4563
:1029A0004E41424C0000000000BC811200000000BB
:1029B00001464C544D4F44455F4348000000000021
:1029C0000000D28A120000A04001464C544D4F44F2
:1029D0004531000000000000000000D38B12000011
:1029E000304101464C544D4F444532000000000038
:1029F00000000000D48C120000304101464C544DC0
:102A00004F444533000000000000000000D58D1247
:102A10000000A04001464C544D4F44453400000096
:102A2000000000000000D68E120000A04001464CBD
:102A3000544D4F444535000000000000000000D711
:102A40008F120000000001464C544D4F44453600A3
:102A50000000000000000000D890120000000001FB
:102A6000464C544D4F444537000000000000000024
:102A700000D991120000000001464C544D4F4445CE
:102A800038000000000000000000DA921200000090
:102A90000001464C544D4F444539000000000000F1
:102AA000000000DB93120000000001464C544D4F23
:102AB00044455F434832000000000000FB941200D0
:102AC00000C040024C494D5F524F4C4C5F434400A4
:102AD000000000000098951200A08C45024C494D62
:102AE0005F50495443485F4D41580000000099260B
:102AF000140000FA44024C494D5F50495443485F6A
:102B00004D494E000000009A281400401CC50241A7
:102B100043524F5F524F4C4C5F52415445000000AE
:102B20007E991200003443024143524F5F50495492
:102B300043485F5241544500007F9B1200003443DC
:102B4000014143524F5F4C4F434B494E47000000F9
:102B50000000809D12000000000447524F554E4473
:102B60005F53544545525F414C54003246120000B9
:102B700000000247524F554E445F53544545525F43
:102B800044505300334A120000B442015452494D9C
:102B90005F4155544F00000000000000000A9E12E3
:102BA0000000000001454C45564F4E5F4D495849C5
:102BB0004E47000000000D9F120000000001454C30
:102BC00045564F4E5F524556455253450000000E44
:102BD000A6120000000001454C45564F4E5F434889
:102BE000315F5245560000000FA71200000000019F
:102BF000454C45564F4E5F4348325F5245560000A4
:102C00000010A8120000000001565441494C5F4FCB
:102C10005554505554000000000027A01200000039
:102C20000001454C45564F4E5F4F5554505554008A
:102C300000000029A11200000000044D4958494E2F
:102C4000475F4741494E0000000000002BA21200E0
:102C500000003F025359535F4E554D5F5245534557
:102C6000545300000002A91200000000034C4F471B
:102C70005F4249544D41534B00000000000037AB08
:102C80001200F87D46015253545F5357495443484C
:102C90005F43480000000015AF1200000000015221
:102CA00053545F4D495353494F4E5F434800000012
:102CB0001AB01200000000035452494D5F415253B4
:102CC00050445F434D000000009BB1120000964449
:102CD000045343414C494E475F535045454400001F
:102CE0000000CC501200007041034D494E5F474E2A
:102CF000445350445F434D000000009EC112000049
:102D00000000025452494D5F50495443485F4344C8
:102D1000000000000CC5120000000003414C545F8D
:102D2000484F4C445F52544C00000000009CB512C8
:102D300000401C4602414C545F484F4C445F4642A1
:102D400057434D0000007AC71200000000014D41BA
:102D5000475F454E41424C450000000000000084A2
:102D6000C9120000803F01464C41505F494E5F430D
:102D700048414E4E454C00003AEC12000000000164
:102D8000464C415045524F4E5F4F5554505554009C
:102D9000003BED120000000001464C41505F315FE6
:102DA000504552434E540000000011CA120000006A
:102DB0000001464C41505F315F535045454400008F
:102DC00000000012CB120000000001464C41505F91
:102DD000325F504552434E540000000013CC1200A5
:102DE00000000001464C41505F325F53504545445E
:102DF000000000000014CD1200000000014C414E04
:102E0000445F464C41505F504552434E540050CEB3
:102E1000120000000001525353495F50494E000018
:102E200000000000000000A7D012000080BF045284
:102E30005353495F52414E474500000000000000D7
:102E400039D1120000A04001494E56455254454424
:102E5000464C545F43480000009DD512000000001E
:102E60000152544C5F4155544F4C414E44000000B8
:102E700000005339120000000008474E445F000074
:102E800000000000000000000000008D0211453825
:102E90000000084750535F000000000000000000E1
:102EA000000000003C7111E03400000843414D5F18
:102EB00000000000000000000000000000A0D70893
:102EC000D64100000841524D494E475F00000000C6
:102ED0000000000000006440064B5A000008524504
:102EE0004C41595F00000000000000000000002D70
:102EF00003094041000008524E47464E440000007E
:102F00000000000000000000471209333F000001EC
:102F1000524E47464E445F4C414E44494E47000096
:102F2000004FF11200000000085243315F00000022
:102F300000000000000000000000AAF312523E0052
:102F400000085243325F0000000000000000000053
:102F5000000000AB1013523E0000085243335F00E4
:102F6000000000000000000000000000AC2D135223
:102F70003E0000085243345F0000000000000000E3
:102F80000000000000AD4A13523E000008524335D5
:102F90005F00000000000000000000000000AE67BD
:102FA00013E83E0000085243365F000000000000B6
:102FB00000000000000000AF8513E83E000008524A
:102FC00043375F0000000000000000000000000028
:102FD000B0A313E83E0000085243385F0000000031
:102FE000000000000000000000B1C113E83E000036
:102FF00008524331305F0000000000000000000074
:103000000000B3DF13E83E000008524331315F0097
:103010000000000000000000000000B4FD13E83EC6
:10302000000008524C4C325352565F000000000022
:1030300000000000E8DE0BF644000008505443484E
:10304000325352565F0000000000000000E9640B9C
:103050001544000008594157325352565F00000092
:10306000000000000000EA320B54460000085354F0
:10307000454552325352565F00000000000000EFF9
:103080000E0BA545000008434F4D504153535F00C0
:103090000000000000000000851A10A4390000089C
:1030A00053434845445F000000000000000000005A
:1030B000002C18129E5300000852434D41505F00EF
:1030C00000000000000000000000EC14121B54007F
:1030D00000085352305F00000000000000000000B4
:1030E0000000006E4B0916320000085352315F0099
:1030F0000000000000000000000000006F280A1619
:1031000032000008494E535F00000000000000003C
:10311000000000000021B40F0E3C0000084148529E
:10312000535F0000000000000000000000008CE081
:103130000D583D00000841525350445F000000000C
:10314000000000000000008EA40786420000084E28
:1031500041564C315F0000000000000000000000FC
:10316000EBB60DD053000008544543535F000000F8
:10317000000000000000000000ED520C9854000018
:10318000084D4E545F0000000000000000000000E9
:103190000000A150061B48000008424154540000A2
:1031A0000000000000000000000000A62B08F05600
:1031B0000000084252445F000000000000000000D0
:1031C00000000000381312AF5A0000084D49535F49
:1031D0000000000000000000000000000091400717
:1031E000A55600000852414C4C595F0000000000F9
:1031F0000000000000003EAE08C85A0000000000B9
:1032000000000000000000000000000000000000BE
:1032100000000000000002005241575F53454E532A
:1032200000000000000000000066000000803F0277
:10323000014558545F535441540000000000000001
:10324000000068000000803F020252435F43484193
:103250004E000000000000000000006A0000008036
:103260003F02035241575F4354524C00000000009C
:10327000000000006C000000803F0204504F5349E2
:1032800054494F4E0000000000000000006E000096
:1032900000803F02054558545241310000000000B3
:1032A00000000000000070000000803F020645584A
:1032B0005452413200000000000000000000007283
:1032C000000000803F02074558545241330000007F
:1032D000000000000000000074000000803F0208B1
:1032E000504152414D53000000000000000000001A
:1032F0000076000000204100FF00000000000000F8
:1033000000000000000000000000000000000000BD
:103310002C76D888674F0823C1DFAE59B1B796E540
:10332000E453C63A51997696E6C28426898C9B620C
:10333000407C6FFCBC9C9F40BAA56FA590055A2AA3
:103340005C936B6C676DC11BE0E40D47F520E6B53F
:10335000D0ED902E009435770080841E0000204E22
:10336000000000C833333333986E128341EF8D2150
:10337000893BE655CFFEE6DBD1844B38F77C1D90C8
:10338000A4BBE4243284725E8100C9F1ECA1E53D66
:10339000DCDFE1E3E6E8EBEDEFF2F4F7F9FCFE0049
:1033A0000305080A0C0F111416181B1D20222427D0
:1033B0006E616E00696E660042616420636F6E76B6
:1033C000657273696F6E20747970652027255327A5
:1033D0000A00556E6B6E6F776E20636F6E76657246
:1033E00073696F6E20272553270A0025733A20251D
:1033F000660A0025733A20256C640A0025733A207A
:1034000025640A0025733A2025640A004545505278
:103410004F4D2066756C6C00000000000006030034
:10342000000676090200760F5A000100D00F300026
:1034300000000000000503000005CA090200CA0ED2
:1034400096000100600FA000204E4D454120002055
:10345000534952462000204D544B2000204D544BE0
:10346000313920002075626C6F782000B56206014A
:103470000300010601124F24505542582C34312CC0
:10348000312C303030332C303030312C3338343034
:10349000302C302A32360D0A245047434D442C310B
:1034A000362C302C302C302C302C302A36410D0A62
:1034B00024505352463130302C302C333834303095
:1034C0002C382C312C302A33430D0A00C012000056
:1034D0000096000000C2010000E10000802500000D
:1034E0000100545950450000000000000000000099
:1034F00000000002000000803F01024E4156464994
:103500004C54455200000000000000000300000081
:1035100000410105534241535F4D4F4445000000B7
:10352000000000000004000000004001064D494E6C
:103530005F454C45560000000000000000000500FB
:103540000000C8C200FF00000000000000000000F2
:103550000000000000000000000000000024504DAA
:10356000544B3232302C3230302A32430D0A245040
:103570004D544B3331332C312A32450D0A24504DF2
:10358000544B3330312C322A32450D0A24504D54DD
:103590004B3339372C302A32330D0A0047505654FA
:1035A00047004750474741004750524D4300245081
:1035B0005352463130332C302C302C312C312A32BE
:1035C000350D0A24505352463130332C312C302CD7
:1035D000302C312A32350D0A2450535246313033C3
:1035E0002C322C302C302C312A32360D0A245053F8
:1035F00052463130332C332C302C302C312A323798
:103600000D0A24505352463130332C342C302C3197
:103610002C312A32300D0A24505352463130332C8B
:10362000352C302C312C312A32300D0A2450535293
:10363000463130332C362C302C302C312A32320D9E
:103640000A24505352463130332C382C302C302C35
:10365000312A32430D0A24505352463135312C3130
:103660002A33460D0A24505352463130362C32311B
:103670002A30460D0A24504D544B3331342C302C13
:10368000302C312C312C302C302C302C302C302C58
:10369000302C302C302C302C302C302C302C302A4C
:1036A00032380D0A24504D544B3333302C302A32EB
:1036B000450D0A24504D544B3331332C312A3245B9
:1036C0000D0A24504D544B3330312C322A32450DE3
:1036D0000A24505542582C34302C6767612C302C0A
:1036E000312C302C302C302C302A37420D0A24500B
:1036F0005542582C34302C7674672C302C312C30B9
:103700002C302C302C302A37460D0A245055425884
:103710002C34302C726D632C302C302C302C302C0F
:10372000302C302A36370D0A00A0A20008A602006D
:10373000000000000000A8B0B3A0A20008A6002965
:10374000010000000000D0B0B3546F6F206D616EB7
:1037500079206261726F6D65746572730042617287
:103760006F3A20756E61626C6520746F20696E69B6
:103770007469616C69736520647269766572004171
:10378000505F4261726F3A20616C6C2073656E739A
:103790006F727320756E63616C69627261746564C7
:1037A0000050414E49433A2041505F4261726F3AA6
:1037B0003A7265616420756E7375636365737366D1
:1037C000756C20666F72206D6F7265207468616E13
:1037D000203530306D7320696E2041505F42617238
:1037E0006F3A3A63616C696272617465205B335D44
:1037F0000D0A0050414E49433A2041505F426172E8
:103800006F3A3A7265616420756E737563636573B0
:103810007366756C20666F72206D6F7265207468B8
:10382000616E203530306D7320696E2041505F42EB
:1038300061726F3A3A63616C696272617465205BB0
:10384000325D0D0A0004024142535F50524553530A
:1038500000000000000000001A0000000000040347
:1038600054454D5000000000000000000000000022
:10387000001600000000000104414C545F4F464612
:10388000534554000000000000001E00000000002E
:1038900000FF000000000000000000000000000029
:1038A0000000000000000000004261642043524319
:1038B000206F6E204D53353631310050414E494313
:1038C0003A2041505F4261726F5F4D53353631315E
:1038D0003A206661696C656420746F2074616B6561
:1038E0002073657269616C2073656D6170686F72B9
:1038F0006520666F7220696E69740041505F536580
:103900007269616C4275735F493243206469642057
:103910006E6F74206765742076616C69642049322B
:10392000432073656D6170686F7265210041505F5F
:1039300053657269616C4275735F535049206469C5
:1039400064206E6F74206765742076616C696420F2
:103950005350492073656D617068726F6521006412
:103960006964206E6F74206765742076616C696489
:1039700020535049206465766963652064726976D6
:10398000657221004661696C656420746F2067650B
:103990007420484D43353834332073656D61706849
:1039A0006F72650005014F465300000000000000E3
:1039B00000000000000000170000000000040244A6
:1039C000454300000000000000000000000000006F
:1039D00023000000000001034C4541524E0000004E
:1039E00000000000000000000008000000803F010F
:1039F00004555345000000000000000000000000D6
:103A0000000027000000803F01054155544F444508
:103A100043000000000000000000002800000080BB
:103A20003F01064D4F5443540000000000000000C9
:103A300000000000A4000000000005074D4F5400E6
:103A400000000000000000000000000000A50000D1
:103A500000000001084F5249454E5400000000008C
:103A60000000000000001600000000000109455899
:103A70005445524E414C0000000000000000002957
:103A8000000000000000FF00000000000000000037
:103A90000000000000000000000000000000256C95
:103AA000642E2530376C64002D006779726F5B25BA
:103AB000755D20646964206E6F7420636F6E766537
:103AC0007267653A20646966663D25662064707396
:103AD0000A002A00496E6974204779726F0020003D
:103AE0002A00496E697420416363656C0043616C10
:103AF0006962726174696F6E204641494C45440A9F
:103B00000043616C6962726174696F6E20737563E2
:103B10006365737366756C0A005363616C696E67E5
:103B20005B25755D3A20252E326620252E326620D3
:103B3000252E32660A004F6666736574735B2575C1
:103B40005D3A20252E326620252E326620252E3223
:103B5000660A00506C6163652076656869636C6510
:103B600020255320616E6420707265737320616E2E
:103B700079206B65792E0A006F6E2069747320427C
:103B800041434B006E6F7365205550006E6F736537
:103B900020444F574E006F6E20697473205249477E
:103BA00048542073696465006F6E20697473204CFB
:103BB0004546542073696465006C6576656C004EFB
:103BC0006F20494E53206261636B656E64732061A0
:103BD0007661696C61626C6500546F6F206D616E17
:103BE0007920494E53206261636B656E64730054A3
:103BF0006F6F206D616E7920616363656C73005433
:103C00006F6F206D616E79206779726F73000200AB
:103C100050524F445543545F494400000000000097
:103C2000001F000000000005014143435343414C85
:103C30000000000000000000000021000000000063
:103C400005024143434F4646530000000000000078
:103C50000000002D000000000005034759524F46A8
:103C60004653000000000000000000003900000082
:103C7000000001044D5055364B5F46494C544552A7
:103C8000000000000045000000000000FF000000F0
:103C90000000000000000000000000000000000024
:103CA000000000004661696C656420746F20626FDB
:103CB0006F74204D50553630303020352074696D8A
:103CC0006573004D5055363030303A20556E616284
:103CD0006C6520746F206765742073656D61706812
:103CE0006F72650056616C75657320646F65736EE5
:103CF0002774206D617463683B2077726974746502
:103D00006E3A20253032783B20726561643A202576
:103D100030327820006661696C656420746F2062BF
:103D20006F6F74204D505536303030203520746917
:103D30006D65730054696D6564206F7574207761DB
:103D40006974696E6720666F722075736572207280
:103D50006573706F6E73650004024750535F47418F
:103D6000494E00000000000000000022000000801A
:103D70003F01034750535F555345000000000000CA
:103D8000000000002C000000803F04045941575FF0
:103D9000500000000000000000000000001A00CDEC
:103DA000CC4C3E040552505F500000000000000063
:103DB0000000000000001E00CDCC4C3E010657491B
:103DC0004E445F4D41580000000000000000002DEF
:103DD000000000000005085452494D00000000009A
:103DE0000000000000000000430000000000010986
:103DF0004F5249454E544154494F4E000000000077
:103E0000002E0000000000040A434F4D505F424561
:103E1000544100000000000000002800CDCCCC3D43
:103E2000010B4750535F4D494E534154530000001E
:103E30000000002F000000C04000FF000000000054
:103E40000000000000000000000000000000000072
:103E5000000002004D494E0000000000000000007C
:103E600000000000000A0000808944020154524909
:103E70004D000000000000000000000000000C00E9
:103E80000080BB4402024D415800000000000000C9
:103E9000000000000000000E000080ED440103520D
:103EA0004556000000000000000000000000000077
:103EB00010000000803F0205445A0000000000008E
:103EC00000000000000000000011000000000000E1
:103ED000FF000000000000000000000000000000E3
:103EE00000000000000000000800000000000000CA
:103EF00000000000000000000000000000523E0032
:103F000000010146554E4354494F4E000000000049
:103F1000000000001D000000000000FF0000000085
:103F20000000000000000000000000000000000091
:103F300000000001005F54595045000000000000DF
:103F400000000000000000000000000001015F50C0
:103F5000494E0000000000000000000000000002C8
:103F600000000080BF04025F5343414C494E4700AC
:103F700000000000000000000C00000040400403AE
:103F80005F4F46465345540000000000000000000B
:103F90000014000000000001045F46554E435449E0
:103FA0004F4E00000000000000001C000000000058
:103FB00002055F4D494E5F434D00000000000000C8
:103FC0000000001E000000A04102065F4D41585F46
:103FD000434D00000000000000000000220000002F
:103FE0002F4401075F53544F505F50494E0000006B
:103FF00000000000000600000080BF02085F53457B
:1040000054544C450000000000000000000008006F
:104010000000000001095F524D4554524943000021
:104020000000000000000004000000803F010C328E
:104030005F545950450000000000000000000000DF
:10404000010000000000010D325F50494E000000E9
:104050000000000000000000000300000080BF041A
:104060000E325F5343414C494E47000000000000B0
:104070000000100000004040040F325F4F464653DE
:10408000455400000000000000000018000000007F
:10409000000110325F46554E4354494F4E00000018
:1040A000000000001D00000000000211325F4D49B9
:1040B0004E5F434D000000000000000000200000A3
:1040C00000A0410212325F4D41585F434D00000095
:1040D000000000000000240000002F440113325FA4
:1040E00053544F505F50494E00000000000000073D
:1040F00000000080BF0214325F534554544C450009
:1041000000000000000000000A000000000001158F
:10411000325F524D455452494300000000000000F8
:104120000005000000803F00FF00000000000000CC
:10413000000000000000000000000000000000007F
:10414000010050494E000000000000000000000087
:10415000000000000000005041010150494E3200B3
:10416000000000000000000000000000010000004E
:1041700080BF010250494E330000000000000000E3
:1041800000000000000200000080BF010350494E03
:1041900034000000000000000000000000000300E8
:1041A000000080BF010444454641554C54000000C6
:1041B0000000000000000004000000000000FF00FC
:1041C00000000000000000000000000000000000EF
:1041D000000000000000010054524947475F545955
:1041E0005045000000000000000000000000000139
:1041F000014455524154494F4E0000000000000058
:1042000000000100000020410202534552564F5F5A
:104210004F4E00000000000000000002000080A2DD
:10422000440203534552564F5F4F4646000000007C
:1042300000000000040000808944040454524947EF
:10424000475F44495354000000000000000900008B
:1042500000000000FF00000000000000000000005F
:1042600000000000000000000000000041697273BF
:10427000706565642073656E736F7220756E686516
:10428000616C746879000100454E41424C45000064
:1042900000000000000000000009000000803F0155
:1042A0000155534500000000000000000000000020
:1042B000000008000000000004024F464653455429
:1042C00000000000000000000000000000000000EE
:1042D000000403524154494F000000000000000058
:1042E000000000000400492EFF3F010450494E0029
:1042F000000000000000000000000000000A0000B4
:1043000000000001054155544F43414C000000009E
:104310000000000000000B000000000001065455E2
:1043200042455F4F52444552000000000000000C1F
:1043300000000000400107534B49505F43414C00CF
:1043400000000000000000000D000000000000FF61
:10435000000000000000000000000000000000005D
:1043600000000000000000494D415800524D4158E6
:104370000044004900500054434F4E5354005054E1
:104380004348325352565F00524C4C325352565FA0
:10439000003333333FCDCC4C3D0000A04166662650
:1043A0003FAE47613D0000F0419A99193F8FC275B9
:1043B0003D00002042CDCC0C3FB81E853D0000489A
:1043C000420000003F295C8F3D000070426666E6B7
:1043D0003E9A99993D00009642CDCCCC3E0AD7A397
:1043E0003D0000B4429A99993E7B14AE3D0000F026
:1043F00042CDCC4C3EEC51B83D00002043CDCCCC5E
:104400003D5C8FC23D00005243CDCC4C3DCDCCCC69
:104410003D00009643040054434F4E5354000000A7
:10442000000000000000000002000000003F040146
:10443000500000000000000000000000000000002C
:10444000000600CDCCCC3E04024400000000000079
:10445000000000000000000000000E000AD7A33C8E
:1044600004034900000000000000000000000000FC
:104470000000000A000AD7233D0204524D41585F54
:104480005550000000000000000000001200000075
:1044900000000205524D41585F444E0000000000EC
:1044A00000000000006600000000000406524C4CB2
:1044B0000000000000000000000000000000680094
:1044C0000000803F0207494D4158000000000000F5
:1044D0000000000000000014000080BB4400FF004A
:1044E00000000000000000000000000000000000CC
:1044F000000000000000040054434F4E53540000DD
:1045000000000000000000000002000000003F0466
:10451000015000000000000000000000000000004A
:1045200000000600CDCCCC3E040244000000000098
:1045300000000000000000000000000E000AD7A3E9
:104540003C040349000000000000000000000000DF
:10455000000000000A000AD7233D0204524D4158D2
:104560000000000000000000000000000012000039
:104570000000000205494D41580000000000000005
:1045800000000000000014000080BB4400FF000099
:10459000000000000000000000000000000000001B
:1045A0000000000000040054434F4E53540000002C
:1045B000000000000000000000000000403F040177
:1045C000500000000000000000000000000000009B
:1045D0000004006666E63F04034900000000000096
:1045E000000000000000000000000800CDCC4C3EA0
:1045F000040444000000000000000000000000006F
:104600000000000C000AD7A33B0205494D415800A9
:104610000000000000000000000000001400008006
:10462000BB4404064D494E535044000000000000B6
:10463000000000000010000000803F00FF000000AC
:10464000000000000000000000000000000000006A
:10465000000000000400534C49500000000000001E
:1046600000000000000000020000000000040149FA
:104670004E54000000000000000000000000000098
:10468000060000000000040244414D5000000000FC
:104690000000000000000000000A0000000000040C
:1046A00003524C4C0000000000000000000000001D
:1046B00000000E000000803F0205494D41580000F7
:1046C000000000000000000000000012000080BB9D
:1046D0004400FF0000000000000000000000000097
:1046E00000000000000000000000666C696768744C
:1046F00020706C616E207265636569766564006622
:104700006C6967687420706C616E20757064617488
:10471000652072656A656374656400327C8900EDAA
:10472000D96877000000590000000000000000D6A2
:104730009FDCA81817AA90437327F6B968EDF4DE3A
:10474000D409FEE61C1C84DDE80B9929274E0000E5
:10475000000F03000000000099B733527694150053
:10476000F37C000026149E988F0000006A31168F9B
:104770008C059600E7B73F3600000000000000AF50
:10478000669ED0385D8A6C20B95422007CED044CC2
:1047900080387486EDCBFA57CBDC19E2001DDF556B
:1047A00006E5CB01C30000000000000000009AB243
:1047B0000086DBD0BC5416131586004E44BD7F9A8C
:1047C00015159001EA49B51653A78AEAF02FBD34B2
:1047D000AEE5000000000000000000000000000046
:1047E00000000000000000000000000000000000C9
:1047F00000000000000000000000000000000000B9
:1048000000000000000000000000000000000000A8
:1048100000000008CC31AA2C532E0001004D4F445B
:104820004500000000000000000000000000320011
:10483000000000000501524554524143540000005D
:104840000000000000000043000000000005024ED0
:1048500045555452414C000000000000000000008B
:104860004F00000000000503434F4E54524F4C00D0
:104870000000000000000000005B000000000001DC
:1048800004535441425F524F4C4C00000000000062
:1048900000002F00000000000105535441425F5406
:1048A000494C5400000000000000003000000000EF
:1048B000000106535441425F50414E000000000089
:1048C00000000000310000000000010752435F4972
:1048D0004E5F524F4C4C00000000000000330000BF
:1048E0000000000208414E474D494E5F524F4C00B8
:1048F000000000000000360000A08CC50209414EF7
:10490000474D41585F524F4C0000000000000038F6
:104910000000A08C45010A52435F494E5F54494C48
:104920005400000000000000340000000000020BF2
:10493000414E474D494E5F54494C00000000000075
:10494000003A0000A08CC5020C414E474D41585F13
:1049500054494C000000000000003C0000A08C45C1
:10496000010D52435F494E5F50414E000000000070
:10497000000000350000000000020E414E474D4986
:104980004E5F50414E000000000000003E0000A0BD
:104990008CC5020F414E474D41585F50414E0000BB
:1049A0000000000000400000A08C4501104A535454
:1049B00049434B5F53504400000000000000420098
:1049C0000000000004114C4541445F524C4C000073
:1049D0000000000000000067000000000004124C0E
:1049E0004541445F5054434800000000000000006F
:1049F0006B000000000000FF00000000000000004D
:104A00000000000000000000000000000000008026
:104A100011401140713273343332131211321112BA
:104A2000933413145352310021030406080B2D0A4A
:104A3000090705040241C011C051125354731211E9
:104A40001251527314733231002102040506070813
:104A500009080607062403020102000120012011B3
:104A6000C00111003132137413143312F112D31236
:104A7000510001022325060746442342210001E09C
:104A8000A0313213B433111211001120110052332E
:104A9000121332112001222485042304020342410F
:104AA0000001E0A0511214131513153413325140B4
:104AB00001201152133231000122230405040504A0
:104AC00023010382612001E0118011321354151477
:104AD000333231402102010031723141022344233B
:104AE00002012201220102614001A0118051121431
:104AF0001334151433123140010201030201205214
:104B0000111220212243042241022102A10001E0CE
:104B10002011405153741332114021020302030249
:104B20000100111211320011412223222100410201
:104B3000A180016011601100113233741312114011
:104B4000016203020321311211121140010201021C
:104B5000030201000100E121E0A0112012117334D1
:104B60003331200162036240121112110011010061
:104B7000010201220001200100E1C00100118011A9
:104B80000012111312141334522001E202212031B9
:104B90001211001100010021020100014021000258
:104BA000410001E06011401112111312141314138B
:104BB00032110021220342010221000100110012E2
:104BC00011001120010041600100C10001401120CD
:104BD00001601140511213121314331231000142BB
:104BE00003220102210001401100310011000100E7
:104BF000010001A0E10001A00180112031529312B7
:104C0000110021C2210021403100112011000100BA
:104C100001E0E16001E011001172731231002142E4
:104C20000301020102202140110011201160014006
:104C30001160010001022102000120014001A05188
:104C4000321312533211200102018221002100018E
:104C500000110031E0001100116021000102010289
:104C600001010021200100016011001152131214F2
:104C70001352110041820102000100214011001174
:104C80000011A01100310011208122010100020158
:104C9000002100016011005213121314133231016C
:104CA0000002012201420100210001000111201136
:104CB0000011201140710011400102210201020186
:104CC0000021022100010001001100121112331213
:104CD000341332112001020142012201004100017E
:104CE00060112011001100110051123120610201E8
:104CF00022020002010281201100121173341332CA
:104D000011004102018201006100018011001100C7
:104D1000913231402142010202006261401152147D
:104D2000135433310041820122000102004100018D
:104D300060911211525120012201030102020082EE
:104D40006100513354151433310021020122034212
:104D50004102A1803192133231004122030201034A
:104D60000022032201020140111233953331010068
:104D700022010342032221220102610001110011DC
:104D80005213125312310041220322030023020363
:104D900002010221203213141615171615331120A3
:104DA000016203020302032201A2414011125314C3
:104DB0001314133211010002010203020302020064
:104DC000022302032221203214163718171513125A
:104DD0001100212203024302430103020382212026
:104DE0001112131415341514321100016223020339
:104DF0000043020342012012131518193A17151324
:104E00001100210203026304E30203020302010210
:104E100040121314151715163412202122430203D1
:104E200000A3220100111215181C1E1D19161311C2
:104E300000020103020304230403240304430423A4
:104E400004030203422011121415171836151331EA
:104E500021020302230203241E191512100E0C0B4B
:104E60000A090909080808070606050404040304DA
:104E70000404000000000000000000002726212399
:104E8000252325242722292A2A1C27282B333227A9
:104E900025222C33313037000000000000000000D4
:104EA0000000000001FFFFE000000000000001FF23
:104EB000FFF000000000000001FFFFF8000000000C
:104EC000000001FFFFFE00000000000003FFFFFFE5
:104ED00000000000000003FFFFFFF00000000000E2
:104EE0000FFFFFFFFE00000003FFFFFC000007FCB8
:104EF00000007FFFFFFC000000000000001FFFFE1D
:104F0000000000000096918C87827D78736E696442
:104F10005F5A55504B46413C37322D28231E1914F9
:104F20000F0A050004090E13181D22272C31363BE9
:104F300040454A4F54595E63686D72777C81868B19
:104F400090959A9FA4A9AEB3AFAAA5A09B968F896E
:104F5000837E78736E69645F5A55504B47423E3981
:104F600035302C27231F1B16120E09050103070BD2
:104F70001014191D22262B2F34393D42474C51560F
:104F80005B60656B70757B80868C92979DA3A9AFE3
:104F9000B2ACA6A09A948F827C76706B65605C57E9
:104FA000524E4A46413D3936322E2A26221F1B17C1
:104FB00013100C08040102060A0E12161A1E2226ED
:104FC0002B2F33383D41464B4F54595E64696F7403
:104FD0007A80878D949BA2AAB1AEA69F9790898272
:104FE0006F68635E5955514D4946423F3C383532F2
:104FF0002E2B2824211E1A1714100D0A0603000355
:1050000006090D1014181C2024282C3034393D4179
:10501000464A4F54585D62676D737980878F98A2B6
:10502000ACB0A59A90867D766F55514D4A47444164
:105030003F3C3A383533312E2B292623201D1A17B1
:1050400013100D0A070401010306090D1013171AA6
:105050001E22262A2E32363A3E42464A4E53575B8D
:105060005F64696E757C85909FB2A08D7D7067606E
:105070005A553E3C3A393736343332302F2E2C2AAB
:10508000292724221F1C191613100D0A07040200D9
:105090000305080A0D1013161A1D2125292D313577
:1050A000383C4043464A4D505356595B5E616569F2
:1050B0006F826D544D4A474442403E2E2E2D2C2C7B
:1050C0002B2A2A2929282726252423211F1C1A17A1
:1050D00014100D0A07040101030507090C0E101333
:1050E000161A1D2124282C3033373A3D40424447BC
:1050F000484A4A4B4A48443D3019021621282B2D74
:105100002E2F2E2E06090C0F121517191B1C1B18FB
:1051100011040E2231383C3C3C3A3835322F2B28D2
:1051200024201C1915110D09050102060A0E11157E
:10513000181C1F222527292A2B2B29262119110863
:105140000004080A0A0A0807040200030616181ACF
:105150001C1E20211F1712516063625F5D59565259
:105160004E4A46423E3935312C2824201B17130E57
:105170000A060102060A0F13171B1F23262A2D31C8
:105180003437393C3D3F3F3E3D39352F28211C17F0
:10519000151313131416A8ADB2B0ABA6A19C979229
:1051A0008D88837E79746F6A65605B56514C474287
:1051B0003D38332E29241F1A15100B060103080D44
:1051C00012171C21262B30353A3F44494E53585D67
:1051D00062676C71767B80858A8F94999EA3A850B4
:1051E000414E49433A2044617461466C61736820C2
:1051F00053504944657669636544726976657220E7
:1052000073656D6170686F7265206973206E756C6F
:105210006C0050414E49433A2044617461466C61D0
:1052200073682053504944657669636544726976B2
:105230006572206E6F7420666F756E64004C6F67C8
:105240002025752C20202020737461727420257510
:105250002C202020656E642025750A000A25752003
:105260006C6F67730A000A4E6F206C6F67730A0ACF
:10527000004E756D50616765733A2025752020508A
:1052800061676553697A653A2025750A004D616E3C
:105290007566616374757265723A203078253032B4
:1052A000782020204465766963653A20307825307F
:1052B00034780A004E6F2064617461666C617368B3
:1052C00020696E7365727465640025750A00257522
:1052D0002C0900444620706167652C206C6F6720A4
:1052E00066696C6520232C206C6F67207061676590
:1052F0003A2025752C0900464D542C2025752C206C
:1053000025752C2025532C2025532C2025530A00AD
:105310002C2000257300257300257300252E32668E
:1053200000252E326600252E326600252E326600BC
:10533000256600256C7500256C64002575002564C4
:105340000025750025640025532C2000554E4B4E3A
:105350002C2025750A005363686564756C6572209E
:105360006F76657272756E207461736B5B25755D07
:10537000202825752F2575290A00536368656475F3
:105380006C657220736C6970207461736B5B25753A
:105390005D202825752F25752F2575290A00010008
:1053A0004445425547000000000000000000000096
:1053B0000000000000000000FF00000000000000EE
:1053C00000000000000000000000000000000000DD
:1053D0000400504552494F44000000000000000006
:1053E0000000001D000000C841040144414D504927
:1053F0004E470000000000000000000021000000F7
:10540000403F00FF0000000000000000000000001E
:1054100000000000000000000000000100524F4C9E
:105420004C00000000000000000000000000000030
:105430000000803F01015049544348000000000033
:1054400000000000000000010000000040010254C4
:1054500048524F54544C450000000000000000002A
:1054600003000000404001035941570000000000C4
:10547000000000000000000000020000008040006A
:10548000FF0000000000000000000000000000001D
:1054900000000000000000000400434C4D425F4D3E
:1054A000415800000000000000000051000000A072
:1054B00040040153494E4B5F4D494E00000000002F
:1054C00000000000550000000040040254494D4512
:1054D0005F434F4E5354000000000000005D000089
:1054E00000A04004035448525F44414D5000000066
:1054F0000000000000006D000000003F0404494E61
:105500005445475F4741494E0000000000000071CC
:1055100000CDCCCC3D0405564552545F4143430079
:10552000000000000000000075000000E0400406DC
:105530004847545F4F4D45474100000000000000C0
:105540000049000000404004075350445F4F4D4560
:10555000474100000000000000004D000000004036
:105560000408524C4C325448520000000000000025
:1055700000000079000000204104095350445745C1
:105580004947485400000000000000007D00000072
:10559000803F040A505443485F44414D500000008E
:1055A0000000000000650000000000040B53494E9D
:1055B0004B5F4D4158000000000000000000590002
:1055C0000000A040040C4C414E445F4152535044F3
:1055D000000000000000008900000080BF040D4CA6
:1055E000414E445F5448520000000000000000009B
:1055F0008500000080BF040E4C414E445F53504470
:1056000057475400000000000081000000803F0167
:105610000F50495443485F4D4158000000000000BE
:105620000000910000000000011050495443485F01
:105630004D494E00000000000000009200000000F4
:105640000004114C414E445F53494E4B0000000092
:10565000000000008D000000803E04124C414E44CA
:105660005F54434F4E53540000000000006100009F
:1056700000004004134C414E445F44414D50000033
:1056800000000000000069000000003F00FF000073
:10569000000000000000000000000000000000000A
:1056A00000000000000200544F54414C0000000074
:1056B00000000000000000000500000000000101E3
:1056C00052455354415254000000000000000000B5
:1056D0000007000000000000FF00000000000000C4
:1056E00000000000000000000000000000000000BA
:1056F00001005F4D4F4E49544F5200000000000022
:1057000000000002000000000001015F564F4C54F1
:105710005F50494E0000000000000000040000003F
:10572000504101025F435552525F50494E00000004
:10573000000000000006000000404104035F564FD7
:105740004C545F4D554C5400000000000000080010
:105750009A99214104045F414D505F504552564F84
:105760004C54000000000010000000884104055F58
:10577000414D505F4F464653455400000000000025
:1057800018000000000003065F43415041434954A4
:10579000590000000000000000200000404E4501BC
:1057A0000B325F4D4F4E49544F5200000000000035
:1057B0000000030000000000010C325F564F4C5403
:1057C0005F50494E0000000000000005000000503E
:1057D00041010D325F435552525F50494E00000067
:1057E00000000000070000004041040E325F564FE9
:1057F0004C545F4D554C540000000000000C009AC2
:10580000992141040F325F414D505F504552564F30
:105810004C00000000001400000088410410325FBA
:10582000414D505F4F464653455400000000001C58
:1058300000000000000311325F43415041434954CE
:105840005900000000000000240000404E4500FF09
:105850000000000000000000000000000000000048
:10586000000000000000005468726F74746C6520C2
:1058700064697361726D656421005468726F747439
:105880006C652061726D656421005468726F747478
:105890006C652061726D6564210050726541726DA6
:1058A0003A20526164696F206661696C7361666554
:1058B000206F6E0050726541726D3A2048617264CB
:1058C00077617265205361666574792053776974D6
:1058D00063680050726541726D3A2042617474656C
:1058E0007279206661696C73616665206F6E2E0047
:1058F00050726541726D3A204261642047505320D6
:10590000506F736974696F6E0050726541726D3AC1
:1059100020436865636B206D6167206669656C6410
:105920000050726541726D3A20436F6D7061737300
:10593000206F66667365747320746F6F2068696783
:10594000680050726541726D3A20436F6D706173EB
:1059500073206E6F742063616C6962726174656438
:105960000050726541726D3A20436F6D70617373C0
:10597000206E6F74206865616C74687921005072C4
:105980006541726D3A20454B4620726571756972AA
:10599000657320334420616363656C2063616C0030
:1059A00050726541726D3A2041485253206E6F74B7
:1059B000206865616C746879210050726541726D70
:1059C0003A20616363656C73206E6F742068656153
:1059D0006C746879210050726541726D3A20677964
:1059E000726F73206E6F742063616C696272617490
:1059F0006564210050726541726D3A206779726F5B
:105A000073206E6F74206865616C74687921005032
:105A1000726541726D3A20616972737065656420C8
:105A20006E6F74206865616C7468790050726541AE
:105A3000726D3A204261726F6D65746572206E6F8F
:105A400074206865616C74687921000100524551C9
:105A50005549524500000000000000000000010010
:105A60000000000001014449535F5255440000000A
:105A700000000000000000020000000000020243DD
:105A80004845434B000000000000000000000000FB
:105A900003000000803F00FF000000000000000045
:105AA00000000000000000000000000000000000F6
:105AB000FF000000000000000000000000000000E7
:105AC00000000000000000000100544F54414C0051
:105AD00000000000000000000000000200000000C4
