:100000000C94D62E0C94072F0C94072F0C94072FCA
:100010000C94072F0C94072F0C94072F0D949FB767
:100020000C94072F0C94072F0C94072F0C94072F78
:100030000C94072F0C94072F0C94072F0D94C8C90C
:100040000C94072F0C94072F0C94072F0C94072F58
:100050000C94072F0C94072F0C94072F0C94072F48
:100060000C94072F0D9450B80D947FB80C94072F63
:100070000C94072F0C94072F0C94072F0C94072F28
:100080000C94072F0C94072F0C94072F0C94072F18
:100090000D94BAB80D94E9B80C94072F0D9466BC72
:1000A0000C94072F0D94F5C90C94072F0C94072F6F
:1000B0000C94072F0C94072F0D9422CA0C94072F31
:1000C0000C94072F0C94072F0D9483C20D9424B920
:1000D0000D9453B90C94072F0C94072F0C94072FF1
:1000E0000C94072F6F31743179317E31833188312F
:1000F000923197318D31B6319C31A131A631B63173
:10010000B631AB31B631B631B631B631B631B631C2
:10011000B631B631B631B631B631B631B631B631A7
:10012000B631B631B631B631B631B631B631B0319D
:10013000694B6D4B6B4B694B694B6B4B6B4B6B4B13
:100140006B4B704B6D4B6D4B6D4B704B704B6D4BE8
:100150006F4B006A296A006A006A0E6A006A236AA5
:10016000156A036AD56A396A536AA26AD56AD56A7A
:10017000BB6AFC69D56AD56AD56AD56AD56AD56A7B
:10018000D56AD56AD56AD56AD56AD56AD56AD56A77
:10019000D56AD56AD56AD56AD56AD56AC36AA672A0
:1001A000897278720B708F70D47019721E72D4704D
:1001B0000D73A66E087008700D730D7308700D73C3
:1001C0000D730D730D730D730D730D730D730D732F
:1001D0000D730D730D730D730D730D730D730D731F
:1001E0000D730D730D730D73C7720D8FFC8E028F1F
:1001F000F98EFC8EFF8EFF8EFC8E0F8F0D8F0D8F74
:100200000D8F0F8F0F8F0D8F9590DC90E590B7902D
:10021000CB90EE90889140913791249149915E91D5
:100220007191FE9011912F92A2919191B3912F9281
:10023000BC91C591D891EB911E92F4912F920C92A2
:10024000FC912692C4AACAAAD1AAD8AAE6AAFCAA54
:1002500004ABE0ABD9ABEFABFCAB14AC2DAC39AC21
:1002600081B27CB288B28CB297B2B2B2D6B2DFB2EF
:100270000AB305B313B318B31CB32CB336B368B7C2
:1002800061B771B77CB78CB7A1B7C1B7E4B7EFB7A7
:10029000ACB8A5B8B4B8BEB8D2B8E8B8FFB81DB904
:1002A00029B95DE071E077E0A3E0B2E0D3E0DDE002
:1002B00002E108E129E137E14BE156E17BE192E11E
:1002C000C2E1D0E1F0E102E222E234E264E27BE268
:1002D000ADE2B3E2B9E2CDE2E3E2F1E201E318E339
:1002E00037E355E370E37FE399E3B4E3D3E38804B2
:1002F0008804FA032A032A032A032A032A032A0367
:1003000088042A032A032A032A03FA03FA03FA03B6
:10031000FA03FA03FA032A032A03FA03FA03FA0395
:10032000480520068A03040736074403AE04440345
:10033000440344034606E2020406DE04DE04D40459
:100340002E0376056205F2052A06CA058603D00447
:10035000E204E203B006E203E2035A04C803E20344
:10036000E2036A05F402C004E203E203E203E203EB
:10037000E203E203E203E203E203E203E203E60252
:10038000E203E203E203E203E203E203E2033E03E9
:100390000006E203B206A604E2039E032404E2037D
:1003A000E203E203E2031405FC06FC06CE03FC06AE
:1003B000FC06CE03CE0378044E0378044E03780483
:1003C0004E037804120612061206120612061206D0
:1003D000120612061206600578044E0378044E03D6
:1003E00078044E0378044E037804600578041206FE
:1003F00012064E03780412064E0378044E03780466
:1004000060059E06F0059E06F0059E06F0059E0618
:10041000F0059E06F005F602F602F602CA04CA04CA
:10042000F602F602F602CA04CA04C604C604C604EA
:1004300012041204C604C604C60412041204AA0656
:10044000FC04AA06FC04AA06FC04AA06FC04AA06EC
:100450003203DA05DA055C045C045C047E037E0387
:100460007E033A04C006C006000712074407420391
:10047000F00422057A061E042E0406064A043406F9
:10048000AC04C206A804AC031806D6033A0622043C
:10049000D0056C041004B6049A06EC04E40330039F
:1004A0002A04F8055A03D4055E051C07E604420534
:1004B0002C077603FE059C03B003540326053A037C
:1004C000036EDB363D9A9999993DABAAAA2A3E0064
:1004D0000000803F084AD73B3BCE016E84BCBFFD85
:1004E000C12F3D6C74319ABD56833DDA3D00C77F04
:1004F00011BED9E4BB4C3E916BAAAABE000000809D
:100500003F072C7AA5BA6CC590DA3B9365FC8BBC8F
:1005100053F810FD3C5692834DBD879D3AB63DCBB6
:10052000C9BF5BBE73DA0FC93F05A84CCDB2D44E2C
:10053000B93836A9020C50B9918688083CA6AAAAF7
:100540002ABE000000803F08000000BE922449122D
:100550003EABAAAA2ABECDCCCC4C3E00000080BE49
:10056000ABAAAAAA3E00000000BF000000803F0026
:1005700000000000084178D3BB4387D1133D190E1A
:100580003CC3BD4282AD2B3E68EC8276BED98FE182
:10059000A93E4C80EFFFBE01C4FF7F3F000000007A
:1005A000000664EC1B3C04BC163E3BE5B93CC93C70
:1005B00037C29E5A3D660498083EEA69AAAA3E00E0
:1005C0000000803F0D9415460D944D200D947F70D2
:1005D0000D9431BE0D944DBA0D9488810D941D6D0E
:1005E0000D9429AB0D94CD660D949D700D9460A76C
:1005F0000D94E46D0D94E1440D94A2C90D94187707
:100600000D9415200D940AC70D942E720D942E8D05
:100610000D94D85E0D94F4860D9480710D9476AC93
:100620000D945A640D94CBA10D94AA4A0D94274EB3
:100630000D94E41C0D9424A70D94EA6D0D94C2B39F
:100640000D94AF670D94C4BF0D949EC30D94E9A89B
:100650000D9449A60D94BE1E0D9424950D947E53C1
:100660000D94F6BF0D94A3A70D94ECC50D94782FAF
:100670000D947F2A0D946AC00D945F020D94326F21
:100680000D94B8230D9468BF0D942E460D94DA2274
:100690000D94E5C60D941A1A0D94610D0D9477A56D
:1006A0000D949FB60D94FF2F0D946FC00D946A08A2
:1006B0000D94F3020D940EC00D9489100D94BCC3DB
:1006C0000D94D0B70D94B7B60D94C7630D94D22F87
:1006D0000D94E7B20D94D7710D947F550D9434723B
:1006E0000D94194F0D94A6BA0D94E5020D9451C0C6
:1006F0000D94BB330D9433C00D944FC70D943ABF86
:100700000D941C9A0D9421620D9449670D94F95330
:100710000D94BEB30D9401460D942EC30D94364432
:100720000D94E9770D940C490D94F8C00D949184C3
:100730000D9453960D94E9210D945BC00D94596F5F
:100740000D94054C0D94F4C00D9473840D9400C168
:100750000D94E8C80D94C8220D94A6BF0D9417C738
:100760000D9460C00D94B28A0D949DCF0D946ABD16
:100770000D94F9A20D946F770D948DC70D9406A872
:100780000D944AB60D9453340D94762F0D9438057C
:100790000D948F6F0D94D1B70D940E7F0D9426A4F8
:1007A0000D941F7D0D94D3570D9426690D94B0BF01
:1007B0000D9447C70D94CEB70D94C4640D94552085
:1007C0000D94D6B10D94BC700D94F1BF0D9480744E
:1007D0000D94D8690D9423AB0D94B8A90D94311DD7
:1007E0000D947A260D94B5010D943AC60D94623895
:1007F0000D945C840D94BB1E0D946D300D941A6C99
:100800000D9486710D94E7460D9440760D948DC13C
:100810000D94CA640D9439210D94B21F0D94E40512
:100820000D94DDBF0D9482A70D94DDB70D949F7DCF
:100830000D948BC10D941A5B0D9451550D947ABF94
:100840000D94C5490D94C3BF0D947E6F0D949F1EEA
:100850000D94C2C10D94FBBF0D9414C10D9489BFBA
:100860000D9411C70D949DC00D9492270D945C1C9E
:100870000D9408220D944DBF0D9432C60D94F3AB28
:100880000D941BB70D94E19F0D94670D0D942AC232
:100890000D94D97C0D9484BF0D94D5B70D94FB9124
:1008A0000D94373F0D940CC70D94EDC80D9467BAA5
:1008B0000D9457C10D94666F0D9435BF0D94632E42
:1008C0000D94ABC70D9421BD0D94F6000D9474B634
:1008D0000D94147F0D94697A0D94BEBF0D94EBC7EF
:1008E0000D94B06A0D942BBB0D9441430D9406A357
:1008F0000D94C5A50D94AD0C0D9452A30D94DFB7C6
:100900000D9448B70D946D650D943E050D94A17A34
:100910000D94B51E0D94BBC30D94A1840D947BB5AD
:100920000D94AF220D9477BB0D9436C60D941B89A0
:100930000D94666A0D94E4650D94507D0D94437793
:100940000D9477B60D94EEB60D947CAC0D94A06F1B
:100950000D94A2BF0D948AB40D9498BF0D940D46CA
:100960000D9482B50D94FD020D9493C10D94E2BFD8
:100970000D941D730D945BC70D94A6A10D944F5952
:100980000D9464700D947FB50D948F900D9480A795
:100990000D9493BC0D9462A70D94F7990D94A2AA9F
:1009A0000D943E6F0D9467680D945E530D944A0844
:1009B0000D94F1020D94B71D0D94FF300D944E531C
:1009C0000D94EABE0D94D16F0D94CEA90D9442C042
:1009D0000D9415030D94E1B70D94ECBF0D94FBC07D
:1009E0000D946CBF0D9405030D9459960D940F034F
:1009F0000D9430080D944C310D94A1A70D94A0BB1B
:100A00000D9474A40D94D6B70D9427330D9472BA37
:100A10000D9409B70D9498B60D948C6E0D94847353
:100A20000D946EC10D94DBBB0D9449700D9418713B
:100A30000D9451BA0D94686D0D945D9F0D946D9257
:100A40000D94DE650D9472BF0D946ABA0D9465C065
:100A50000D949F230D9438C50D9459660D94AA6A80
:100A60000D9443A50D948ABF0D949D7E0D945479E9
:100A70000D94CC2F0D9497C00D940E0E0D94F0A4F0
:100A80000D94F0540D9447C00D94D04C0D94F7077D
:100A90000D94DF450D9495480D94EAA40D9442AB56
:100AA0000D94EFAD0D9462B70D94D4650D94EEC026
:100AB0000D948FBD0D947E1F0D9418250D940AC0C2
:100AC0000D94C7A50D9486530D94A1030D9414A500
:100AD0000D94E5090D943C700D94DFC30D94DC84F6
:100AE0000D94DFC60D9401C50D94D2B70D947553C6
:100AF0000D9443C60D9499840D94DC7D0D948E075E
:100B00000D9450B60D9474C00D94C6390D948BABF2
:100B10000D94BE340D9410C70D94F51B0D943278CE
:100B20000D94C25A0D94C4020D9441200D940709EE
:100B30000D941EBD0D94DBB70D944AC70D94672923
:100B40000D94FB020D9498070D94B2A90D940FC05B
:100B50000D94B85E0D94D7010D9452310D94BE07DB
:100B60000D94BE020D941EBC0D9462090D94257D5A
:100B70000D9498130D94E1A00D9460640D94DD0222
:100B80000D9433210D94BB430D94E27D0D94CA78EE
:100B90000D9469C30D94BC530D94F7BD0D949B1B2C
:100BA0000D94BABF0D942E240D9405C00D9441A64A
:100BB0000D9470080D9430BF0D9426BF0D9434B77A
:100BC0000D94813A0D9405300D9446BA0D9471BB85
:100BD0000D9447200D9497A20D9403A00D94ACA9F9
:100BE0000D944DA70D948E530D94292E0D94A57D33
:100BF0000D9400C00D9485070D94A2BD0D9456C0B0
:100C00000D94B66F0D94D37C0D9419460D9480BF4E
:100C10000D942E100D9441B00D9496C00D94C2C445
:100C20000D947AC00D9436A60D94342A0D94127149
:100C30000D94ACBF0D9442080D94EE020D94BBA42C
:100C40000D94FD450D94206C0D9434480D9437C7D8
:100C50000D9488BA0D94A1530D9435C20D94E67C81
:100C60000D9430C10D944FC50D9494BF0D942A3549
:100C70000D940FC30D94B4BF0D9456220D94B9C6B4
:100C80000D94C5C40D9436570D94D9620D94114638
:100C90000D94877D0D94DCA70D943B230D944EB8E5
:100CA0000D947A6D0D944A7D0D94BE500D94F5020D
:100CB0000D9400A30D947BC40D94BD190D94EFC049
:100CC0000D946B840D9485B70D94CAB90D94D269B7
:100CD0000D94CCB70D94A9C60D9415C00D94942F06
:100CE0000D945A060D94F9020D94C0A90D943DC2BD
:100CF0000D941C7D0D9476BF0D94EA050D946E75D0
:100D00000D946CA40D9488070D945C090D94BBB3ED
:100D10000D949C760D94F9300D94BE450D9478B6E3
:100D20000D944ABA0D94DE6C0D943DC60D949B0350
:100D30000D94828B0D94E7BF0D94EC7C0D9448A725
:100D40000D94BF4D0D94FCB20D9410440D946C6C39
:100D50000D94B9C70D949FA70D94E6C50D94EC0AA8
:100D60000D940F700D94F66F0D94F4730D9450BFA5
:100D70000D948B070D94D7420D94BAB20D94A30B2A
:100D80000D943FBF0D949EBF0D9465020D94E8A491
:100D90000D942F640D94536B0D94AFBD0D94977DFE
:100DA0000D9461B30D94D5BB0D9478BA0D94D422F3
:100DB0000D941BBD0D94F7020D9431530D94E25B1D
:100DC0000D943BA60D94DEB70D9432B60D946D686C
:100DD0000D946FC30D944D6B0D94163D0D940A3810
:100DE0000D9400730D9418BC0D9443670D94D5B603
:100DF0000D941F640D94F1C70D941DA40D94EF2163
:100E00000D945ABF0D943C080D9405460D94D8B727
:100E10000D9466A40D944C520D946EB30D94E2BCE7
:100E20000D94CDB70D945EBF0D94E9350D94A6BB1E
:100E30000D94C0C10D943F130D943DC00D942BBE75
:100E40000D9482810D941D510D94E5C30D94E2849F
:100E50000D94C8C60D94F1C40D944CC00D94C8A94E
:100E60000D9470BD0D94FEAE0D94387B0D94094623
:100E70000D9472C70D944D840D94027F0D94D77913
:100E80000D9429420D944B490D9464BF0D9443B6C3
:100E9000536574207468726F74746C6520257500D6
:100EA0005365742067726F756E6473706565642036
:100EB00025750053657420616972737065656420DF
:100EC0002575206D2F7300526573657474696E67A4
:100ED00020707265765F5750005365742066656EAA
:100EE000636520656E61626C65642073746174650E
:100EF00020746F20257500556E61626C6520746FDB
:100F0000207365742066656E636520656E61626C32
:100F1000656420737461746520746F2025750053B7
:100F2000657420696E766572746564202575004568
:100F30007865637574696E6720636F6D6D616E644B
:100F40002049442023256900457865637574696EDE
:100F500067206E617620636F6D6D616E6420494419
:100F6000202325690052657475726E696E6720745E
:100F70006F20486F6D65004D6F64652825752900E9
:100F800054616B656F666600477569646564004C03
:100F90006F697465720052544C004155544F0043C0
:100FA0005255495345004642575F42004155544F00
:100FB00054554E45004642575F41004143524F0051
:100FC000547261696E696E670053746162696C691D
:100FD0007A6500436972636C65004D616E75616C82
:100FE0000041504D2032000A41726475506C616EB0
:100FF000652056332E322E310A46726565205241E5
:101000004D3A2025750A00626164206C6F67206E7E
:10101000756D6265720A0064756D70696E67206136
:101020006C6C0A00656E61626C6500534F4E4152F4
:101030000052430043414D45524100544543530043
:10104000434F4D504153530043555252454E540067
:10105000434D4400494D55004D4F4445004E5455B5
:101060004E004354554E00504D00475053004154DC
:101070005449545544455F4D4544004154544954E6
:101080005544455F4641535400616C6C006D697373
:1010900073696E67206C6F6720747970650A002031
:1010A000255300534F4E4152002025530052430018
:1010B0002025530043414D45524100202553005403
:1010C0004543530020255300434F4D504153530097
:1010D0002025530043555252454E540020255300BD
:1010E000434D440020255300494D55002025530011
:1010F0004D4F444500202553004E54554E002025A9
:1011000053004354554E0020255300504D002025D8
:10111000530047505300202553004154544954551F
:1011200044455F4D454400202553004154544954E3
:101130005544455F46415354006E6F6E65006C6FB9
:10114000677320656E61626C65643A20004C6F774E
:10115000204261747465727920252E3266562055BE
:1011600073656420252E3066206D416800666169D4
:101170006C656420746F207365742072616C6C7987
:1011800020706F696E74006261642072616C6C79AA
:1011900020706F696E7420696E64657800626164A6
:1011A0002072616C6C7920706F696E74206D65734C
:1011B0007361676520636F756E740062616420728D
:1011C000616C6C7920706F696E74206D65737361EA
:1011D0006765204944006261642066656E6365202E
:1011E000706F696E74006261642066656E6365206D
:1011F000706F696E740066656E63696E67206D75E9
:1012000073742062652064697361626C6564004177
:10121000726475506C616E652056332E322E31002B
:1012200052656A656374656420676F2061726F75CB
:101230006E6420636F6D6D616E642E00476F206178
:10124000726F756E6420636F6D6D616E6420616393
:101250006365707465642E00556E737570706F727F
:1012600074656420707265666C6967687420636178
:101270006C6962726174696F6E00636F6D6D616E2F
:10128000642072656365697665643A200044656D23
:101290006F20536572766F7321007A65726F2061DB
:1012A000697273706565642063616C6962726174F0
:1012B0006564006261726F6D657465722063616C54
:1012C0006962726174696F6E20636F6D706C6574B2
:1012D000650043616C6962726174696E6720626166
:1012E000726F6D65746572004E4F20616972737024
:1012F00065656400426567696E6E696E6720494E78
:10130000532063616C6962726174696F6E3B206423
:101310006F206E6F74206D6F766520706C616E65E6
:10132000000A0A20526561647920746F20464C5986
:101330002E003C737461727475705F67726F756EA6
:10134000643E2047524F554E44205354415254005E
:101350004C6F6720657261736520636F6D706C659B
:1013600074650045726173696E67206C6F67730006
:101370006C6F61645F616C6C20746F6F6B20256CA7
:101380007575730A00646F6E652E004669726D771D
:10139000617265206368616E67653A20657261738A
:1013A000696E6720454550524F4D2E2E2E0A004241
:1013B000616420706172616D657465722074616230
:1013C0006C650042616420706172616D6574657264
:1013D000207461626C650A00496E697469616C69A8
:1013E00073696E672041504D2E2E2E000A50726593
:1013F000737320454E54455220332074696D6573D4
:1014000020746F20737461727420696E74657261E8
:1014100063746976652073657475700A00436F6D37
:101420007061737320696E697469616C697361744A
:10143000696F6E206661696C656421004552415395
:10144000494E47204C4F4753004E6F2064617461F2
:10145000666C617368206361726420696E73657283
:10146000746564000A0A496E69742041726475509B
:101470006C616E652056332E322E310A0A46726533
:10148000652052414D3A2025750A004D53472046AC
:1014900053204F4646202575004D53472046532084
:1014A0004F4E202575004661696C73616665202D7D
:1014B0002053686F7274206576656E74206F66665F
:1014C00000666C69676874206D6F6465203D202537
:1014D00075004661696C73616665202D2053686FE5
:1014E0007274206576656E74206F6E2C2000464203
:1014F0005741207464726167206D6F64650A00460D
:10150000425741207464726167206F6666005472AE
:1015100069676765726564204155544F2C204750B8
:1015200053737064203D20252E3166004261642093
:101530004C61756E6368204155544F0054696D6568
:101540006F7574204155544F0041726D65642041A0
:1015500055544F2C2078616363656C203D20252E07
:101560003166206D2F732F732C2077616974696E3B
:101570006720252E3166207365630054696D65729E
:1015800020496E746572727570746564204155549B
:101590004F0067707320616C743A20256C75006988
:1015A0006E697420686F6D6500556E61626C6520B0
:1015B000746F207374617274206C616E64696E67FD
:1015C0002073657175656E63652E004C616E64698C
:1015D0006E672073657175656E63652062656775FA
:1015E0006E2E005265616368656420686F6D6500EA
:1015F0007665726966795F6E61763A204C4F495420
:1016000045522074696D6520636F6D706C657465FB
:10161000007665726966795F6E61763A204C4F4953
:10162000544552206F726269747320636F6D706CE1
:101630006574650050617373656420576179706FDC
:10164000696E742023256920646973742025756D83
:10165000005265616368656420576179706F696ED7
:10166000742023256920646973742025756D0046F4
:101670006C61726520252E31666D2073696E6B3D3D
:10168000252E32662073706565643D252E31660017
:1016900046656E636520656E61626C65642E202808
:1016A0006175746F656E61626C65642900456E6179
:1016B000626C652066656E6365206661696C656451
:1016C000202863616E6E6F74206175746F656E6142
:1016D000626C6500486F6C64696E6720636F757239
:1016E000736520256C6420617420252E31666D2F72
:1016F000732028252E316629007665726966795F28
:10170000636F6E6469746F6E3A20496E76616C69BE
:1017100064206F72206E6F2063757272656E742024
:10172000436F6E646974696F6E20636D64007665E3
:10173000726966795F6E61763A20496E76616C698E
:1017400064206F72206E6F2063757272656E7420F4
:101750004E617620636D640067656F2D66656E630C
:1017600065207472696767657265640067656F2DCF
:1017700066656E6365204F4B0067656F2D66656E0D
:101780006365207365747570206572726F7200678F
:10179000656F2D66656E6365206C6F6164656400BE
:1017A00046656E63652064697361626C65642028B8
:1017B0006175746F64697361626C65290044697353
:1017C00061626C652066656E6365206661696C6543
:1017D0006420286175746F64697361626C652900A7
:1017E000666C69676874206D6F6465203D2025759F
:1017F000004E6F20474353206865617274626561D3
:10180000742E004661696C73616665202D204C6FF3
:101810006E67206576656E74206F6E2C2000475FC2
:1018200044745F6D61783D256C7520475F44745F3B
:101830006D696E3D256C750A0041726475506C616E
:101840006E652056332E322E3100F1000400524CCA
:101850004C325352565F500000000000000000F16F
:10186000010400524C4C325352565F4900000000B4
:1018700000000000F1020400524C4C325352565FFB
:10188000440000000000000000F1030400524C4C32
:10189000325352565F494D41580000000000F2009B
:1018A000040050544348325352565F500000000029
:1018B000000000F201040050544348325352565F76
:1018C0004900000000000000F202040050544348A8
:1018D000325352565F4400000000000000F203043F
:1018E0000050544348325352565F494D415800000E
:1018F000000086000100424154545F4D4F4E495450
:101900004F520000000000A8000100424154545F03
:10191000564F4C545F50494E00000000A900010092
:10192000424154545F435552525F50494E000000AB
:101930000087000400424154545F564F4C545F4DA1
:10194000554C5400000088000400424154545F414B
:101950004D505F504552564F4C54008F000400428A
:101960004154545F414D505F4F464653455400002B
:101970008A000300424154545F434150414349545B
:1019800059000000000B0002004C4F475F424954D1
:101990004D41534B00000000000034000400524150
:1019A0004C4C595F4C494D49545F4B4D000000EE83
:1019B00000010052414C4C595F544F54414C0000BF
:1019C000000000008059464D54000042426E4E5ABD
:1019D0000000000000000000000000547970652C39
:1019E0004C656E6774682C4E616D652C466F726D28
:1019F00061742C436F6C756D6E7300000000000005
:101A000000000000000000000000000000000000D6
:101A1000000000000000000000000081175041524B
:101A20004D004E66000000000000000000000000B5
:101A300000004E616D652C56616C756500000000FC
:101A40000000000000000000000000000000000096
:101A50000000000000000000000000000000000086
:101A60000000000000000000000000000000000076
:101A70000000822D475053000042494842634C4CBD
:101A80006565456566490000005374617475732C83
:101A900054696D654D532C5765656B2C4E536174BD
:101AA000732C48446F702C4C61742C4C6E672C5214
:101AB000656C416C742C416C742C5370642C4743DE
:101AC00072732C565A2C5400008327494D55000040
:101AD00049666666666666494900000000000000C7
:101AE00054696D654D532C477972582C477972595A
:101AF0002C4779725A2C416363582C416363592CEB
:101B00004163635A2C457272472C45727241000042
:101B100000000000000000000000000000000000C5
:101B200084434D534700005A0000000000000000AD
:101B3000000000000000004D6573736167650000E0
:101B40000000000000000000000000000000000095
:101B50000000000000000000000000000000000085
:101B60000000000000000000000000000000000075
:101B70000000000000000085235243494E004968E0
:101B80006868686868686868686868686800546950
:101B90006D654D532C43312C43322C43332C43344D
:101BA0002C43352C43362C43372C43382C43392CCB
:101BB0004331302C4331312C4331322C4331332CDF
:101BC0004331340000000000000000000000861FC8
:101BD00052434F5500496868686868686868686873
:101BE000686800000054696D654D532C4368312CC2
:101BF0004368322C4368332C4368342C4368352CBB
:101C00004368362C4368372C4368382C4368392C9A
:101C1000436831302C436831312C43683132000045
:101C2000000000000088154241524F00496666637B
:101C300066000000000000000000000054696D65AF
:101C40004D532C416C742C50726573732C54656D1C
:101C5000702C4352740000000000000000000000DF
:101C60000000000000000000000000000000000074
:101C7000000000000000000000000000A315424129
:101C800052320049666663660000000000000000F2
:101C900000000054696D654D532C416C742C5072DA
:101CA0006573732C54656D702C43527400000000F2
:101CB0000000000000000000000000000000000024
:101CC0000000000000000000000000000000000014
:101CD000000000890D504F5752004943434800000F
:101CE0000000000000000000000054696D654D53C5
:101CF0002C5663632C56536572766F2C466C616765
:101D00007300000000000000000000000000000060
:101D100000000000000000000000000000000000C3
:101D2000000000000000000000009129434D440025
:101D300000494848486666666666666600000000B8
:101D40000054696D654D532C43546F742C434E758C
:101D50006D2C4349642C50726D312C50726D322CB5
:101D600050726D332C50726D342C4C61742C4C6E4F
:101D7000672C416C740000000000000000000000AF
:101D800000921052414400004942424242424848B7
:101D9000000000000000000054696D654D532C5296
:101DA0005353492C52656D525353492C5478427504
:101DB000662C4E6F6973652C52656D4E6F69736545
:101DC0002C52784572726F72732C46697865640084
:101DD0000000000000000000941F43414D00004936
:101DE000484C4C65656363430000000000000047F9
:101DF000505354696D652C4750535765656B2C4C97
:101E000061742C4C6E672C416C742C52656C416C67
:101E1000742C526F6C6C2C50697463682C59617708
:101E2000000000000000000000000000000000A40E
:101E3000194152535000496666636666000000000F
:101E400000000000000054696D654D532C4169721B
:101E500073706565642C4469666650726573732C93
:101E600054656D702C52617750726573732C4F6698
:101E700066736574000000000000000000000000B0
:101E8000000000000000A615435552520049686842
:101E90006848666800000000000000000054696D9A
:101EA000654D532C5468726F74746C652C566F6C4E
:101EB000742C437572722C5663632C437572725482
:101EC0006F742C566F6C743200000000000000002C
:101ED00000000000000000000000000000A5174105
:101EE0005454000049636363634343434300000069
:101EF0000000000054696D654D532C446573526FAA
:101F00006C6C2C526F6C6C2C4465735069746368F4
:101F10002C50697463682C4465735961772C59613E
:101F2000772C45727252502C4572725961770000BD
:101F300000000000A7194D41470000496868686823
:101F4000686868686800000000000054696D654DAD
:101F5000532C4D6167582C4D6167592C4D61675A60
:101F60002C4F6673582C4F6673592C4F66735A2C3E
:101F70004D4F6673582C4D4F6673592C4D4F6673F9
:101F80005A00000000000000000000AA094D4F4464
:101F90004500494D42000000000000000000000024
:101FA000000054696D654D532C4D6F64652C4D6F69
:101FB00064654E756D000000000000000000000028
:101FC0000000000000000000000000000000000011
:101FD0000000000000000000000000000000000001
:101FE00000000216504D00000049484968686842E8
:101FF0004800000000000000004C54696D652C4D45
:102000004C432C6744742C4744782C4744792C4724
:10201000447A2C4932434572722C494E53457272B0
:1020200000000000000000000000000000000000B0
:102030000000000000000000000506535452540048
:102040004248000000000000000000000000000006
:1020500053547970652C43546F74000000000000E5
:102060000000000000000000000000000000000070
:102070000000000000000000000000000000000060
:102080000000000000000000000000000000000050
:1020900000174354554E00496363636368686600E4
:1020A0000000000000000054696D654D532C4E6126
:1020B00076526F6C6C2C526F6C6C2C4E6176506942
:1020C0007463682C50697463682C5468724F75741B
:1020D0002C5264724F75742C4163635900000000E8
:1020E00000000000000000011D4E54554E00494301
:1020F0006663636363664900000000000000546982
:102100006D654D532C5961772C5770446973742C4D
:10211000546172674272672C4E61764272672C413D
:102120006C744572722C41727370642C416C742C07
:1021300047537064434D00000000000000000E1D76
:10214000534F4E5200496666666642426600000082
:10215000000000000054696D654D532C4469737490
:10216000434D2C566F6C742C4261726F416C742C11
:10217000475370642C5468722C436E742C436F72F6
:1021800072000000000000000000000000000000DD
:102190000000000000100A41524D00004948420072
:1021A00000000000000000000000000054696D65A0
:1021B0004D532C41726D53746174652C41726D43A3
:1021C0006865636B73000000000000000000000001
:1021D00000000000000000000000000000000000FF
:1021E00000000000000000000000000093174154B0
:1021F00052500049424263666666000000000000DB
:1022000000000054696D654D532C547970652C5352
:10221000746174652C536572766F2C44656D616EC4
:102220006465642C41636869657665642C500000C0
:10223000000000000000000000000000000000009E
:102240000000000C375445435300496666666666D5
:102250006666666666666600000054696D654D5385
:102260002C682C64682C685F64656D2C64685F64FE
:10227000656D2C73705F64656D2C73702C64737066
:102280002C6974682C6970682C74682C70682C64D4
:1022900073705F64656D000000004C6F67006475CB
:1022A0006D7000000000000000000000612F6572EA
:1022B0006173650000000000000000008634656E58
:1022C00061626C650000000000000000AC496469B8
:1022D0007361626C6500000000000000AC49F266AA
:1022E0000100BC027B8B0100E803F63801000019F5
:1022F000B240010040067F6E0100780512500100D7
:10230000AC0D3060010040068D6D0700E803043419
:102310000100E80340370100C409317E0500C4090B
:10232000BC840500B80B74570500B004E035050007
:10233000B0044C6D0500480D36550500E803092F23
:102340000500E80396350100A406305F0100B80BD4
:1023500091350100DC051B4505002C01508C050062
:10236000E80388350100DC058335010084037E35F0
:1023700001002C01615B0100F4011E353200E8030D
:10238000F6860F00E803D4440500E8033F47320017
:10239000E803E3330100DC05F47CF401E803DA33FD
:1023A000B80BC40949570500A4068C320500A406E1
:1023B0000A2F0500F40102464F524D41545F564525
:1023C0005253494F4E00000000311200000000013E
:1023D00053595349445F53575F54595045000000C7
:1023E00000013312000000000253595349445F5466
:1023F0004849534D415600000000703412000080DF
:102400003F0253595349445F4D594743530000001D
:1024100000000071361200007F43025345524941CB
:102420004C305F4241554400000000003F3812002C
:1024300000E6420253455249414C315F4241554406
:102440000000000000403A1200006442014155546F
:102450004F54554E455F4C4556454C0000003D2CB1
:10246000140000C0400154454C454D5F44454C416B
:1024700059000000000000733C1200000000044BF3
:1024800046465F524444524D495800000000000047
:10249000C93E120000003F044B46465F544852328A
:1024A000505443480000000000CB461200000000DA
:1024B00004535441425F50495443485F444F574E80
:1024C00000004C50120000004002474C4944455F58
:1024D000534C4F50455F4D494E00004BF0120000E9
:1024E000704101535449434B5F4D4958494E470091
:1024F0000000000019D8120000803F01534B4950E2
:102500005F4759524F5F43414C000000002F5A1261
:1025100000000000014155544F5F4642575F53543D
:10252000454552000000305B120000000004544B8F
:102530004F46465F5448525F4D494E535044002227
:10254000D9120000000004544B4F46465F544852D5
:102550005F4D494E4143430023DD1200000000015E
:10256000544B4F46465F5448525F44454C415900D6
:10257000002EE1120000004001544B4F46465F54CC
:10258000445241475F454C45560042E2120000006C
:102590000004544B4F46465F54445241475F5350EA
:1025A00044310043E3120000000004544B4F464600
:1025B0005F524F544154455F5350440044E712006A
:1025C00000000001544B4F46465F5448525F534C45
:1025D000455700000045EB120000000001544B4F2E
:1025E00046465F464C41505F50434E54000051D127
:1025F000120000000001464257415F5444524147D7
:102600005F4348414E00004EF21200000000014CB2
:102610004556454C5F524F4C4C5F4C494D49540018
:1026200025ED120000A040024C414E445F50495439
:1026300043485F434400000000172D1400000000D1
:10264000044C414E445F464C4152455F414C54005E
:1026500000001BBB1200004040044C414E445F464A
:102660004C4152455F5345430000001CBF1200001F
:102670000040014E41565F434F4E54524F4C4C4523
:10268000520000002858120000803F04414C545F63
:102690004D495800000000000000000000835C125B
:1026A0000000803F01414C545F4354524C5F414C09
:1026B0004700000000007C60120000000002414C56
:1026C000545F4F4646534554000000000000002070
:1026D0009912000000000257505F5241444955537F
:1026E0000000000000000000DF62120000B442029F
:1026F00057505F4D41585F524144495553000000C7
:1027000000316412000000000257505F4C4F4954E2
:1027100045525F52414400000000E0661200007024
:10272000420146454E43455F414354494F4E0000E8
:10273000000000E16812000000000146454E4345DC
:102740005F544F54414C000000000000E269120049
:102750000000000146454E43455F4348414E4E450B
:102760004C00000000E36A12000000000246454EE3
:1027700043455F4D494E414C540000000000E46B5E
:1027800012000000000246454E43455F4D4158414E
:102790004C540000000000E56D12000000000246ED
:1027A000454E43455F524554414C540000000000E3
:1027B000696F12000000000146454E43455F4155D8
:1027C000544F454E41424C45006A711200000000D2
:1027D0000146454E43455F5245545F52414C4C596A
:1027E00000006B721200000000015354414C4C5F1A
:1027F00050524556454E54494F4E00552F14000037
:10280000803F0241525350445F4642575F4D494E0C
:10281000000000007824140000104102415253507F
:10282000445F4642575F4D4158000000007926142E
:102830000000B04101464257425F454C45565F5249
:102840004556000000007B73120000000001464264
:1028500057425F434C494D425F5241544500007D11
:10286000741200000040015448525F4D494E000070
:102870000000000000000000B5201400000000016E
:102880005448525F4D415800000000000000000015
:1028900000B621140000964201544B4F46465F5447
:1028A00048525F4D41580000000046EC1200000005
:1028B00000015448525F534C455752415445000063
:1028C000000000BD22140000C84201464C41505F88
:1028D000534C4557524154450000000052F4120039
:1028E000009642015448525F535550505F4D414E3F
:1028F0000000000000BE75120000000001544852A4
:102900005F504153535F5354414200000000BF7673
:102910001200000000015448525F4641494C5341A7
:1029200046450000000000B777120000803F0254C7
:1029300048525F46535F56414C5545000000000029
:10294000B8781200806D44015452494D5F5448528A
:102950004F54544C4500000000B923140000344289
:10296000015448524F54544C455F4E55444745001E
:1029700000001F7A120000803F0146535F53484F0A
:1029800052545F4143544E00000000BA7B120000D5
:1029900000000446535F53484F52545F54494D451D
:1029A0004F555400C37D120000C03F0146535F4C99
:1029B0004F4E475F4143544E0000000000BB7C1265
:1029C000000000000446535F4C4F4E475F54494D92
:1029D000454F55540000C481120000A041044653E5
:1029E0005F424154545F564F4C544147450000C12B
:1029F0008612000000000446535F424154545F4D6C
:102A00004148000000000000C28A120000000001DE
:102A100046535F4743535F454E41424C0000000020
:102A200000BC85120000000001464C544D4F444547
:102A300031000000000000000000D28E12000030C3
:102A40004101464C544D4F44453200000000000007
:102A5000000000D38F120000304101464C544D4F0E
:102A6000444533000000000000000000D490120034
:102A700000A04001464C544D4F4445340000000036
:102A80000000000000D591120000A04001464C5407
:102A90004D4F444535000000000000000000D69274
:102AA000120000000001464C544D4F4445360000D2
:102AB00000000000000000D7931200000000014653
:102AC0004C544D4F4445370000000000000000000A
:102AD000D894120000000001464C544D4F44453834
:102AE000000000000000000000D995120000000066
:102AF00001464C544D4F4445390000000000000091
:102B00000000DA961200000000024C494D5F524F5F
:102B10004C4C5F434400000000000098971200A056
:102B20008C45024C494D5F50495443485F4D4158D4
:102B3000000000009928140000FA44024C494D5F3F
:102B400050495443485F4D494E000000009A2A14F2
:102B500000401CC5024143524F5F524F4C4C5F52E4
:102B60004154450000007E9B120000344302414363
:102B7000524F5F50495443485F5241544500007FD3
:102B80009D1200003443014143524F5F4C4F434B71
:102B9000494E470000000000809F12000000000422
:102BA00047524F554E445F53544545525F414C5434
:102BB00000324A12000000000247524F554E445F57
:102BC00053544545525F44505300334E120000B4F5
:102BD00042015452494D5F4155544F0000000000DE
:102BE0000000000AA0120000000001454C45564FAD
:102BF0004E5F4D4958494E47000000000DA112009C
:102C000000000001454C45564F4E5F524556455217
:102C100053450000000EA8120000000001454C457D
:102C2000564F4E5F4348315F5245560000000FA992
:102C3000120000000001454C45564F4E5F4348329C
:102C40005F52455600000010AA1200000000015615
:102C50005441494C5F4F55545055540000000000FA
:102C600027A2120000000001454C45564F4E5F4F11
:102C700055545055540000000029A31200000000D4
:102C8000044D4958494E475F4741494E00000000F6
:102C900000002BA4120000003F025359535F4E5511
:102CA0004D5F52455345545300000002AB120000E3
:102CB0000000034C4F475F4249544D41534B0000C5
:102CC0000000000037AD1200F87D46015253545FFA
:102CD0005357495443485F43480000000015B11260
:102CE00000000000015253545F4D495353494F4E69
:102CF0005F43480000001AB2120000000003545263
:102D0000494D5F41525350445F434D000000009BCA
:102D1000B31200009644045343414C494E475F535D
:102D20005045454400000000CC541200007041039F
:102D30004D494E5F474E445350445F434D000000A1
:102D4000009EC31200000000025452494D5F5049DA
:102D50005443485F4344000000000CC712000000C9
:102D60000003414C545F484F4C445F52544C0000A8
:102D70000000009CB71200401C4602414C545F48C2
:102D80004F4C445F464257434D0000007AC9120041
:102D9000000000014D41475F454E41424C45000057
:102DA000000000000084CB120000803F01464C412F
:102DB000505F494E5F4348414E4E454C00003AEE4D
:102DC000120000000001464C415045524F4E5F4FEB
:102DD000555450555400003BEF12000000000146CE
:102DE0004C41505F315F504552434E54000000004B
:102DF00011CC120000000001464C41505F315F537E
:102E000050454544000000000012CD1200000000B3
:102E100001464C41505F325F504552434E540000D2
:102E2000000013CE120000000001464C41505F32FA
:102E30005F5350454544000000000014CF120000CD
:102E40000000014C414E445F464C41505F5045529A
:102E5000434E540050D01200000000015253534919
:102E60005F50494E000000000000000000A7D21291
:102E7000000080BF04525353495F52414E47450002
:102E800000000000000039D3120000A04001494EAC
:102E9000564552544544464C545F43480000009DFB
:102EA000D712000000000152544C5F4155544F4C62
:102EB000414E440000000000533D12000000000895
:102EC000474E445F000000000000000000000000CA
:102ED000008D06118B380000084750535F0000003A
:102EE000000000000000000000003C7511263500C5
:102EF000000843414D5F000000000000000000009A
:102F0000000000A0DB081C4200000841524D494E61
:102F1000475F0000000000000000000064440691CC
:102F20005A00000852454C41595F00000000000063
:102F300000000000002D07098641000008524E479E
:102F4000464E44000000000000000000000047164C
:102F500009793F000001524E47464E445F4C414EB6
:102F600044494E470000004FF31200000000085291
:102F700043315F000000000000000000000000007E
:102F8000AAF512983E0000085243325F000000008C
:102F9000000000000000000000AB1213983E00008B
:102FA000085243335F0000000000000000000000F2
:102FB0000000AC2F13983E0000085243345F00001D
:102FC0000000000000000000000000AD4C13983E1F
:102FD0000000085243355F000000000000000000C0
:102FE00000000000AE69132E3F0000085243365F18
:102FF00000000000000000000000000000AF871388
:103000002E3F0000085243375F0000000000000020
:10301000000000000000B0A5132E3F00000852433E
:10302000385F00000000000000000000000000B158
:10303000C3132E3F000008524331305F00000000F0
:103040000000000000000000B3E1132E3F00000864
:10305000524331315F00000000000000000000001A
:1030600000B4FF132E3F000008524C4C325352560E
:103070005F000000000000000000E8E20B3C45009B
:10308000000850544348325352565F00000000007D
:10309000000000E9680B5B440000085941573253B7
:1030A00052565F000000000000000000EA360B9A54
:1030B000460000085354454552325352565F0000B3
:1030C0000000000000EF120BEB45000008434F4DDD
:1030D000504153535F000000000000000000851EB7
:1030E00010EA3900000853434845445F00000000DF
:1030F000000000000000002C1C12E45300000852E5
:10310000434D41505F00000000000000000000003F
:10311000EC181261540000085352305F00000000A8
:103120000000000000000000006E4F095C3200004B
:10313000085352315F000000000000000000000052
:1031400000006F2C0A5C32000008494E535F0000FB
:10315000000000000000000000000021B80F543CF7
:10316000000008414852535F0000000000000000CA
:10317000000000008CE40D9E3D00000841525350B9
:10318000445F00000000000000000000008EA8075F
:10319000CC420000084E41564C315F000000000058
:1031A000000000000000EBBA0D1654000008544562
:1031B00043535F000000000000000000000000ED2D
:1031C000560CDE540000084D4E545F000000000015
:1031D0000000000000000000A15406614800000843
:1031E00042415454000000000000000000000000B4
:1031F00000A62F0836570000084252445F00000026
:1032000000000000000000000000381712F55A000E
:1032100000084D49535F000000000000000000005E
:10322000000000914407EB5600000852414C4C59F5
:103230005F00000000000000000000003EB2080E29
:103240005B00000000000000000000000000000023
:1032500000000000000000000000000002005241D9
:10326000575F53454E530000000000000000006609
:10327000000000803F02014558545F535441540000
:10328000000000000000000068000000803F020213
:1032900052435F4348414E00000000000000000020
:1032A000006A000000803F02035241575F435452BE
:1032B0004C0000000000000000006C000000803F97
:1032C0000204504F534954494F4E00000000000083
:1032D0000000006E000000803F0205455854524136
:1032E000310000000000000000000000700000003D
:1032F000803F020645585452413200000000000051
:10330000000000000072000000803F020745585492
:103310005241330000000000000000000000740073
:103320000000803F0208504152414D530000000010
:103330000000000000000076000000204100FF00B7
:10334000000000000000000000000000000000007D
:103350000000000000002C76D888674F0823C1DFEA
:10336000AE59B1B796E5E453C63A51997696E6C29E
:103370008426898C9B62407C6FFCBC9C9F40BAA5D4
:103380006FA590055A2A5C936B6C676DC11BE0E4D6
:103390000D47F520E6B5D0ED902E009435770080EE
:1033A000841E0000204E000000C833333333986E73
:1033B000128341EF8D21893BE655CFFEE6DBD184B8
:1033C0004B38F77C1D90A4BBE4243284725E8100EC
:1033D000C9F1ECA1E53DDCDFE1E3E6E8EBEDEFF27E
:1033E000F4F7F9FCFE000305080A0C0F1114161877
:1033F0001B1D202224276E616E00696E66004261EB
:103400006420636F6E76657273696F6E2074797075
:103410006520272553270A00556E6B6E6F776E2047
:10342000636F6E76657273696F6E20272553270A66
:103430000025733A2025660A0025733A20256C641E
:103440000A0025733A2025640A0025733A20256472
:103450000A00454550524F4D2066756C6C000000C7
:10346000000000060300000676090200760F5A00ED
:103470000100D00F3000000000000005030000052F
:10348000CA090200CA0E96000100600FA000204E7B
:103490004D4541200020534952462000204D544BB9
:1034A0002000204D544B313920002075626C6F781C
:1034B0002000B56206010300010601124F24505599
:1034C00042582C34312C312C303030332C303030C9
:1034D000312C33383430302C302A32360D0A245017
:1034E00047434D442C31362C302C302C302C302C92
:1034F000302A36410D0A24505352463130302C3098
:103500002C33383430302C382C312C302A33430DC6
:103510000A00C01200000096000000C2010000E195
:1035200000008025000001005459504500000000B3
:1035300000000000000000000002000000803F01C9
:10354000024E415646494C544552000000000000CE
:1035500000000300000000410105534241535F4D4C
:103560004F4445000000000000000004000000007F
:103570004001064D494E5F454C4556000000000095
:103580000000000005000000C8C200FF00000000AD
:10359000000000000000000000000000000000002B
:1035A00000000024504D544B3232302C3230302A3F
:1035B00032430D0A24504D544B3331332C312A32CF
:1035C000450D0A24504D544B3330312C322A3245AC
:1035D0000D0A24504D544B3339372C302A32330DD9
:1035E0000A0047505654470047504747410047504C
:1035F000524D430024505352463130332C302C303E
:103600002C312C312A32350D0A2450535246313098
:10361000332C312C302C302C312A32350D0A2450E9
:103620005352463130332C322C302C302C312A324C
:10363000360D0A24505352463130332C332C302C63
:10364000302C312A32370D0A245053524631303350
:103650002C342C302C312C312A32300D0A2450538A
:1036600052463130332C352C302C312C312A32302B
:103670000D0A24505352463130332C362C302C3026
:103680002C312A32320D0A24505352463130332C19
:10369000382C302C302C312A32430D0A245053520E
:1036A000463135312C312A33460D0A2450535246C7
:1036B0003130362C32312A30460D0A24504D544BCD
:1036C0003331342C302C302C312C312C302C302C0C
:1036D000302C302C302C302C302C302C302C302C0A
:1036E000302C302C302A32380D0A24504D544B33B4
:1036F00033302C302A32450D0A24504D544B33318F
:10370000332C312A32450D0A24504D544B3330317D
:103710002C322A32450D0A24505542582C34302C74
:103720006767612C302C312C302C302C302C302A17
:1037300037420D0A24505542582C34302C76746789
:103740002C302C312C302C302C302C302A37460D9C
:103750000A24505542582C34302C726D632C302C76
:10376000302C302C302C302C302A36370D0A00A06B
:10377000A20008A60200000000000000A8B0B3A04C
:10378000A20008A60029010000000000D0B0B35438
:103790006F6F206D616E79206261726F6D65746507
:1037A0007273004261726F3A20756E61626C6520BF
:1037B000746F20696E697469616C697365206472E5
:1037C000697665720041505F4261726F3A20616CA8
:1037D0006C2073656E736F727320756E63616C69B4
:1037E0006272617465640050414E49433A20415011
:1037F0005F4261726F3A3A7265616420756E7375EB
:10380000636365737366756C20666F72206D6F728B
:1038100065207468616E203530306D7320696E20CC
:1038200041505F4261726F3A3A63616C69627261E2
:103830007465205B335D0D0A0050414E49433A20C8
:1038400041505F4261726F3A3A7265616420756EF1
:103850007375636365737366756C20666F72206D34
:103860006F7265207468616E203530306D73206929
:103870006E2041505F4261726F3A3A63616C6962D7
:1038800072617465205B325D0D0A0004024142538F
:103890005F505245535300000000000000001A0022
:1038A00000000000040354454D50000000000000DB
:1038B00000000000000000160000000000010441AC
:1038C0004C545F4F46465345540000000000000032
:1038D0001E000000000000FF0000000000000000CB
:1038E0000000000000000000000000000000004296
:1038F000616420435243206F6E204D533536313181
:103900000050414E49433A2041505F4261726F5F1F
:103910004D53353631313A206661696C65642074E7
:103920006F2074616B652073657269616C207365CB
:103930006D6170686F726520666F7220696E697460
:103940000041505F53657269616C4275735F493223
:103950004320646964206E6F74206765742076610B
:103960006C6964204932432073656D6170686F72C1
:1039700065210041505F53657269616C4275735FE8
:1039800053504920646964206E6F74206765742009
:1039900076616C6964205350492073656D6170686D
:1039A000726F652100646964206E6F7420676574AE
:1039B0002076616C696420535049206465766963A0
:1039C000652064726976657221004661696C656480
:1039D00020746F2067657420484D43353834332098
:1039E00073656D6170686F72650005014F46530025
:1039F00000000000000000000000000000170000B0
:103A000000000004024445430000000000000000E4
:103A100000000000000023000000000001034C45EE
:103A200041524E00000000000000000000000008AD
:103A3000000000803F0104555345000000000000D5
:103A4000000000000000000027000000803F01058A
:103A50004155544F44454300000000000000000061
:103A60000028000000803F01064D4F5443540000E1
:103A700000000000000000000000A40000000000A2
:103A800005074D4F5400000000000000000000003A
:103A9000000000A5000000000001084F5249454EFB
:103AA00054000000000000000000000016000000AC
:103AB0000000010945585445524E414C0000000099
:103AC000000000000029000000000000FF000000CE
:103AD00000000000000000000000000000000000E6
:103AE00000000000256C642E2530376C64002D002A
:103AF0006779726F5B25755D20646964206E6F74F1
:103B000020636F6E76657267653A20646966663D0C
:103B10002566206470730A002A00496E6974204784
:103B200079726F0020002A00496E69742041636336
:103B3000656C0043616C6962726174696F6E2046E6
:103B400041494C45440A0043616C69627261746981
:103B50006F6E207375636365737366756C0A0053CB
:103B600063616C696E675B25755D3A20252E326650
:103B700020252E326620252E32660A004F66667397
:103B80006574735B25755D3A20252E326620252EDF
:103B9000326620252E32660A00506C6163652076FD
:103BA000656869636C6520255320616E64207072BE
:103BB00065737320616E79206B65792E0A006F6ED4
:103BC00020697473204241434B006E6F736520552A
:103BD00050006E6F736520444F574E006F6E206922
:103BE00074732052494748542073696465006F6EAE
:103BF00020697473204C4546542073696465006CD9
:103C00006576656C004E6F20494E53206261636B90
:103C1000656E647320617661696C61626C650054E5
:103C20006F6F206D616E7920494E53206261636B26
:103C3000656E647300546F6F206D616E79206163EF
:103C400063656C7300546F6F206D616E79206779C6
:103C5000726F7300020050524F445543545F494401
:103C6000000000000000001F0000000000050141EE
:103C700043435343414C000000000000000000009B
:103C800021000000000005024143434F4646530017
:103C90000000000000000000002D000000000005F2
:103CA000034759524F4646530000000000000000F1
:103CB000000039000000000001044D5055364B5FF4
:103CC00046494C54455200000000004500000000E9
:103CD0000000FF00000000000000000000000000E5
:103CE000000000000000000000004661696C65648F
:103CF00020746F20626F6F74204D50553630303015
:103D000020352074696D6573004D50553630303064
:103D10003A20556E61626C6520746F20676574206F
:103D200073656D6170686F72650056616C7565735F
:103D300020646F65736E2774206D617463683B2027
:103D40007772697474656E3A20253032783B207240
:103D50006561643A202530327820006661696C65BF
:103D60006420746F20626F6F74204D505536303070
:103D70003020352074696D65730054696D65642069
:103D80006F75742077616974696E6720666F722041
:103D90007573657220726573706F6E7365000402CF
:103DA0004750535F4741494E0000000000000000AB
:103DB0000022000000803F01034750535F555345E8
:103DC000000000000000000000002C000000803F08
:103DD00004045941575F500000000000000000003B
:103DE0000000001A00CDCC4C3E040552505F50003C
:103DF0000000000000000000000000001E00CDCC0C
:103E00004C3E010657494E445F4D415800000000AA
:103E100000000000002D0000000000050854524979
:103E20004D00000000000000000000000000430002
:103E30000000000001094F5249454E544154494F7A
:103E40004E0000000000002E0000000000040A43A5
:103E50004F4D505F424554410000000000000000FB
:103E60002800CDCCCC3D010B4750535F4D494E53FC
:103E70004154530000000000002F000000C040002B
:103E8000FF00000000000000000000000000000033
:103E9000000000000000000002004D494E0000003C
:103EA00000000000000000000000000A00008089FF
:103EB0004402015452494D0000000000000000007F
:103EC000000000000C000080BB4402024D4158007D
:103ED000000000000000000000000000000E0000D4
:103EE00080ED440103524556000000000000000030
:103EF00000000000000010000000803F0205445A4E
:103F000000000000000000000000000000000011A0
:103F1000000000000000FF000000000000000000A2
:103F20000000000000000000000000000000080089
:103F30000000000000000000000000000000000081
:103F4000000000983E0000010146554E4354494F81
:103F50004E0000000000000000001D0000000000F6
:103F600000FF000000000000000000000000000052
:103F700000000000000000000001005F545950459F
:103F80000000000000000000000000000000000031
:103F9000000001015F50494E0000000000000000D9
:103FA00000000000000200000080BF04025F5343D5
:103FB000414C494E470000000000000000000C008A
:103FC0000000404004035F4F464653455400000044
:103FD0000000000000000014000000000001045F69
:103FE00046554E4354494F4E00000000000000006B
:103FF0001C000000000002055F4D494E5F434D006C
:104000000000000000000000001E000000A04102AF
:10401000065F4D41585F434D000000000000000066
:104020000000220000002F4401075F53544F505FEF
:1040300050494E0000000000000000060000008013
:10404000BF02085F534554544C4500000000000077
:104050000000000008000000000001095F524D450B
:10406000545249430000000000000000000400001A
:1040700000803F010C325F545950450000000000A1
:10408000000000000000010000000000010D325F90
:1040900050494E0000000000000000000000000336
:1040A00000000080BF040E325F5343414C494E472D
:1040B0000000000000000000100000004040040F5D
:1040C000325F4F4646534554000000000000000098
:1040D000001800000000000110325F46554E4354A6
:1040E000494F4E000000000000001D0000000000CD
:1040F0000211325F4D494E5F434D00000000000049
:1041000000000020000000A0410212325F4D415823
:104110005F434D000000000000000000240000008C
:104120002F440113325F53544F505F50494E0000EB
:1041300000000000000700000080BF0214325F533F
:104140004554544C450000000000000000000A00E7
:10415000000000000115325F524D455452494300A2
:104160000000000000000005000000803F00FF008C
:10417000000000000000000000000000000000003F
:10418000000000000000010050494E000000000047
:10419000000000000000000000000000005041018D
:1041A0000150494E320000000000000000000000F5
:1041B00000000100000080BF010250494E330000A2
:1041C000000000000000000000000002000000806D
:1041D000BF010350494E3400000000000000000001
:1041E000000000000300000080BF01044445464178
:1041F000554C5400000000000000000000040000C6
:1042000000000000FF0000000000000000000000AF
:1042100000000000000000000000000001005452F7
:104220004947475F54595045000000000000000016
:10423000000000000001014455524154494F4E0016
:104240000000000000000000010000002041020208
:10425000534552564F5F4F4E0000000000000000D3
:104260000002000080A2440203534552564F5F4FA4
:104270004646000000000000000004000080894461
:10428000040454524947475F444953540000000016
:1042900000000009000000000000FF000000000016
:1042A000000000000000000000000000000000000E
:1042B000000041697273706565642073656E736F89
:1042C0007220756E6865616C746879000100454EF6
:1042D00041424C45000000000000000000000009C1
:1042E000000000803F010155534500000000000020
:1042F00000000000000000000800000000000402B0
:104300004F464653455400000000000000000000E6
:10431000000000000000000403524154494F000017
:10432000000000000000000000000400492EFF3FD4
:10433000010450494E000000000000000000000091
:104340000000000A000000000001054155544F43E1
:10435000414C000000000000000000000B000000C5
:1043600000000106545542455F4F5244455200003B
:1043700000000000000C00000000400107534B4902
:10438000505F43414C0000000000000000000D00A1
:104390000000000000FF000000000000000000001E
:1043A00000000000000000000000000000494D4136
:1043B0005800524D41580044004900500054434FAA
:1043C0004E53540050544348325352565F00524C9F
:1043D0004C325352565F003333333FCDCC4C3D000B
:1043E00000A0416666263FAE47613D0000F0419A5D
:1043F00099193F8FC2753D00002042CDCC0C3FB8CB
:104400001E853D000048420000003F295C8F3D00B2
:104410000070426666E63E9A99993D00009642CD4C
:10442000CCCC3E0AD7A33D0000B4429A99993E7B7A
:1044300014AE3D0000F042CDCC4C3EEC51B83D00F6
:10444000002043CDCCCC3D5C8FC23D00005243CD1B
:10445000CC4C3DCDCCCC3D00009643040054434FA2
:104460004E53540000000000000000000000020055
:104470000000003F040150000000000000000000A8
:10448000000000000000000600CDCCCC3E04024439
:10449000000000000000000000000000000000001C
:1044A0000E000AD7A33C04034900000000000000EE
:1044B0000000000000000000000A000AD7233D02AF
:1044C00004524D41585F55500000000000000000AC
:1044D00000001200000000000205524D41585F44E8
:1044E0004E00000000000000000000660000000018
:1044F000000406524C4C00000000000000000000C8
:104500000000000068000000803F0207494D41584C
:104510000000000000000000000000000014000087
:1045200080BB4400FF00000000000000000000000D
:1045300000000000000000000000000004005443E0
:104540004F4E535400000000000000000000000225
:10455000000000003F0401500000000000000000C7
:1045600000000000000000000600CDCCCC3E04029C
:1045700044000000000000000000000000000000F7
:10458000000E000AD7A33C0403490000000000000D
:10459000000000000000000000000A000AD7233DD0
:1045A0000204524D415800000000000000000000CD
:1045B0000000001200000000000205494D415800B3
:1045C0000000000000000000000000001400008057
:1045D000BB4400FF000000000000000000000000DD
:1045E0000000000000000000000000040054434FE1
:1045F0004E535400000000000000000000000000C6
:104600000000403F040150000000000000000000D6
:104610000000000000000004006666E63F04034955
:10462000000000000000000000000000000000008A
:104630000800CDCC4C3E0404440000000000000003
:104640000000000000000000000C000AD7A33B029D
:1046500005494D4158000000000000000000000026
:10466000000014000080BB4404064D494E535044E2
:1046700000000000000000000000001000000080AA
:104680003F00FF00000000000000000000000000EC
:10469000000000000000000000000400534C4950DE
:1046A0000000000000000000000000000002000008
:1046B0000000000401494E5400000000000000000A
:1046C0000000000000000600000000000402444159
:1046D0004D50000000000000000000000000000A33
:1046E00000000000000403524C4C000000000000D9
:1046F00000000000000000000E000000803F0205E6
:10470000494D41580000000000000000000000007A
:104710000012000080BB4400FF0000000000000009
:104720000000000000000000000000000000000089
:10473000666C6967687420706C616E207265636571
:104740006976656400666C6967687420706C616E78
:10475000207570646174652072656A656374656450
:1047600000327C8900EDD968770000005900000014
:104770000000000000D69FDCA81817AA90437327FA
:10478000F6B968EDF4DED409FEE61C1C84DDE80B06
:104790009929274E0000000F03000000000099B780
:1047A000335276941500F37C000026149E988F00F7
:1047B00000006A31168F8C059600E7B73F3600007F
:1047C0000000000000AF669ED0385D8A6C20B954AE
:1047D00022007CED044C80387486EDCBFA57CBDC9C
:1047E00019E2001DDF5506E5CB01C3000000000003
:1047F000000000009AB20086DBD0BC541613158668
:10480000004E44BD7F9A15159001EA49B51653A78D
:104810008AEAF02FBD34AEE5000000000000000081
:104820000000000000000000000000000000000088
:104830000000000000000000000000000000000078
:104840000000000000000000000000000000000068
:1048500000000000000000000008CC31AA2C532EFC
:104860000001004D4F444500000000000000000022
:1048700000000000320000000000050152455452C3
:10488000414354000000000000000000004300000D
:1048900000000005024E45555452414C00000000F6
:1048A0000000000000004F00000000000503434F1F
:1048B0004E54524F4C000000000000000000005B0E
:1048C00000000000000104535441425F524F4C4C21
:1048D00000000000000000002F00000000000105A3
:1048E000535441425F54494C540000000000000002
:1048F000003000000000000106535441425F504167
:104900004E00000000000000000031000000000028
:10491000010752435F494E5F524F4C4C000000006C
:104920000000003300000000000208414E474D49DE
:104930004E5F524F4C00000000000000360000A007
:104940008CC50209414E474D41585F524F4C000003
:104950000000000000380000A08C45010A52435FAF
:10496000494E5F54494C54000000000000003400E0
:1049700000000000020B414E474D494E5F54494C28
:10498000000000000000003A0000A08CC5020C41AD
:104990004E474D41585F54494C0000000000000054
:1049A0003C0000A08C45010D52435F494E5F5041D1
:1049B0004E00000000000000003500000000000272
:1049C0000E414E474D494E5F50414E0000000000E1
:1049D00000003E0000A08CC5020F414E474D4158DB
:1049E0005F50414E00000000000000400000A08C1D
:1049F0004501104A535449434B5F53504400000053
:104A00000000000042000000000004114C45414439
:104A10005F524C4C000000000000000000670000E6
:104A200000000004124C4541445F505443480000CC
:104A30000000000000006B000000000000FF00000C
:104A40000000000000000000000000000000000066
:104A50000000000000801140114071327334333285
:104A600013121132111293341314535231002103D3
:104A70000406080B2D0A090705040241C011C051A4
:104A800012535473121112515273147332310021A4
:104A900002040506070809080607062403020102A6
:104AA000000120012011C0011100313213741314D0
:104AB0003312F112D3125100010223250607464496
:104AC0002342210001E0A0313213B433111211004E
:104AD00011201100523312133211200122248504B7
:104AE0002304020342410001E0A0511214131513E4
:104AF000153413325140012011521332310001227A
:104B000023040504050423010382612001E01180D0
:104B10001132135415143332314021020100317225
:104B2000314102234423020122012201026140019A
:104B3000A0118051121413341514331231400102A4
:104B400001030201205211122021224304224102BA
:104B50002102A10001E02011405153741332114091
:104B6000210203020302010011121132001141223D
:104B7000232221004102A180016011601100113245
:104B80003374131211400162030203213112111216
:104B9000114001020102030201000100E121E0A035
:104BA000112012117334333120016203624012115B
:104BB000121100110100010201220001200100E197
:104BC000C00100118011001211131214133452206D
:104BD00001E2022120311211001100010021020125
:104BE000000140210002410001E06011401112115A
:104BF0001312141314133211002122034201022153
:104C0000000100110012110011200100416001009B
:104C1000C100014011200160114051121312131400
:104C20003312310001420322010221000140110030
:104C3000310011000100010001A0E10001A001808C
:104C4000112031529312110021C221002140310064
:104C500011201100010001E0E16001E0110011727A
:104C60007312310021420301020102202140110090
:104C700011201160014011600100010221020001B8
:104C800020014001A05132131253321120010201C0
:104C900082210021000100110031E00011001160AB
:104CA0002100010201020101002120010001601127
:104CB000001152131214135211004182010200011B
:104CC0000021401100110011A011003100112081BC
:104CD00022010100020100210001601100521312A3
:104CE000131413323101000201220142010021009C
:104CF000010001112011001120114071001140012B
:104D00000221020102010021022100010001001123
:104D10000012111233123413321120010201420128
:104D20002201004100016011201100110011005109
:104D300012312061020122020002010281201100D1
:104D4000121173341332110041020182010061001B
:104D50000180110011009132314021420102020014
:104D60006261401152141354333100418201220018
:104D700001020041000160911211525120012201F3
:104D800003010202008261005133541514333100D3
:104D90002102012203424102A180319213323100EB
:104DA00041220302010300220322010201401112E9
:104DB00033953331010022010342032221220102F3
:104DC00061000111001152131253123100412203EC
:104DD00022030023020302010221203213141615BC
:104DE000171615331120016203020302032201A2E8
:104DF0004140111253141314133211010002010225
:104E000003020302020002230203222120321416AD
:104E10003718171513121100212203024302430110
:104E200003020382212011121314153415143211B8
:104E30000001622302030043020342012012131502
:104E400018193A1715131100210203026304E30233
:104E5000030203020102401213141517151634122F
:104E600020212243020300A3220100111215181C65
:104E70001E1D19161311000201030203042304036B
:104E800024030443042304030203422011121415D3
:104E900017183615133121020302230203241E19A9
:104EA0001512100E0C0B0A09090908080807060656
:104EB00005040404030404040000000000000000D2
:104EC000000027262123252325242722292A2A1CDE
:104ED00027282B33322725222C333130370000008E
:104EE0000000000000000000000001FFFFE00000E3
:104EF0000000000001FFFFF000000000000001FFC3
:104F0000FFF800000000000001FFFFFE00000000AD
:104F1000000003FFFFFF00000000000003FFFFFF91
:104F2000F000000000000FFFFFFFFE00000003FF85
:104F3000FFFC000007FC00007FFFFFFC00000000FA
:104F40000000001FFFFE000000000096918C878289
:104F50007D78736E69645F5A55504B46413C3732D9
:104F60002D28231E19140F0A050004090E13181DFD
:104F700022272C31363B40454A4F54595E63686DB9
:104F800072777C81868B90959A9FA4A9AEB3AFAAC5
:104F9000A5A09B968F89837E78736E69645F5A554E
:104FA000504B47423E3935302C27231F1B16120E1B
:104FB00009050103070B1014191D22262B2F343964
:104FC0003D42474C51565B60656B70757B80868CAB
:104FD00092979DA3A9AFB2ACA6A09A948F827C763B
:104FE000706B65605C57524E4A46413D3936322EF1
:104FF0002A26221F1B1713100C08040102060A0E92
:1050000012161A1E22262B2F33383D41464B4F5481
:10501000595E64696F747A80878D949BA2AAB1AE41
:10502000A69F979089826F68635E5955514D494696
:10503000423F3C3835322E2B2824211E1A171410DB
:105040000D0A0603000306090D1014181C2024285D
:105050002C3034393D41464A4F54585D62676D7378
:105060007980878F98A2ACB0A59A90867D766F558F
:10507000514D4A4744413F3C3A383533312E2B2974
:105080002623201D1A1713100D0A07040101030619
:10509000090D1013171A1E22262A2E32363A3E42C6
:1050A000464A4E53575B5F64696E757C85909FB22C
:1050B000A08D7D7067605A553E3C3A39373634339F
:1050C00032302F2E2C2A292724221F1C19161310A8
:1050D0000D0A070402000305080A0D1013161A1D15
:1050E0002125292D3135383C4043464A4D505356F1
:1050F000595B5E6165696F826D544D4A4744424019
:105100003E2E2E2D2C2C2B2A2A29292827262524F1
:1051100023211F1C1A1714100D0A0704010103058F
:1051200007090C0E1013161A1D2124282C303337B2
:105130003A3D40424447484A4A4B4A48443D301968
:10514000021621282B2D2E2F2E2E06090C0F12159C
:1051500017191B1C1B1811040E2231383C3C3C3A19
:105160003835322F2B2824201C1915110D09050163
:1051700002060A0E1115181C1F222527292A2B2B7F
:105180002926211911080004080A0A0A080704023E
:1051900000030616181A1C1E20211F1712516063E7
:1051A000625F5D5956524E4A46423E3935312C288F
:1051B00024201B17130E0A060102060A0F13171BE1
:1051C0001F23262A2D313437393C3D3F3F3E3D39A0
:1051D000352F28211C17151313131416A8ADB2B0C0
:1051E000ABA6A19C97928D88837E79746F6A656067
:1051F0005B56514C47423D38332E29241F1A151057
:105200000B060103080D12171C21262B30353A3FDF
:1052100044494E53585D62676C71767B80858A8FF6
:1052200094999EA3A850414E49433A204461746129
:10523000466C6173682053504944657669636544E0
:1052400072697665722073656D6170686F72652032
:105250006973206E756C6C0050414E49433A20448E
:10526000617461466C617368205350494465766986
:105270006365447269766572206E6F7420666F751F
:105280006E64004C6F672025752C202020207374DD
:105290006172742025752C202020656E6420257590
:1052A0000A000A2575206C6F67730A000A4E6F208A
:1052B0006C6F67730A0A004E756D50616765733ACB
:1052C00020257520205061676553697A653A20254D
:1052D000750A004D616E7566616374757265723A28
:1052E0002030782530327820202044657669636547
:1052F0003A203078253034780A004E6F206461748B
:1053000061666C61736820696E73657274656400B0
:1053100025750A0025752C090044462070616765D3
:105320002C206C6F672066696C6520232C206C6FC5
:105330006720706167653A2025752C0900464D5439
:105340002C2025752C2025752C2025532C20255309
:105350002C2025530A002C200025730025730025DE
:105360007300252E326600252E326600252E326609
:1053700000252E326600256600256C7500256C64BC
:105380000025750025640025750025640025532C33
:105390002000554E4B4E2C2025750A00536368653E
:1053A00064756C6572206F76657272756E207461BB
:1053B000736B5B25755D202825752F2575290A00DF
:1053C0005363686564756C657220736C69702074D2
:1053D00061736B5B25755D202825752F25752F253D
:1053E00075290A00010044454255470000000000AD
:1053F0000000000000000000000000000000FF00AE
:10540000000000000000000000000000000000009C
:105410000000000000000400504552494F440000C5
:105420000000000000000000001D000000C8410452
:105430000144414D50494E4700000000000000006B
:10544000000021000000403F00FF000000000000BD
:10545000000000000000000000000000000000004C
:10546000000100524F4C4C00000000000000000002
:105470000000000000000000803F0101504954433B
:1054800048000000000000000000000000010000D3
:1054900000004001025448524F54544C4500000053
:1054A00000000000000003000000404001035941DB
:1054B0005700000000000000000000000000000293
:1054C000000000804000FF0000000000000000001D
:1054D00000000000000000000000000000000400C8
:1054E000434C4D425F4D4158000000000000000059
:1054F0000051000000A040040153494E4B5F4D494C
:105500004E000000000000000000550000000040B8
:10551000040254494D455F434F4E53540000000070
:105520000000005D000000A04004035448525F44A6
:10553000414D500000000000000000006D00000020
:10554000003F0404494E5445475F4741494E00001F
:1055500000000000007100CDCCCC3D040556455242
:10556000545F41434300000000000000000075004C
:105570000000E04004064847545F4F4D4547410056
:1055800000000000000000490000004040040753F4
:1055900050445F4F4D4547410000000000000000AF
:1055A0004D00000000400408524C4C325448520058
:1055B000000000000000000000790000002041040D
:1055C0000953504457454947485400000000000023
:1055D00000007D000000803F040A505443485F44AF
:1055E000414D500000000000000000650000000078
:1055F00000040B53494E4B5F4D4158000000000022
:105600000000000059000000A040040C4C414E4432
:105610005F41525350440000000000000089000028
:105620000080BF040D4C414E445F544852000000BE
:105630000000000000008500000080BF040E4C4107
:105640004E445F535044574754000000000000810F
:10565000000000803F010F50495443485F4D4158BE
:105660000000000000000000910000000000011098
:1056700050495443485F4D494E000000000000006F
:105680000092000000000004114C414E445F534959
:105690004E4B00000000000000008D000000803E26
:1056A00004124C414E445F54434F4E53540000008B
:1056B00000000061000000004004134C414E445FB4
:1056C00044414D500000000000000000690000004F
:1056D000003F00FF0000000000000000000000008C
:1056E00000000000000000000000000200544F54C1
:1056F000414C000000000000000000000000050018
:105700000000000001015245535441525400000072
:105710000000000000000007000000000000FF0083
:105720000000000000000000000000000000000079
:1057300000000000000001005F4D4F4E49544F52E1
:105740000000000000000000000200000000000156
:10575000015F564F4C545F50494E0000000000005E
:10576000000004000000504101025F435552525FA7
:1057700050494E00000000000000000600000040FC
:105780004104035F564F4C545F4D554C540000008C
:105790000000000008009A99214104045F414D5027
:1057A0005F504552564F4C5400000000001000005E
:1057B00000884104055F414D505F4F4646534554B4
:1057C00000000000000018000000000003065F4316
:1057D000415041434954590000000000000000209E
:1057E0000000404E45010B325F4D4F4E49544F5221
:1057F0000000000000000000030000000000010C99
:10580000325F564F4C545F50494E0000000000007C
:1058100000050000005041010D325F435552525FB8
:1058200050494E0000000000000007000000404109
:10583000040E325F564F4C545F4D554C54000000DF
:105840000000000C009A992141040F325F414D5035
:105850005F504552564F4C000000000014000000FD
:1058600088410410325F414D505F4F4646534554C6
:1058700000000000001C00000000000311325F4324
:1058800041504143495459000000000000002400E9
:1058900000404E4500FF0000000000000000000036
:1058A00000000000000000000000000000546872CA
:1058B0006F74746C652064697361726D6564210036
:1058C0005468726F74746C652061726D6564210038
:1058D0005468726F74746C652061726D6564210028
:1058E00050726541726D3A20526164696F20666141
:1058F000696C73616665206F6E0050726541726DF0
:105900003A204861726477617265205361666574FC
:1059100079205377697463680050726541726D3AFB
:105920002042617474657279206661696C73616686
:1059300065206F6E2E0050726541726D3A20426193
:10594000642047505320506F736974696F6E005024
:10595000726541726D3A20436865636B206D6167C3
:10596000206669656C640050726541726D3A20432F
:105970006F6D70617373206F6666736574732074E6
:105980006F6F20686967680050726541726D3A20D8
:10599000436F6D70617373206E6F742063616C6907
:1059A0006272617465640050726541726D3A2043A1
:1059B0006F6D70617373206E6F74206865616C74B5
:1059C0006879210050726541726D3A20454B46203E
:1059D0007265717569726573203344206163636514
:1059E0006C2063616C0050726541726D3A204148D1
:1059F0005253206E6F74206865616C746879210061
:105A000050726541726D3A20616363656C73206EFC
:105A10006F74206865616C7468792100507265410B
:105A2000726D3A206779726F73206E6F74206361B4
:105A30006C69627261746564210050726541726DB7
:105A40003A206779726F73206E6F74206865616C9D
:105A5000746879210050726541726D3A20616972F3
:105A60007370656564206E6F74206865616C74681E
:105A7000790050726541726D3A204261726F6D65B6
:105A8000746572206E6F74206865616C746879212A
:105A900000010052455155495245000000000000E8
:105AA0000000000001000000000001014449535FB4
:105AB00052554400000000000000000000020000F9
:105AC0000000000202434845434B00000000000074
:105AD00000000000000003000000803F00FF000005
