:100000000C94E32E0C94142F0C94142F0C94142F96
:100010000C94142F0C94142F0C94142F0D94ABB734
:100020000C94142F0C94142F0C94142F0C94142F44
:100030000C94142F0C94142F0C94142F0D94D4C9D9
:100040000C94142F0C94142F0C94142F0C94142F24
:100050000C94142F0C94142F0C94142F0C94142F14
:100060000C94142F0D945CB80D948BB80C94142F31
:100070000C94142F0C94142F0C94142F0C94142FF4
:100080000C94142F0C94142F0C94142F0C94142FE4
:100090000D94C6B80D94F5B80C94142F0D9472BC41
:1000A0000C94142F0D9401CA0C94142F0C94142F3B
:1000B0000C94142F0C94142F0D942ECA0C94142FFE
:1000C0000C94142F0C94142F0D948FC20D9430B9EE
:1000D0000D945FB90C94142F0C94142F0C94142FBE
:1000E0000C94142F7C31813186318B3190319531D4
:1000F0009F31A4319A31C331A931AE31B331C3310B
:10010000C331B831C331C331C331C331C331C3315A
:10011000C331C331C331C331C331C331C331C3313F
:10012000C331C331C331C331C331C331C331BD3135
:10013000764B7A4B784B764B764B784B784B784BAB
:10014000784B7D4B7A4B7A4B7A4B7D4B7D4B7A4B80
:100150007C4B0C6A356A0C6A0C6A1A6A0C6A2F6A44
:10016000216A0F6AE16A456A5F6AAE6AE16AE16A1A
:10017000C76A086AE16AE16AE16AE16AE16AE16A1A
:10018000E16AE16AE16AE16AE16AE16AE16AE16A17
:10019000E16AE16AE16AE16AE16AE16ACF6AB27240
:1001A0009572847217709B70E07025722A72E070ED
:1001B0001973B26E14701470197319731470197363
:1001C00019731973197319731973197319731973CF
:1001D00019731973197319731973197319731973BF
:1001E0001973197319731973D372198F088F0E8FBE
:1001F000058F088F0B8F0B8F088F1B8F198F198F0F
:10020000198F1B8F1B8F198FA190E890F190C390CD
:10021000D790FA9094914C914391309155916A9175
:100220007D910A911D913B92AE919D91BF913B9220
:10023000C891D191E491F7912A9200923B92189241
:1002400008923292D0AAD6AADDAAE4AAF2AA08ABF2
:1002500010ABECABE5ABFBAB08AC20AC39AC45ACC0
:100260008DB288B294B298B2A3B2BEB2E2B2EBB28F
:1002700016B311B31FB324B328B338B342B374B762
:100280006DB77DB788B798B7ADB7CDB7F0B7FBB747
:10029000B8B8B1B8C0B8CAB8DEB8F4B80BB929B9A3
:1002A00035B969E07DE083E0AFE0BEE0DFE0E9E0A2
:1002B0000EE114E135E143E157E162E187E19EE1BE
:1002C000CEE1DCE1FCE10EE22EE240E270E287E208
:1002D000B9E2BFE2C5E2D9E2EFE2FDE20DE324E3D9
:1002E00043E361E37CE38BE3A5E3C0E3DFE388045E
:1002F0008804FA032A032A032A032A032A032A0367
:1003000088042A032A032A032A03FA03FA03FA03B6
:10031000FA03FA03FA032A032A03FA03FA03FA0395
:10032000480520068A03040736074403AE04440345
:10033000440344034606E2020406DE04DE04D40459
:100340002E0376056205F2052A06CA058603D00447
:10035000E204E203B006E203E2035A04C803E20344
:10036000E2036A05F402C004E203E203E203E203EB
:10037000E203E203E203E203E203E203E203E60252
:10038000E203E203E203E203E203E203E2033E03E9
:100390000006E203B206A604E2039E032404E2037D
:1003A000E203E203E2031405FC06FC06CE03FC06AE
:1003B000FC06CE03CE0378044E0378044E03780483
:1003C0004E037804120612061206120612061206D0
:1003D000120612061206600578044E0378044E03D6
:1003E00078044E0378044E037804600578041206FE
:1003F00012064E03780412064E0378044E03780466
:1004000060059E06F0059E06F0059E06F0059E0618
:10041000F0059E06F005F602F602F602CA04CA04CA
:10042000F602F602F602CA04CA04C604C604C604EA
:1004300012041204C604C604C60412041204AA0656
:10044000FC04AA06FC04AA06FC04AA06FC04AA06EC
:100450003203DA05DA055C045C045C047E037E0387
:100460007E033A04C006C006000712074407420391
:10047000F00422057A061E042E0406064A043406F9
:10048000AC04C206A804AC031806D6033A0622043C
:10049000D0056C041004B6049A06EC04E40330039F
:1004A0002A04F8055A03D4055E051C07E604420534
:1004B0002C077603FE059C03B003540326053A037C
:1004C000036EDB363D9A9999993DABAAAA2A3E0064
:1004D0000000803F084AD73B3BCE016E84BCBFFD85
:1004E000C12F3D6C74319ABD56833DDA3D00C77F04
:1004F00011BED9E4BB4C3E916BAAAABE000000809D
:100500003F072C7AA5BA6CC590DA3B9365FC8BBC8F
:1005100053F810FD3C5692834DBD879D3AB63DCBB6
:10052000C9BF5BBE73DA0FC93F05A84CCDB2D44E2C
:10053000B93836A9020C50B9918688083CA6AAAAF7
:100540002ABE000000803F08000000BE922449122D
:100550003EABAAAA2ABECDCCCC4C3E00000080BE49
:10056000ABAAAAAA3E00000000BF000000803F0026
:1005700000000000084178D3BB4387D1133D190E1A
:100580003CC3BD4282AD2B3E68EC8276BED98FE182
:10059000A93E4C80EFFFBE01C4FF7F3F000000007A
:1005A000000664EC1B3C04BC163E3BE5B93CC93C70
:1005B00037C29E5A3D660498083EEA69AAAA3E00E0
:1005C0000000803F0D9421460D9459200D948B70AE
:1005D0000D943DBE0D9459BA0D9494810D94296DDE
:1005E0000D9435AB0D94D9660D94A9700D946CA73C
:1005F0000D94F06D0D94ED440D94AEC90D942477D7
:100600000D9421200D9416C70D943A720D943A8DD5
:100610000D94E45E0D9400870D948C710D9482AC62
:100620000D9466640D94D7A10D94B64A0D94334E83
:100630000D94F01C0D9430A70D94F66D0D94CEB36F
:100640000D94BB670D94D0BF0D94AAC30D94F5A86B
:100650000D9455A60D94CA1E0D9430950D948A5391
:100660000D9402C00D94AFA70D94F8C50D94842F7E
:100670000D948B2A0D9476C00D946B020D943E6FF1
:100680000D94C4230D9474BF0D943A460D94E62244
:100690000D94F1C60D94261A0D946D0D0D9483A53D
:1006A0000D94ABB60D940B300D947BC00D94760871
:1006B0000D94FF020D941AC00D9495100D94C8C3AB
:1006C0000D94DCB70D94C3B60D94D3630D94DE2F57
:1006D0000D94F3B20D94E3710D948B550D9440720B
:1006E0000D94254F0D94B2BA0D94F1020D945DC096
:1006F0000D94C7330D943FC00D945BC70D9446BF56
:100700000D94289A0D942D620D9455670D940554FF
:100710000D94CAB30D940D460D943AC30D94424402
:100720000D94F5770D9418490D9404C10D949D8492
:100730000D945F960D94F5210D9467C00D94656F2F
:100740000D94114C0D9400C10D947F840D940CC137
:100750000D94F4C80D94D4220D94B2BF0D9423C708
:100760000D946CC00D94BE8A0D94A9CF0D9476BDE6
:100770000D9405A30D947B770D9499C70D9412A841
:100780000D9456B60D945F340D94822F0D9444054C
:100790000D949B6F0D94DDB70D941A7F0D9432A4C8
:1007A0000D942B7D0D94DF570D9432690D94BCBFD1
:1007B0000D9453C70D94DAB70D94D0640D94612055
:1007C0000D94E2B10D94C8700D94FDBF0D948C741E
:1007D0000D94E4690D942FAB0D94C4A90D943D1DA7
:1007E0000D9486260D94C1010D9446C60D946E3865
:1007F0000D9468840D94C71E0D9479300D94266C69
:100800000D9492710D94F3460D944C760D9499C10C
:100810000D94D6640D9445210D94BE1F0D94F005E2
:100820000D94E9BF0D948EA70D94E9B70D94AB7D9F
:100830000D9497C10D94265B0D945D550D9486BF64
:100840000D94D1490D94CFBF0D948A6F0D94AB1EBA
:100850000D94CEC10D9407C00D9420C10D9495BF89
:100860000D941DC70D94A9C00D949E270D94681C6E
:100870000D9414220D9459BF0D943EC60D94FFABF8
:100880000D9427B70D94ED9F0D94730D0D9436C202
:100890000D94E57C0D9490BF0D94E1B70D940792F3
:1008A0000D94433F0D9418C70D94F9C80D9473BA75
:1008B0000D9463C10D94726F0D9441BF0D946F2E12
:1008C0000D94B7C70D942DBD0D9402010D9480B603
:1008D0000D94207F0D94757A0D94CABF0D94F7C7BF
:1008E0000D94BC6A0D9437BB0D944D430D9412A327
:1008F0000D94D1A50D94B90C0D945EA30D94EBB796
:100900000D9454B70D9479650D944A050D94AD7A04
:100910000D94C11E0D94C7C30D94AD840D9487B57D
:100920000D94BB220D9483BB0D9442C60D94278970
:100930000D94726A0D94F0650D945C7D0D944F7763
:100940000D9483B60D94FAB60D9488AC0D94AC6FEB
:100950000D94AEBF0D9496B40D94A4BF0D9419469A
:100960000D948EB50D9409030D949FC10D94EEBFA7
:100970000D9429730D9467C70D94B2A10D945B5922
:100980000D9470700D948BB50D949B900D948CA765
:100990000D949FBC0D946EA70D94039A0D94AEAA6E
:1009A0000D944A6F0D9473680D946A530D94560814
:1009B0000D94FD020D94C31D0D940B310D945A53EB
:1009C0000D94F6BE0D94DD6F0D94DAA90D944EC012
:1009D0000D9421030D94EDB70D94F8BF0D9407C14C
:1009E0000D9478BF0D9411030D9465960D941B031F
:1009F0000D943C080D9458310D94ADA70D94ACBBEB
:100A00000D9480A40D94E2B70D9433330D947EBA07
:100A10000D9415B70D94A4B60D94986E0D94907323
:100A20000D947AC10D94E7BB0D9455700D9424710B
:100A30000D945DBA0D94746D0D94699F0D94799227
:100A40000D94EA650D947EBF0D9476BA0D9471C035
:100A50000D94AB230D9444C50D9465660D94B66A50
:100A60000D944FA50D9496BF0D94A97E0D946079B9
:100A70000D94D82F0D94A3C00D941A0E0D94FCA4C0
:100A80000D94FC540D9453C00D94DC4C0D9403084C
:100A90000D94EB450D94A1480D94F6A40D944EAB26
:100AA0000D94FBAD0D946EB70D94E0650D94FAC0F6
:100AB0000D949BBD0D948A1F0D9424250D9416C092
:100AC0000D94D3A50D9492530D94AD030D9420A5D0
:100AD0000D94F1090D9448700D94EBC30D94E884C6
:100AE0000D94EBC60D940DC50D94DEB70D94815396
:100AF0000D944FC60D94A5840D94E87D0D949A072E
:100B00000D945CB60D9480C00D94D2390D9497ABC2
:100B10000D94CA340D941CC70D94011C0D943E789D
:100B20000D94CE5A0D94D0020D944D200D941309BE
:100B30000D942ABD0D94E7B70D9456C70D947329F3
:100B40000D9407030D94A4070D94BEA90D941BC02A
:100B50000D94C45E0D94E3010D945E310D94CA07AB
:100B60000D94CA020D942ABC0D946E090D94317D2A
:100B70000D94A4130D94EDA00D946C640D94E902F2
:100B80000D943F210D94C7430D94EE7D0D94D678BE
:100B90000D9475C30D94C8530D9403BE0D94A71BFB
:100BA0000D94C6BF0D943A240D9411C00D944DA61A
:100BB0000D947C080D943CBF0D9432BF0D9440B74A
:100BC0000D948D3A0D9411300D9452BA0D947DBB55
:100BD0000D9453200D94A3A20D940FA00D94B8A9C9
:100BE0000D9459A70D949A530D94352E0D94B17D03
:100BF0000D940CC00D9491070D94AEBD0D9462C080
:100C00000D94C26F0D94DF7C0D9425460D948CBF1E
:100C10000D943A100D944DB00D94A2C00D94CEC415
:100C20000D9486C00D9442A60D94402A0D941E7119
:100C30000D94B8BF0D944E080D94FA020D94C7A4FC
:100C40000D9409460D942C6C0D9440480D9443C7A7
:100C50000D9494BA0D94AD530D9441C20D94F27C51
:100C60000D943CC10D945BC50D94A0BF0D94363519
:100C70000D941BC30D94C0BF0D9462220D94C5C684
:100C80000D94D1C40D9442570D94E5620D941D4608
:100C90000D94937D0D94E8A70D9447230D945AB8B5
:100CA0000D94866D0D94567D0D94CA500D940103DC
:100CB0000D940CA30D9487C40D94C9190D94FBC019
:100CC0000D9477840D9491B70D94D6B90D94DE6987
:100CD0000D94D8B70D94B5C60D9421C00D94A02FD6
:100CE0000D9466060D9405030D94CCA90D9449C28C
:100CF0000D94287D0D9482BF0D94F6050D947A75A0
:100D00000D9478A40D9494070D9468090D94C7B3BD
:100D10000D94A8760D9405310D94CA450D9484B6B2
:100D20000D9456BA0D94EA6C0D9449C60D94A70320
:100D30000D948E8B0D94F3BF0D94F87C0D9454A7F5
:100D40000D94CB4D0D9408B30D941C440D94786C08
:100D50000D94C5C70D94ABA70D94F2C50D94F80A78
:100D60000D941B700D9402700D9400740D945CBF73
:100D70000D9497070D94E3420D94C6B20D94AF0BFA
:100D80000D944BBF0D94AABF0D9471020D94F4A461
:100D90000D943B640D945F6B0D94BBBD0D94A37DCE
:100DA0000D946DB30D94E1BB0D9484BA0D94E022C3
:100DB0000D9427BD0D9403030D943D530D94EE5BEC
:100DC0000D9447A60D94EAB70D943EB60D9479683C
:100DD0000D947BC30D94596B0D94223D0D941638E0
:100DE0000D940C730D9424BC0D944F670D94E1B6D3
:100DF0000D942B640D94FDC70D9429A40D94FB2133
:100E00000D9466BF0D9448080D9411460D94E4B7F7
:100E10000D9472A40D9458520D947AB30D94EEBCB7
:100E20000D94D9B70D946ABF0D94F5350D94B2BBEE
:100E30000D94CCC10D944B130D9449C00D9437BE45
:100E40000D948E810D9429510D94F1C30D94EE846F
:100E50000D94D4C60D94FDC40D9458C00D94D4A91E
:100E60000D947CBD0D940AAF0D94447B0D941546F2
:100E70000D947EC70D9459840D940E7F0D94E379E3
:100E80000D9435420D9457490D9470BF0D944FB693
:100E9000536574207468726F74746C6520257500D6
:100EA0005365742067726F756E6473706565642036
:100EB00025750053657420616972737065656420DF
:100EC0002575206D2F7300526573657474696E67A4
:100ED00020707265765F5750005365742066656EAA
:100EE000636520656E61626C65642073746174650E
:100EF00020746F20257500556E61626C6520746FDB
:100F0000207365742066656E636520656E61626C32
:100F1000656420737461746520746F2025750053B7
:100F2000657420696E766572746564202575004568
:100F30007865637574696E6720636F6D6D616E644B
:100F40002049442023256900457865637574696EDE
:100F500067206E617620636F6D6D616E6420494419
:100F6000202325690052657475726E696E6720745E
:100F70006F20486F6D65004D6F64652825752900E9
:100F800054616B656F666600477569646564004C03
:100F90006F697465720052544C004155544F0043C0
:100FA0005255495345004642575F42004155544F00
:100FB00054554E45004642575F41004143524F0051
:100FC000547261696E696E670053746162696C691D
:100FD0007A6500436972636C65004D616E75616C82
:100FE0000041504D2032000A41726475506C616EB0
:100FF000652056332E322E310A46726565205241E5
:101000004D3A2025750A00626164206C6F67206E7E
:10101000756D6265720A0064756D70696E67206136
:101020006C6C0A00656E61626C6500534F4E4152F4
:101030000052430043414D45524100544543530043
:10104000434F4D504153530043555252454E540067
:10105000434D4400494D55004D4F4445004E5455B5
:101060004E004354554E00504D00475053004154DC
:101070005449545544455F4D4544004154544954E6
:101080005544455F4641535400616C6C006D697373
:1010900073696E67206C6F6720747970650A002031
:1010A000255300534F4E4152002025530052430018
:1010B0002025530043414D45524100202553005403
:1010C0004543530020255300434F4D504153530097
:1010D0002025530043555252454E540020255300BD
:1010E000434D440020255300494D55002025530011
:1010F0004D4F444500202553004E54554E002025A9
:1011000053004354554E0020255300504D002025D8
:10111000530047505300202553004154544954551F
:1011200044455F4D454400202553004154544954E3
:101130005544455F46415354006E6F6E65006C6FB9
:10114000677320656E61626C65643A20004C6F774E
:10115000204261747465727920252E3266562055BE
:1011600073656420252E3066206D416800666169D4
:101170006C656420746F207365742072616C6C7987
:1011800020706F696E74006261642072616C6C79AA
:1011900020706F696E7420696E64657800626164A6
:1011A0002072616C6C7920706F696E74206D65734C
:1011B0007361676520636F756E740062616420728D
:1011C000616C6C7920706F696E74206D65737361EA
:1011D0006765204944006261642066656E6365202E
:1011E000706F696E74006261642066656E6365206D
:1011F000706F696E740066656E63696E67206D75E9
:1012000073742062652064697361626C6564004177
:10121000726475506C616E652056332E322E31002B
:1012200052656A656374656420676F2061726F75CB
:101230006E6420636F6D6D616E642E00476F206178
:10124000726F756E6420636F6D6D616E6420616393
:101250006365707465642E00556E737570706F727F
:1012600074656420707265666C6967687420636178
:101270006C6962726174696F6E00636F6D6D616E2F
:10128000642072656365697665643A200044656D23
:101290006F20536572766F7321007A65726F2061DB
:1012A000697273706565642063616C6962726174F0
:1012B0006564006261726F6D657465722063616C54
:1012C0006962726174696F6E20636F6D706C6574B2
:1012D000650043616C6962726174696E6720626166
:1012E000726F6D65746572004E4F20616972737024
:1012F00065656400426567696E6E696E6720494E78
:10130000532063616C6962726174696F6E3B206423
:101310006F206E6F74206D6F766520706C616E65E6
:10132000000A0A20526561647920746F20464C5986
:101330002E003C737461727475705F67726F756EA6
:10134000643E2047524F554E44205354415254005E
:101350004C6F6720657261736520636F6D706C659B
:1013600074650045726173696E67206C6F67730006
:101370006C6F61645F616C6C20746F6F6B20256CA7
:101380007575730A00646F6E652E004669726D771D
:10139000617265206368616E67653A20657261738A
:1013A000696E6720454550524F4D2E2E2E0A004241
:1013B000616420706172616D657465722074616230
:1013C0006C650042616420706172616D6574657264
:1013D000207461626C650A00496E697469616C69A8
:1013E00073696E672041504D2E2E2E000A50726593
:1013F000737320454E54455220332074696D6573D4
:1014000020746F20737461727420696E74657261E8
:1014100063746976652073657475700A00436F6D37
:101420007061737320696E697469616C697361744A
:10143000696F6E206661696C656421004552415395
:10144000494E47204C4F4753004E6F2064617461F2
:10145000666C617368206361726420696E73657283
:10146000746564000A0A496E69742041726475509B
:101470006C616E652056332E322E310A0A46726533
:10148000652052414D3A2025750A004D53472046AC
:1014900053204F4646202575004D53472046532084
:1014A0004F4E202575004661696C73616665202D7D
:1014B0002053686F7274206576656E74206F66665F
:1014C00000666C69676874206D6F6465203D202537
:1014D00075004661696C73616665202D2053686FE5
:1014E0007274206576656E74206F6E2C2000464203
:1014F0005741207464726167206D6F64650A00460D
:10150000425741207464726167206F6666005472AE
:1015100069676765726564204155544F2C204750B8
:1015200053737064203D20252E3166004261642093
:101530004C61756E6368204155544F0054696D6568
:101540006F7574204155544F0041726D65642041A0
:1015500055544F2C2078616363656C203D20252E07
:101560003166206D2F732F732C2077616974696E3B
:101570006720252E3166207365630054696D65729E
:1015800020496E746572727570746564204155549B
:101590004F0067707320616C743A20256C75006988
:1015A0006E697420686F6D6500556E61626C6520B0
:1015B000746F207374617274206C616E64696E67FD
:1015C0002073657175656E63652E004C616E64698C
:1015D0006E672073657175656E63652062656775FA
:1015E0006E2E005265616368656420686F6D6500EA
:1015F0007665726966795F6E61763A204C4F495420
:1016000045522074696D6520636F6D706C657465FB
:10161000007665726966795F6E61763A204C4F4953
:10162000544552206F726269747320636F6D706CE1
:101630006574650050617373656420576179706FDC
:10164000696E742023256920646973742025756D83
:10165000005265616368656420576179706F696ED7
:10166000742023256920646973742025756D0046F4
:101670006C61726520252E31666D2073696E6B3D3D
:10168000252E32662073706565643D252E31660017
:1016900046656E636520656E61626C65642E202808
:1016A0006175746F656E61626C65642900456E6179
:1016B000626C652066656E6365206661696C656451
:1016C000202863616E6E6F74206175746F656E6142
:1016D000626C6500486F6C64696E6720636F757239
:1016E000736520256C6420617420252E31666D2F72
:1016F000732028252E316629007665726966795F28
:10170000636F6E6469746F6E3A20496E76616C69BE
:1017100064206F72206E6F2063757272656E742024
:10172000436F6E646974696F6E20636D64007665E3
:10173000726966795F6E61763A20496E76616C698E
:1017400064206F72206E6F2063757272656E7420F4
:101750004E617620636D640067656F2D66656E630C
:1017600065207472696767657265640067656F2DCF
:1017700066656E6365204F4B0067656F2D66656E0D
:101780006365207365747570206572726F7200678F
:10179000656F2D66656E6365206C6F6164656400BE
:1017A00046656E63652064697361626C65642028B8
:1017B0006175746F64697361626C65290044697353
:1017C00061626C652066656E6365206661696C6543
:1017D0006420286175746F64697361626C652900A7
:1017E000666C69676874206D6F6465203D2025759F
:1017F000004E6F20474353206865617274626561D3
:10180000742E004661696C73616665202D204C6FF3
:101810006E67206576656E74206F6E2C2000475FC2
:1018200044745F6D61783D256C7520475F44745F3B
:101830006D696E3D256C750A0041726475506C616E
:101840006E652056332E322E3100F1000400524CCA
:101850004C325352565F500000000000000000F16F
:10186000010400524C4C325352565F4900000000B4
:1018700000000000F1020400524C4C325352565FFB
:10188000440000000000000000F1030400524C4C32
:10189000325352565F494D41580000000000F2009B
:1018A000040050544348325352565F500000000029
:1018B000000000F201040050544348325352565F76
:1018C0004900000000000000F202040050544348A8
:1018D000325352565F4400000000000000F203043F
:1018E0000050544348325352565F494D415800000E
:1018F000000086000100424154545F4D4F4E495450
:101900004F520000000000A8000100424154545F03
:10191000564F4C545F50494E00000000A900010092
:10192000424154545F435552525F50494E000000AB
:101930000087000400424154545F564F4C545F4DA1
:10194000554C5400000088000400424154545F414B
:101950004D505F504552564F4C54008F000400428A
:101960004154545F414D505F4F464653455400002B
:101970008A000300424154545F434150414349545B
:1019800059000000000B0002004C4F475F424954D1
:101990004D41534B00000000000034000400524150
:1019A0004C4C595F4C494D49545F4B4D000000EE83
:1019B00000010052414C4C595F544F54414C0000BF
:1019C000000000008059464D54000042426E4E5ABD
:1019D0000000000000000000000000547970652C39
:1019E0004C656E6774682C4E616D652C466F726D28
:1019F00061742C436F6C756D6E7300000000000005
:101A000000000000000000000000000000000000D6
:101A1000000000000000000000000081175041524B
:101A20004D004E66000000000000000000000000B5
:101A300000004E616D652C56616C756500000000FC
:101A40000000000000000000000000000000000096
:101A50000000000000000000000000000000000086
:101A60000000000000000000000000000000000076
:101A70000000822D475053000042494842634C4CBD
:101A80006565456566490000005374617475732C83
:101A900054696D654D532C5765656B2C4E536174BD
:101AA000732C48446F702C4C61742C4C6E672C5214
:101AB000656C416C742C416C742C5370642C4743DE
:101AC00072732C565A2C5400008327494D55000040
:101AD00049666666666666494900000000000000C7
:101AE00054696D654D532C477972582C477972595A
:101AF0002C4779725A2C416363582C416363592CEB
:101B00004163635A2C457272472C45727241000042
:101B100000000000000000000000000000000000C5
:101B200084434D534700005A0000000000000000AD
:101B3000000000000000004D6573736167650000E0
:101B40000000000000000000000000000000000095
:101B50000000000000000000000000000000000085
:101B60000000000000000000000000000000000075
:101B70000000000000000085235243494E004968E0
:101B80006868686868686868686868686800546950
:101B90006D654D532C43312C43322C43332C43344D
:101BA0002C43352C43362C43372C43382C43392CCB
:101BB0004331302C4331312C4331322C4331332CDF
:101BC0004331340000000000000000000000861FC8
:101BD00052434F5500496868686868686868686873
:101BE000686800000054696D654D532C4368312CC2
:101BF0004368322C4368332C4368342C4368352CBB
:101C00004368362C4368372C4368382C4368392C9A
:101C1000436831302C436831312C43683132000045
:101C2000000000000088154241524F00496666637B
:101C300066000000000000000000000054696D65AF
:101C40004D532C416C742C50726573732C54656D1C
:101C5000702C4352740000000000000000000000DF
:101C60000000000000000000000000000000000074
:101C7000000000000000000000000000A315424129
:101C800052320049666663660000000000000000F2
:101C900000000054696D654D532C416C742C5072DA
:101CA0006573732C54656D702C43527400000000F2
:101CB0000000000000000000000000000000000024
:101CC0000000000000000000000000000000000014
:101CD000000000890D504F5752004943434800000F
:101CE0000000000000000000000054696D654D53C5
:101CF0002C5663632C56536572766F2C466C616765
:101D00007300000000000000000000000000000060
:101D100000000000000000000000000000000000C3
:101D2000000000000000000000009129434D440025
:101D300000494848486666666666666600000000B8
:101D40000054696D654D532C43546F742C434E758C
:101D50006D2C4349642C50726D312C50726D322CB5
:101D600050726D332C50726D342C4C61742C4C6E4F
:101D7000672C416C740000000000000000000000AF
:101D800000921052414400004942424242424848B7
:101D9000000000000000000054696D654D532C5296
:101DA0005353492C52656D525353492C5478427504
:101DB000662C4E6F6973652C52656D4E6F69736545
:101DC0002C52784572726F72732C46697865640084
:101DD0000000000000000000941F43414D00004936
:101DE000484C4C65656363430000000000000047F9
:101DF000505354696D652C4750535765656B2C4C97
:101E000061742C4C6E672C416C742C52656C416C67
:101E1000742C526F6C6C2C50697463682C59617708
:101E2000000000000000000000000000000000A40E
:101E3000194152535000496666636666000000000F
:101E400000000000000054696D654D532C4169721B
:101E500073706565642C4469666650726573732C93
:101E600054656D702C52617750726573732C4F6698
:101E700066736574000000000000000000000000B0
:101E8000000000000000A615435552520049686842
:101E90006848666800000000000000000054696D9A
:101EA000654D532C5468726F74746C652C566F6C4E
:101EB000742C437572722C5663632C437572725482
:101EC0006F742C566F6C743200000000000000002C
:101ED00000000000000000000000000000A5174105
:101EE0005454000049636363634343434300000069
:101EF0000000000054696D654D532C446573526FAA
:101F00006C6C2C526F6C6C2C4465735069746368F4
:101F10002C50697463682C4465735961772C59613E
:101F2000772C45727252502C4572725961770000BD
:101F300000000000A7194D41470000496868686823
:101F4000686868686800000000000054696D654DAD
:101F5000532C4D6167582C4D6167592C4D61675A60
:101F60002C4F6673582C4F6673592C4F66735A2C3E
:101F70004D4F6673582C4D4F6673592C4D4F6673F9
:101F80005A00000000000000000000AA094D4F4464
:101F90004500494D42000000000000000000000024
:101FA000000054696D654D532C4D6F64652C4D6F69
:101FB00064654E756D000000000000000000000028
:101FC0000000000000000000000000000000000011
:101FD0000000000000000000000000000000000001
:101FE00000000216504D00000049484968686842E8
:101FF0004800000000000000004C54696D652C4D45
:102000004C432C6744742C4744782C4744792C4724
:10201000447A2C4932434572722C494E53457272B0
:1020200000000000000000000000000000000000B0
:102030000000000000000000000506535452540048
:102040004248000000000000000000000000000006
:1020500053547970652C43546F74000000000000E5
:102060000000000000000000000000000000000070
:102070000000000000000000000000000000000060
:102080000000000000000000000000000000000050
:1020900000174354554E00496363636368686600E4
:1020A0000000000000000054696D654D532C4E6126
:1020B00076526F6C6C2C526F6C6C2C4E6176506942
:1020C0007463682C50697463682C5468724F75741B
:1020D0002C5264724F75742C4163635900000000E8
:1020E00000000000000000011D4E54554E00494301
:1020F0006663636363664900000000000000546982
:102100006D654D532C5961772C5770446973742C4D
:10211000546172674272672C4E61764272672C413D
:102120006C744572722C41727370642C416C742C07
:1021300047537064434D00000000000000000E1D76
:10214000534F4E5200496666666642426600000082
:10215000000000000054696D654D532C4469737490
:10216000434D2C566F6C742C4261726F416C742C11
:10217000475370642C5468722C436E742C436F72F6
:1021800072000000000000000000000000000000DD
:102190000000000000100A41524D00004948420072
:1021A00000000000000000000000000054696D65A0
:1021B0004D532C41726D53746174652C41726D43A3
:1021C0006865636B73000000000000000000000001
:1021D00000000000000000000000000000000000FF
:1021E00000000000000000000000000093174154B0
:1021F00052500049424263666666000000000000DB
:1022000000000054696D654D532C547970652C5352
:10221000746174652C536572766F2C44656D616EC4
:102220006465642C41636869657665642C500000C0
:10223000000000000000000000000000000000009E
:102240000000000C375445435300496666666666D5
:102250006666666666666600000054696D654D5385
:102260002C682C64682C685F64656D2C64685F64FE
:10227000656D2C73705F64656D2C73702C64737066
:102280002C6974682C6970682C74682C70682C64D4
:1022900073705F64656D000000004C6F67006475CB
:1022A0006D70000000000000000000006E2F6572DD
:1022B0006173650000000000000000009334656E4B
:1022C00061626C650000000000000000B9496469AB
:1022D0007361626C6500000000000000B949FE6691
:1022E0000100BC02878B0100E803033901000019DB
:1022F000BF40010040068B6E010078051F500100B1
:10230000AC0D3C6001004006996D0700E8031134F4
:102310000100E8034D370100C4093D7E0500C409F2
:10232000C8840500B80B81570500B004ED350500E1
:10233000B004586D0500480D43550500E803162FFD
:102340000500E803A3350100A4063C5F0100B80BBB
:102350009E350100DC05284505002C015C8C05003C
:10236000E80395350100DC059035010084038B35C9
:1023700001002C016E5B0100F4012B353200E803F3
:1023800002870F00E803E1440500E8034C473200F0
:10239000E803F0330100DC05007DF401E803E733D6
:1023A000B80BC40956570500A40699320500A406C7
:1023B000172F0500F40102464F524D41545F564518
:1023C0005253494F4E00000000311200000000013E
:1023D00053595349445F53575F54595045000000C7
:1023E00000013312000000000253595349445F5466
:1023F0004849534D415600000000703412000080DF
:102400003F0253595349445F4D594743530000001D
:1024100000000071361200007F43025345524941CB
:102420004C305F4241554400000000003F3812002C
:1024300000E6420253455249414C315F4241554406
:102440000000000000403A1200006442014155546F
:102450004F54554E455F4C4556454C0000003D2EAF
:10246000140000C0400154454C454D5F44454C416B
:1024700059000000000000733C1200000000044BF3
:1024800046465F524444524D495800000000000047
:10249000C93E120000003F044B46465F544852328A
:1024A000505443480000000000CB461200000000DA
:1024B00004535441425F50495443485F444F574E80
:1024C00000004C50120000004002474C4944455F58
:1024D000534C4F50455F4D494E00004BF2120000E7
:1024E000704101535449434B5F4D4958494E470091
:1024F0000000000019DA120000803F01534B4950E0
:102500005F4759524F5F43414C000000002F5A1261
:1025100000000000014155544F5F4642575F53543D
:10252000454552000000305B120000000004544B8F
:102530004F46465F5448525F4D494E535044002227
:10254000DB120000000004544B4F46465F544852D3
:102550005F4D494E4143430023DF1200000000015C
:10256000544B4F46465F5448525F44454C415900D6
:10257000002EE3120000004001544B4F46465F54CA
:10258000445241475F454C45560042E4120000006A
:102590000004544B4F46465F54445241475F5350EA
:1025A00044310043E5120000000004544B4F4646FE
:1025B0005F524F544154455F5350440044E9120068
:1025C00000000001544B4F46465F5448525F534C45
:1025D000455700000045ED120000000001544B4F2C
:1025E00046465F464C41505F50434E54000051D325
:1025F000120000000001464257415F5444524147D7
:102600005F4348414E00004EF41200000000014CB0
:102610004556454C5F524F4C4C5F4C494D49540018
:1026200025EF120000A040024C414E445F50495437
:1026300043485F434400000000172F1400000000CF
:10264000044C414E445F464C4152455F414C54005E
:1026500000001BBD1200004040044C414E445F4648
:102660004C4152455F5345430000001CC11200001D
:102670000040014E41565F434F4E54524F4C4C4523
:10268000520000002858120000803F04414C545F63
:102690004D495800000000000000000000835C125B
:1026A0000000803F01414C545F4354524C5F414C09
:1026B0004700000000007C60120000000002414C56
:1026C000545F4F4646534554000000000000002070
:1026D0009B12000000000257505F5241444955537D
:1026E0000000000000000000DF62120000B442029F
:1026F00057505F4D41585F524144495553000000C7
:1027000000316412000000000257505F4C4F4954E2
:1027100045525F52414400000000E0661200007024
:10272000420146454E43455F414354494F4E0000E8
:10273000000000E16812000000000146454E4345DC
:102740005F544F54414C000000000000E269120049
:102750000000000146454E43455F4348414E4E450B
:102760004C00000000E36A12000000000246454EE3
:1027700043455F4D494E414C540000000000E46B5E
:1027800012000000000246454E43455F4D4158414E
:102790004C540000000000E56D12000000000246ED
:1027A000454E43455F524554414C540000000000E3
:1027B000696F12000000000146454E43455F4155D8
:1027C000544F454E41424C45006A711200000000D2
:1027D0000146454E43455F5245545F52414C4C596A
:1027E00000006B721200000000015354414C4C5F1A
:1027F00050524556454E54494F4E00553114000035
:10280000803F0241525350445F4642575F4D494E0C
:10281000000000007826140000104102415253507D
:10282000445F4642575F4D4158000000007928142C
:102830000000B04101464257425F454C45565F5249
:102840004556000000007B73120000000001464264
:1028500057425F434C494D425F5241544500007D11
:10286000741200000040015448525F4D494E000070
:102870000000000000000000B5221400000000016C
:102880005448525F4D415800000000000000000015
:1028900000B623140000964201544B4F46465F5445
:1028A00048525F4D41580000000046EE1200000003
:1028B00000015448525F534C455752415445000063
:1028C000000000BD24140000C84201464C41505F86
:1028D000534C4557524154450000000052F6120037
:1028E000009642015448525F535550505F4D414E3F
:1028F0000000000000BE75120000000001544852A4
:102900005F504153535F5354414200000000BF7673
:102910001200000000015448525F4641494C5341A7
:1029200046450000000000B777120000803F0254C7
:1029300048525F46535F56414C5545000000000029
:10294000B8781200806D44015452494D5F5448528A
:102950004F54544C4500000000B925140000344287
:10296000015448524F54544C455F4E55444745001E
:1029700000001F7A120000803F0146535F53484F0A
:1029800052545F4143544E00000000BA7B120000D5
:1029900000000446535F53484F52545F54494D451D
:1029A0004F555400C37D120000C03F0146535F4C99
:1029B0004F4E475F4143544E0000000000BB7C1265
:1029C000000000000446535F4C4F4E475F54494D92
:1029D000454F55540000C481120000A041044653E5
:1029E0005F424154545F564F4C544147450000C12B
:1029F0008612000000000446535F424154545F4D6C
:102A00004148000000000000C28A120000000001DE
:102A100046535F4743535F454E41424C0000000020
:102A200000BC8512000000000254414B454F464651
:102A30004D4F4445504954434800D18E1200007A0E
:102A40004401464C544D4F44453100000000000005
:102A5000000000D290120000304101464C544D4F0E
:102A6000444532000000000000000000D391120035
:102A700000304101464C544D4F44453300000000A6
:102A80000000000000D492120000A04001464C5407
:102A90004D4F444534000000000000000000D59375
:102AA000120000A04001464C544D4F4445350000F3
:102AB00000000000000000D6941200000000014653
:102AC0004C544D4F4445360000000000000000000B
:102AD000D795120000000001464C544D4F44453735
:102AE000000000000000000000D896120000000066
:102AF00001464C544D4F4445380000000000000092
:102B00000000D997120000000001464C544D4F447C
:102B10004539000000000000000000DA98120000B3
:102B20000000024C494D5F524F4C4C5F4344000043
:102B30000000000098991200A08C45024C494D5F9E
:102B400050495443485F4D415800000000992A14F1
:102B50000000FA44024C494D5F50495443485F4DD0
:102B6000494E000000009A2C1400401CC50241434D
:102B7000524F5F524F4C4C5F524154450000007E13
:102B80009D1200003443024143524F5F5049544369
:102B9000485F5241544500007F9F120000344301BA
:102BA0004143524F5F4C4F434B494E47000000009A
:102BB0000080A112000000000447524F554E445FB0
:102BC00053544545525F414C5400324A12000000B4
:102BD000000247524F554E445F53544545525F449F
:102BE000505300334E120000B442015452494D5F1D
:102BF0004155544F00000000000000000AA21200DE
:102C000000000001454C45564F4E5F4D4958494E16
:102C100047000000000DA3120000000001454C45D4
:102C2000564F4E5F524556455253450000000EAA7E
:102C3000120000000001454C45564F4E5F4348319D
:102C40005F5245560000000FAB1200000000014526
:102C50004C45564F4E5F4348325F52455600000088
:102C600010AC120000000001565441494C5F4F5512
:102C700054505554000000000027A412000000002A
:102C800001454C45564F4E5F4F555450555400002A
:102C9000000029A51200000000044D4958494E4784
:102CA0005F4741494E0000000000002BA6120000C3
:102CB000003F025359535F4E554D5F5245534554A3
:102CC0005300000002AD1200000000034C4F475FAC
:102CD0004249544D41534B00000000000037AF12F1
:102CE00000F87D46015253545F5357495443485F9F
:102CF00043480000000015B31200000000015253C9
:102D0000545F4D495353494F4E5F43480000001AEA
:102D1000B41200000000035452494D5F4152535019
:102D2000445F434D000000009BB512000096440430
:102D30005343414C494E475F5350454544000000C2
:102D400000CC541200007041034D494E5F474E4481
:102D50005350445F434D000000009EC51200000028
:102D600000025452494D5F50495443485F43440068
:102D70000000000CC9120000000003414C545F48E1
:102D80004F4C445F52544C00000000009CB91200AC
:102D9000401C4602414C545F484F4C445F464257EA
:102DA000434D0000007ACB1200000000014D414766
:102DB0005F454E41424C450000000000000084CDBC
:102DC000120000803F01464C41505F494E5F43482E
:102DD000414E4E454C00003AF01200000000014602
:102DE0004C415045524F4E5F4F5554505554000082
:102DF0003BF1120000000001464C41505F315F5032
:102E00004552434E540000000011CE120000000055
:102E100001464C41505F315F53504545440000002E
:102E2000000012CF120000000001464C41505F32FA
:102E30005F504552434E540000000013D012000072
:102E4000000001464C41505F325F535045454400FD
:102E50000000000014D11200000000014C414E445B
:102E60005F464C41505F504552434E540050D21281
:102E70000000000001525353495F50494E000000CA
:102E8000000000000000A7D412000080BF045253CD
:102E900053495F52414E4745000000000000003991
:102EA000D5120000A04001494E56455254454446B3
:102EB0004C545F43480000009DD9120000000001FF
:102EC00052544C5F4155544F4C414E440000000059
:102ED00000533D120000000008474E445F00000010
:102EE000000000000000000000008D0611A4380062
:102EF00000084750535F0000000000000000000081
:102F00000000003C75113F3500000843414D5F0053
:102F1000000000000000000000000000A0DB0835F9
:102F20004200000841524D494E475F00000000003A
:102F30000000000000644406AA5A00000852454CF4
:102F400041595F00000000000000000000002D0754
:102F5000099F41000008524E47464E4400000000C1
:102F600000000000000000471609923F00000152D7
:102F70004E47464E445F4C414E44494E4700000088
:102F80004FF51200000000085243315F00000000BE
:102F9000000000000000000000AAF712B13E00008F
:102FA000085243325F0000000000000000000000F3
:102FB0000000AB1413B13E0000085243335F000021
:102FC0000000000000000000000000AC3113B13E22
:102FD0000000085243345F000000000000000000C1
:102FE00000000000AD4E13B13E0000085243355FB3
:102FF00000000000000000000000000000AE6B13A5
:10300000473F0000085243365F0000000000000008
:10301000000000000000AF8913473F000008524342
:10302000375F00000000000000000000000000B05A
:10303000A713473F0000085243385F00000000001C
:103040000000000000000000B1C513473F00000869
:10305000524331305F00000000000000000000001B
:1030600000B3E313473F000008524331315F0000D3
:1030700000000000000000000000B40114473F0001
:103080000008524C4C325352565F000000000000C2
:10309000000000E8E20B5545000008505443483258
:1030A0005352565F0000000000000000E9680B74F6
:1030B00044000008594157325352565F0000000047
:1030C0000000000000EA360BB346000008535445E8
:1030D0004552325352565F00000000000000EF12CC
:1030E0000B0446000008434F4D504153535F00000E
:1030F00000000000000000851E10033A0000085385
:10310000434845445F00000000000000000000004C
:103110002C1C12FD5300000852434D41505F00002B
:10312000000000000000000000EC18127A540000BB
:10313000085352305F000000000000000000000053
:1031400000006E4F0975320000085352315F0000D5
:1031500000000000000000000000006F2C0A753223
:10316000000008494E535F0000000000000000000E
:103170000000000021B80F6D3C0000084148525388
:103180005F0000000000000000000000008CE40D63
:10319000B73D00000841525350445F00000000005A
:1031A0000000000000008EA807E5420000084E4124
:1031B000564C315F0000000000000000000000EBF2
:1031C000BA0D2F54000008544543535F000000001F
:1031D0000000000000000000ED560CF7540000084D
:1031E0004D4E545F00000000000000000000000091
:1031F00000A154067A4800000842415454000000DF
:1032000000000000000000000000A62F084F57003B
:1032100000084252445F000000000000000000006F
:103220000000003817120E5B0000084D49535F0084
:1032300000000000000000000000000091440704AE
:103240005700000852414C4C595F0000000000003C
:1032500000000000003EB208275B000000000000F4
:10326000000000000000000000000000000000005E
:10327000000000000002005241575F53454E5300CA
:10328000000000000000000066000000803F020116
:103290004558545F535441540000000000000000A2
:1032A0000068000000803F020252435F4348414EE5
:1032B000000000000000000000006A000000803FE5
:1032C00002035241575F4354524C0000000000007B
:1032D0000000006C000000803F0204504F5349542E
:1032E000494F4E0000000000000000006E0000008A
:1032F000803F020545585452413100000000000053
:10330000000000000070000000803F020645585495
:103310005241320000000000000000000000720076
:103320000000803F0207455854524133000000001E
:103330000000000000000074000000803F02085000
:103340004152414D53000000000000000000000009
:1033500076000000204100FF000000000000000097
:103360000000000000000000000000000000002C31
:1033700076D888674F0823C1DFAE59B1B796E5E428
:1033800053C63A51997696E6C28426898C9B624050
:103390007C6FFCBC9C9F40BAA56FA590055A2A5C27
:1033A000936B6C676DC11BE0E40D47F520E6B5D06B
:1033B000ED902E009435770080841E0000204E0092
:1033C0000000C833333333986E128341EF8D218967
:1033D0003BE655CFFEE6DBD1844B38F77C1D90A44D
:1033E000BBE4243284725E8100C9F1ECA1E53DDCCE
:1033F000DFE1E3E6E8EBEDEFF2F4F7F9FCFE0003C2
:1034000005080A0C0F111416181B1D202224276E04
:10341000616E00696E660042616420636F6E76655E
:103420007273696F6E207479706520272553270A9F
:1034300000556E6B6E6F776E20636F6E766572737C
:10344000696F6E20272553270A0025733A202566C9
:103450000A0025733A20256C640A0025733A20255A
:10346000640A0025733A2025640A00454550524FEE
:103470004D2066756C6C0000000000000603000023
:103480000676090200760F5A000100D00F300000C6
:10349000000000000503000005CA090200CA0E96DC
:1034A000000100600FA000204E4D45412000205338
:1034B0004952462000204D544B2000204D544B31A2
:1034C0003920002075626C6F782000B56206010318
:1034D00000010601124F24505542582C34312C3132
:1034E0002C303030332C303030312C3338343030D5
:1034F0002C302A32360D0A245047434D442C3136A5
:103500002C302C302C302C302C302A36410D0A2413
:10351000505352463130302C302C33383430302C2C
:10352000382C312C302A33430D0A00C01200000021
:1035300096000000C2010000E100008025000001AB
:103540000054595045000000000000000000000039
:10355000000002000000803F01024E415646494CE7
:10356000544552000000000000000003000000006D
:10357000410105534241535F4D4F44450000000057
:103580000000000004000000004001064D494E5FAD
:10359000454C4556000000000000000000050000FA
:1035A00000C8C200FF000000000000000000000092
:1035B00000000000000000000000000024504D54F6
:1035C0004B3232302C3230302A32430D0A24504DE7
:1035D000544B3331332C312A32450D0A24504D548B
:1035E0004B3330312C322A32450D0A24504D544B86
:1035F0003339372C302A32330D0A0047505654479E
:10360000004750474741004750524D430024505314
:1036100052463130332C302C302C312C312A32357B
:103620000D0A24505352463130332C312C302C307B
:103630002C312A32350D0A24505352463130332C66
:10364000322C302C302C312A32360D0A2450535271
:10365000463130332C332C302C302C312A32370D7C
:103660000A24505352463130332C342C302C312C18
:10367000312A32300D0A24505352463130332C3522
:103680002C302C312C312A32300D0A245053524622
:103690003130332C362C302C302C312A32320D0A7A
:1036A00024505352463130332C382C302C302C31AE
:1036B0002A32430D0A24505352463135312C312AD7
:1036C00033460D0A24505352463130362C32312ABB
:1036D00030460D0A24504D544B3331342C302C30AD
:1036E0002C312C312C302C302C302C302C302C30F8
:1036F0002C302C302C302C302C302C302C302A32EA
:10370000380D0A24504D544B3333302C302A324577
:103710000D0A24504D544B3331332C312A32450D90
:103720000A24504D544B3330312C322A32450D0A85
:1037300024505542582C34302C6767612C302C3182
:103740002C302C302C302C302A37420D0A24505586
:1037500042582C34302C7674672C302C312C302C81
:10376000302C302C302A37460D0A24505542582C24
:1037700034302C726D632C302C302C302C302C30AB
:103780002C302A36370D0A00A0A20008A60200003D
:103790000000000000A8B0B3A0A20008A600290104
:1037A0000000000000D0B0B3546F6F206D616E79DF
:1037B000206261726F6D6574657273004261726F31
:1037C0003A20756E61626C6520746F20696E697451
:1037D00069616C6973652064726976657200415035
:1037E0005F4261726F3A20616C6C2073656E736F1B
:1037F000727320756E63616C6962726174656400D6
:1038000050414E49433A2041505F4261726F3A3A0B
:103810007265616420756E73756363657373667535
:103820006C20666F72206D6F7265207468616E2007
:103830003530306D7320696E2041505F4261726F88
:103840003A3A63616C696272617465205B335D0D45
:103850000A0050414E49433A2041505F4261726F25
:103860003A3A7265616420756E737563636573734C
:1038700066756C20666F72206D6F7265207468616A
:103880006E203530306D7320696E2041505F42618B
:10389000726F3A3A63616C696272617465205B327F
:1038A0005D0D0A0004024142535F505245535300DC
:1038B000000000000000001A000000000004035493
:1038C000454D500000000000000000000000000016
:1038D0001600000000000104414C545F4F4646535F
:1038E0004554000000000000001E00000000000021
:1038F000FF000000000000000000000000000000C9
:103900000000000000000000426164204352432098
:103910006F6E204D53353631310050414E49433A98
:103920002041505F4261726F5F4D53353631313AFD
:10393000206661696C656420746F2074616B65201A
:1039400073657269616C2073656D6170686F726513
:1039500020666F7220696E69740041505F53657212
:1039600069616C4275735F49324320646964206EFB
:103970006F74206765742076616C696420493243F6
:103980002073656D6170686F7265210041505F53EF
:10399000657269616C4275735F5350492064696454
:1039A000206E6F74206765742076616C69642053A3
:1039B00050492073656D617068726F65210064699C
:1039C00064206E6F74206765742076616C69642072
:1039D0005350492064657669636520647269766531
:1039E0007221004661696C656420746F206765749C
:1039F00020484D43353834332073656D6170686FEE
:103A000072650005014F46530000000000000000F1
:103A10000000000000001700000000000402444500
:103A20004300000000000000000000000000002330
:103A3000000000000001034C4541524E0000000010
:103A4000000000000000000008000000803F0104AA
:103A50005553450000000000000000000000000079
:103A60000027000000803F01054155544F44454365
:103A70000000000000000000000028000000803F5F
:103A800001064D4F544354000000000000000000A8
:103A9000000000A4000000000005074D4F54000086
:103AA000000000000000000000000000A500000071
:103AB000000001084F5249454E540000000000002C
:103AC00000000000001600000000000109455854E5
:103AD00045524E414C00000000000000000029004B
:103AE0000000000000FF00000000000000000000D7
:103AF00000000000000000000000000000256C64D1
:103B00002E2530376C64002D006779726F5B257548
:103B10005D20646964206E6F7420636F6E766572D9
:103B200067653A20646966663D2566206470730A9D
:103B3000002A00496E6974204779726F0020002ABC
:103B400000496E697420416363656C0043616C6970
:103B500062726174696F6E204641494C45440A00A7
:103B600043616C6962726174696F6E20737563631F
:103B700065737366756C0A005363616C696E675B8D
:103B800025755D3A20252E326620252E32662025A9
:103B90002E32660A004F6666736574735B25755D29
:103BA0003A20252E326620252E326620252E3266BA
:103BB0000A00506C6163652076656869636C6520F6
:103BC000255320616E6420707265737320616E7975
:103BD000206B65792E0A006F6E2069747320424154
:103BE000434B006E6F7365205550006E6F736520F8
:103BF000444F574E006F6E206974732052494748F6
:103C0000542073696465006F6E20697473204C459D
:103C100046542073696465006C6576656C004E6F70
:103C200020494E53206261636B656E647320617638
:103C300061696C61626C6500546F6F206D616E79B3
:103C400020494E53206261636B656E647300546F4C
:103C50006F206D616E7920616363656C7300546FD2
:103C60006F206D616E79206779726F73000200506A
:103C7000524F445543545F49440000000000000087
:103C80001F000000000005014143435343414C0025
:103C900000000000000000000021000000000005FE
:103CA000024143434F46465300000000000000001D
:103CB00000002D000000000005034759524F464602
:103CC0005300000000000000000000390000000068
:103CD0000001044D5055364B5F46494C5445520047
:103CE0000000000045000000000000FF0000000090
:103CF00000000000000000000000000000000000C4
:103D00000000004661696C656420746F20626F6F0B
:103D100074204D50553630303020352074696D6533
:103D200073004D5055363030303A20556E61626C1C
:103D30006520746F206765742073656D6170686FAE
:103D400072650056616C75657320646F65736E27CC
:103D500074206D617463683B207772697474656E5A
:103D60003A20253032783B20726561643A20253054
:103D7000327820006661696C656420746F20626F20
:103D80006F74204D50553630303020352074696DB9
:103D900065730054696D6564206F7574207761697F
:103DA00074696E6720666F72207573657220726524
:103DB00073706F6E73650004024750535F4741494B
:103DC0004E00000000000000000022000000803FC4
:103DD00001034750535F55534500000000000000A9
:103DE0000000002C000000803F04045941575F5040
:103DF0000000000000000000000000001A00CDCC10
:103E00004C3E040552505F500000000000000000CE
:103E100000000000001E00CDCC4C3E010657494E6C
:103E2000445F4D41580000000000000000002D00DC
:103E30000000000005085452494D00000000000039
:103E40000000000000000043000000000001094FD6
:103E50005249454E544154494F4E00000000000065
:103E60002E0000000000040A434F4D505F424554AD
:103E70004100000000000000002800CDCCCC3D0136
:103E80000B4750535F4D494E5341545300000000BF
:103E900000002F000000C04000FF000000000000F4
:103EA0000000000000000000000000000000000012
:103EB0000002004D494E000000000000000000001C
:103EC000000000000A000080894402015452494D5C
:103ED000000000000000000000000000000C0000D6
:103EE00080BB4402024D4158000000000000000069
:103EF0000000000000000E000080ED440103524568
:103F0000560000000000000000000000000000104B
:103F1000000000803F0205445A000000000000003D
:103F2000000000000000000011000000000000FF81
:103F30000000000000000000000000000000000081
:103F40000000000000000008000000000000000069
:103F5000000000000000000000000000B13E000072
:103F6000010146554E4354494F4E000000000000E9
:103F70000000001D000000000000FF000000000025
:103F80000000000000000000000000000000000031
:103F9000000001005F54595045000000000000007F
:103FA000000000000000000000000001015F504917
:103FB0004E000000000000000000000000000200B1
:103FC000000080BF04025F5343414C494E4700004C
:103FD000000000000000000C000000404004035FEF
:103FE0004F4646534554000000000000000000000A
:103FF00014000000000001045F46554E4354494F31
:104000004E00000000000000001C00000000000244
:10401000055F4D494E5F434D000000000000000069
:1040200000001E000000A04102065F4D41585F43A2
:104030004D00000000000000000000220000002FE2
:104040004401075F53544F505F50494E0000000039
:10405000000000000600000080BF02085F534554C6
:10406000544C450000000000000000000008000063
:1040700000000001095F524D4554524943000000C1
:1040800000000000000004000000803F010C325FCF
:1040900054595045000000000000000000000001DD
:1040A0000000000000010D325F50494E000000008A
:1040B00000000000000000000300000080BF040EAC
:1040C000325F5343414C494E47000000000000005E
:1040D00000100000004040040F325F4F4646534539
:1040E0005400000000000000000018000000000064
:1040F0000110325F46554E4354494F4E00000000B8
:104100000000001D00000000000211325F4D494E0A
:104110005F434D0000000000000000002000000090
:10412000A0410212325F4D41585F434D0000000034
:104130000000000000240000002F440113325F53F0
:10414000544F505F50494E0000000000000007002F
:10415000000080BF0214325F534554544C450000A8
:10416000000000000000000A0000000000011532FD
:104170005F524D45545249430000000000000000CA
:1041800005000000803F00FF00000000000000006C
:10419000000000000000000000000000000000011E
:1041A0000050494E00000000000000000000000028
:1041B0000000000000005041010150494E32000053
:1041C000000000000000000000000001000000806E
:1041D000BF010250494E3300000000000000000003
:1041E000000000000200000080BF010350494E346F
:1041F00000000000000000000000000000030000BC
:104200000080BF010444454641554C540000000065
:1042100000000000000004000000000000FF00009B
:10422000000000000000000000000000000000008E
:104230000000000000010054524947475F545950A4
:104240004500000000000000000000000000010127
:104250004455524154494F4E0000000000000000F8
:10426000000100000020410202534552564F5F4FAB
:104270004E00000000000000000002000080A24488
:104280000203534552564F5F4F4646000000000060
:104290000000000400008089440404545249474748
:1042A0005F44495354000000000000000900000072
:1042B000000000FF000000000000000000000000FF
:1042C00000000000000000000000004169727370EF
:1042D0006565642073656E736F7220756E686561C5
:1042E0006C746879000100454E41424C4500000065
:1042F000000000000000000009000000803F0101F4
:1043000055534500000000000000000000000000C0
:104310000008000000000004024F464653455400C8
:10432000000000000000000000000000000000008D
:104330000403524154494F000000000000000000F7
:104340000000000400492EFF3F010450494E0000C8
:104350000000000000000000000000000A00000053
:10436000000001054155544F43414C00000000003E
:1043700000000000000B0000000000010654554240
:10438000455F4F52444552000000000000000C0001
:10439000000000400107534B49505F43414C00006F
:1043A000000000000000000D000000000000FF0001
:1043B00000000000000000000000000000000000FD
:1043C000000000000000494D415800524D41580086
:1043D00044004900500054434F4E5354005054433E
:1043E00048325352565F00524C4C325352565F0083
:1043F0003333333FCDCC4C3D0000A0416666263FB1
:10440000AE47613D0000F0419A99193F8FC2753D5A
:1044100000002042CDCC0C3FB81E853D0000484234
:104420000000003F295C8F3D000070426666E63E5A
:104430009A99993D00009642CDCCCC3E0AD7A33D37
:104440000000B4429A99993E7B14AE3D0000F042C0
:10445000CDCC4C3EEC51B83D00002043CDCCCC3D02
:104460005C8FC23D00005243CDCC4C3DCDCCCC3D09
:1044700000009643040054434F4E53540000000084
:104480000000000000000002000000003F04015096
:10449000000000000000000000000000000000001C
:1044A0000600CDCCCC3E0402440000000000000019
:1044B0000000000000000000000E000AD7A33C042A
:1044C00003490000000000000000000000000000A0
:1044D00000000A000AD7233D0204524D41585F559F
:1044E000500000000000000000000012000000006A
:1044F000000205524D41585F444E0000000000008C
:10450000000000006600000000000406524C4C0051
:104510000000000000000000000000000068000033
:1045200000803F0207494D41580000000000000094
:1045300000000000000014000080BB4400FF0000E9
:10454000000000000000000000000000000000006B
:104550000000000000040054434F4E53540000007C
:10456000000000000000000002000000003F040105
:1045700050000000000000000000000000000000EB
:10458000000600CDCCCC3E04024400000000000038
:10459000000000000000000000000E000AD7A33C4D
:1045A00004034900000000000000000000000000BB
:1045B0000000000A000AD7233D0204524D41580072
:1045C00000000000000000000000000012000000D9
:1045D00000000205494D41580000000000000000A5
:1045E000000000000014000080BB4400FF00000039
:1045F00000000000000000000000000000000000BB
:1046000000000000040054434F4E535400000000CB
:104610000000000000000000000000403F040150C6
:10462000000000000000000000000000000000008A
:1046300004006666E63F0403490000000000000035
:104640000000000000000000000800CDCC4C3E043B
:104650000444000000000000000000000000000012
:1046600000000C000AD7A33B0205494D4158000049
:10467000000000000000000000000014000080BBEB
:104680004404064D494E5350440000000000000011
:104690000000000010000000803F00FF000000004C
:1046A000000000000000000000000000000000000A
:1046B0000000000400534C495000000000000000BE
:1046C0000000000000000200000000000401494E4C
:1046D0005400000000000000000000000000000680
:1046E0000000000000040244414D500000000000A2
:1046F00000000000000000000A00000000000403A9
:10470000524C4C00000000000000000000000000BF
:10471000000E000000803F0205494D415800000096
:104720000000000000000000000012000080BB44F8
:1047300000FF00000000000000000000000000007A
:10474000000000000000000000666C6967687420CB
:10475000706C616E20726563656976656400666C75
:104760006967687420706C616E207570646174652F
:104770002072656A656374656400327C8900EDD9D6
:104780006877000000590000000000000000D69F7C
:10479000DCA81817AA90437327F6B968EDF4DED4A5
:1047A00009FEE61C1C84DDE80B9929274E00000059
:1047B0000F03000000000099B7335276941500F300
:1047C0007C000026149E988F0000006A31168F8CA2
:1047D000059600E7B73F3600000000000000AF6616
:1047E0009ED0385D8A6C20B95422007CED044C8048
:1047F000387486EDCBFA57CBDC19E2001DDF550685
:10480000E5CB01C30000000000000000009AB200E8
:1048100086DBD0BC5416131586004E44BD7F9A1516
:10482000159001EA49B51653A78AEAF02FBD34AEB8
:10483000E500000000000000000000000000000093
:104840000000000000000000000000000000000068
:104850000000000000000000000000000000000058
:104860000000000000000000000000000000000048
:10487000000008CC31AA2C532E0001004D4F4445B6
:1048800000000000000000000000000000320000F6
:1048900000000005015245545241435400000000FD
:1048A00000000000000043000000000005024E452B
:1048B000555452414C000000000000000000004F21
:1048C00000000000000503434F4E54524F4C0000BF
:1048D00000000000000000005B0000000000010478
:1048E000535441425F524F4C4C0000000000000006
:1048F000002F00000000000105535441425F54495D
:104900004C540000000000000000300000000000D7
:104910000106535441425F50414E00000000000028
:10492000000000310000000000010752435F494EC3
:104930005F524F4C4C0000000000000033000000AC
:1049400000000208414E474D494E5F524F4C000057
:104950000000000000360000A08CC50209414E474F
:104960004D41585F524F4C000000000000003800DD
:1049700000A08C45010A52435F494E5F54494C5494
:1049800000000000000000340000000000020B41A5
:104990004E474D494E5F54494C0000000000000056
:1049A0003A0000A08CC5020C414E474D41585F545F
:1049B000494C000000000000003C0000A08C4501B4
:1049C0000D52435F494E5F50414E00000000000011
:1049D0000000350000000000020E414E474D494ED8
:1049E0005F50414E000000000000003E0000A08C1F
:1049F000C5020F414E474D41585F50414E000000E7
:104A000000000000400000A08C4501104A535449AA
:104A1000434B5F5350440000000000000042000080
:104A200000000004114C4541445F524C4C00000012
:104A300000000000000067000000000004124C4568
:104A400041445F5054434800000000000000006BE8
:104A5000000000000000FF00000000000000000057
:104A600000000000000000000000000000008011B5
:104A700040114071327334333213121132111293D8
:104A80003413145352310021030406080B2D0A0974
:104A90000705040241C011C0511253547312111280
:104AA00051527314733231002102040506070809BC
:104AB000080607062403020102000120012011C09C
:104AC0000111003132137413143312F112D3125145
:104AD0000001022325060746442342210001E0A0ED
:104AE000313213B43311121100112011005233125C
:104AF00013321120012224850423040203424100C1
:104B000001E0A05112141315131534133251400152
:104B1000201152133231000122230405040504231D
:104B2000010382612001E011801132135415143306
:104B3000323140210201003172314102234423020B
:104B4000012201220102614001A0118051121413BF
:104B500034151433123140010201030201205211B5
:104B60001220212243042241022102A10001E0205F
:104B70001140515374133211402102030203020108
:104B8000001112113200114122232221004102A101
:104B90008001601160110011323374131211400151
:104BA00062030203213112111211400102010203BA
:104BB0000201000100E121E0A01120121173343341
:104BC0003120016203624012111211001101000133
:104BD0000201220001200100E1C00100118011004A
:104BE00012111312141334522001E2022120311247
:104BF00011001100010021020100014021000241C9
:104C00000001E06011401112111312141314133239
:104C100011002122034201022100010011001211A2
:104C2000001120010041600100C10001401120017C
:104C30006011405112131213143312310001420358
:104C40002201022100014011003100110001000188
:104C50000001A0E10001A001801120315293121146
:104C60000021C2210021403100112011000100016A
:104C7000E0E16001E0110011727312310021420382
:104C80000102010220214011001120116001401198
:104C900060010001022102000120014001A0513207
:104CA0001312533211200102018221002100010060
:104CB000110031E000110011602100010201020128
:104CC0000100212001000160110011521312141380
:104CD0005211004182010200010021401100110027
:104CE00011A01100310011208122010100020100F8
:104CF000210001601100521312131413323101000C
:104D000002012201420100210001000111201100D5
:104D10001120114071001140010221020102010025
:104D2000210221000100010011001211123312347E
:104D300013321120010201420122010041000160F1
:104D400011201100110011005112312061020122C5
:104D5000020002010281201100121173341332117A
:104D600000410201820100610001801100110091E7
:104D7000323140214201020200626140115214139B
:104D800054333100418201220001020041000160E0
:104D9000911211525120012201030102020082618D
:104DA00000513354151433310021020122034241D2
:104DB00002A180319213323100412203020103002B
:104DC00022032201020140111233953331010022E6
:104DD000010342032221220102610001110011524C
:104DE0001312531231004122032203002302030253
:104DF0000102212032131416151716153311200144
:104E00006203020302032201A24140111253141350
:104E10001413321101000201020302030202000214
:104E200023020322212032141637181715131211EA
:104E300000212203024302430103020382212011C5
:104E400012131415341514321100016223020300E9
:104E500043020342012012131518193A17151311B2
:104E600000210203026304E3020302030201024081
:104E700012131415171516341220212243020300B1
:104E8000A3220100111215181C1E1D191613110062
:104E90000201030203042304032403044304230440
:104EA000030203422011121415171836151331216D
:104EB000020302230203241E191512100E0C0B0A02
:104EC0000909090808080706060504040403040480
:104ED0000400000000000000000000272621232518
:104EE0002325242722292A2A1C27282B3332272549
:104EF000222C333130370000000000000000000099
:104F000000000001FFFFE000000000000001FFFFC3
:104F1000F000000000000001FFFFF80000000000AA
:104F20000001FFFFFE00000000000003FFFFFF0084
:104F3000000000000003FFFFFFF000000000000F72
:104F4000FFFFFFFE00000003FFFFFC000007FC0066
:104F5000007FFFFFFC000000000000001FFFFE00BC
:104F60000000000096918C87827D78736E69645F83
:104F70005A55504B46413C37322D28231E19140FE9
:104F80000A050004090E13181D22272C31363B4058
:104F9000454A4F54595E63686D72777C81868B9069
:104FA000959A9FA4A9AEB3AFAAA5A09B968F89831B
:104FB0007E78736E69645F5A55504B47423E39356F
:104FC000302C27231F1B16120E09050103070B1097
:104FD00014191D22262B2F34393D42474C51565B64
:104FE00060656B70757B80868C92979DA3A9AFB22C
:104FF000ACA6A09A948F827C76706B65605C5752E9
:105000004E4A46413D3936322E2A26221F1B17139F
:10501000100C08040102060A0E12161A1E22262B74
:105020002F33383D41464B4F54595E64696F747A53
:1050300080878D949BA2AAB1AEA69F979089826F1C
:1050400068635E5955514D4946423F3C3835322ED2
:105050002B2824211E1A1714100D0A06030003061C
:10506000090D1014181C2024282C3034393D4146D9
:105070004A4F54585D62676D737980878F98A2ACF0
:10508000B0A59A90867D766F55514D4A4744413F71
:105090003C3A383533312E2B292623201D1A17137D
:1050A000100D0A070401010306090D1013171A1E3B
:1050B00022262A2E32363A3E42464A4E53575B5FEC
:1050C00064696E757C85909FB2A08D7D7067605A13
:1050D000553E3C3A393736343332302F2E2C2A297C
:1050E0002724221F1C191613100D0A07040200039F
:1050F00005080A0D1013161A1D2125292D313538E2
:105100003C4043464A4D505356595B5E6165696F5A
:10511000826D544D4A474442403E2E2E2D2C2C2B5E
:105120002A2A2929282726252423211F1C1A171457
:10513000100D0A07040101030507090C0E101316D0
:105140001A1D2124282C3033373A3D404244474829
:105150004A4A4B4A48443D3019021621282B2D2E2D
:105160002F2E2E06090C0F121517191B1C1B1811B8
:10517000040E2231383C3C3C3A3835322F2B28245F
:10518000201C1915110D09050102060A0E1115182A
:105190001C1F222527292A2B2B292621191108001B
:1051A00004080A0A0A0807040200030616181A1C53
:1051B0001E20211F1712516063625F5D5956524EC7
:1051C0004A46423E3935312C2824201B17130E0A3B
:1051D000060102060A0F13171B1F23262A2D31343E
:1051E00037393C3D3F3F3E3D39352F28211C1715AF
:1051F0001313131416A8ADB2B0ABA6A19C97928D51
:1052000088837E79746F6A65605B56514C47423D76
:1052100038332E29241F1A15100B060103080D120E
:10522000171C21262B30353A3F44494E53585D62B6
:10523000676C71767B80858A8F94999EA3A8504174
:105240004E49433A2044617461466C61736820534F
:105250005049446576696365447269766572207366
:10526000656D6170686F7265206973206E756C6C16
:105270000050414E49433A2044617461466C617369
:105280006820535049446576696365447269766560
:1052900072206E6F7420666F756E64004C6F6720AD
:1052A00025752C2020202073746172742025752CA4
:1052B000202020656E642025750A000A2575206C63
:1052C0006F67730A000A4E6F206C6F67730A0A00DB
:1052D0004E756D50616765733A20257520205061C9
:1052E000676553697A653A2025750A004D616E75C8
:1052F00066616374757265723A2030782530327851
:105300002020204465766963653A20307825303462
:10531000780A004E6F2064617461666C6173682066
:10532000696E7365727465640025750A0025752CB5
:105330000900444620706167652C206C6F67206609
:10534000696C6520232C206C6F6720706167653A5B
:105350002025752C0900464D542C2025752C202520
:10536000752C2025532C2025532C2025530A002C46
:105370002000257300257300257300252E3266005A
:10538000252E326600252E326600252E3266002537
:105390006600256C7500256C640025750025640089
:1053A00025750025640025532C2000554E4B4E2CAE
:1053B0002025750A005363686564756C6572206FFB
:1053C00076657272756E207461736B5B25755D20F6
:1053D0002825752F2575290A005363686564756C47
:1053E000657220736C6970207461736B5B25755DE9
:1053F000202825752F25752F2575290A00010044C1
:105400004542554700000000000000000000000079
:1054100000000000000000FF00000000000000008D
:105420000000000000000000000000000000000478
:1054300000504552494F44000000000000000000A9
:1054400000001D000000C841040144414D50494E78
:1054500047000000000000000000002100000040A4
:105460003F00FF00000000000000000000000000FE
:10547000000000000000000000000100524F4C4CF2
:10548000000000000000000000000000000000001C
:1054900000803F01015049544348000000000000D3
:1054A000000000000000010000000040010254481C
:1054B000524F54544C45000000000000000000030F
:1054C0000000004040010359415700000000000067
:1054D000000000000000000002000000804000FF0B
:1054E00000000000000000000000000000000000BC
:1054F000000000000000000400434C4D425F4D419D
:105500005800000000000000000051000000A04012
:10551000040153494E4B5F4D494E0000000000000E
:10552000000000550000000040040254494D455F52
:10553000434F4E5354000000000000005D00000087
:10554000A04004035448525F44414D500000000005
:1055500000000000006D000000003F0404494E54AC
:1055600045475F4741494E000000000000007100C0
:10557000CDCCCC3D0405564552545F414343000019
:105580000000000000000075000000E04004064834
:1055900047545F4F4D4547410000000000000000A8
:1055A00049000000404004075350445F4F4D4547B9
:1055B0004100000000000000004D00000000400419
:1055C00008524C4C325448520000000000000000C9
:1055D0000000790000002041040953504457454918
:1055E00047485400000000000000007D00000080DB
:1055F0003F040A505443485F44414D5000000000AE
:1056000000000000650000000000040B53494E4BF1
:105610005F4D4158000000000000000000590000EC
:1056200000A040040C4C414E445F41525350440092
:105630000000000000008900000080BF040D4C4104
:105640004E445F54485200000000000000000085F6
:1056500000000080BF040E4C414E445F535044573D
:10566000475400000000000081000000803F010F4F
:1056700050495443485F4D4158000000000000006D
:1056800000910000000000011050495443485F4D54
:10569000494E0000000000000000920000000000E1
:1056A00004114C414E445F53494E4B000000000032
:1056B0000000008D000000803E04124C414E445F0B
:1056C00054434F4E5354000000000000610000009E
:1056D000004004134C414E445F44414D50000000D3
:1056E000000000000069000000003F00FF00000013
:1056F00000000000000000000000000000000000AA
:10570000000000000200544F54414C000000000013
:105710000000000000000005000000000001015230
:1057200045535441525400000000000000000000A6
:1057300007000000000000FF000000000000000063
:105740000000000000000000000000000000000158
:10575000005F4D4F4E49544F5200000000000000C2
:10576000000002000000000001015F564F4C545F32
:1057700050494E00000000000000000400000050EE
:105780004101025F435552525F50494E00000000F4
:105790000000000006000000404104035F564F4C2B
:1057A000545F4D554C540000000000000008009A62
:1057B00099214104045F414D505F504552564F4C72
:1057C00054000000000010000000884104055F4103
:1057D0004D505F4F464653455400000000000018EE
:1057E000000000000003065F434150414349545903
:1057F0000000000000000000200000404E45010BAA
:10580000325F4D4F4E49544F5200000000000000DF
:1058100000030000000000010C325F564F4C545F43
:1058200050494E00000000000000050000005041FB
:10583000010D325F435552525F50494E0000000047
:10584000000000070000004041040E325F564F4C3C
:10585000545F4D554C540000000000000C009A9914
:105860002141040F325F414D505F504552564F4C1D
:1058700000000000001400000088410410325F4165
:105880004D505F4F464653455400000000001C0039
:10589000000000000311325F434150414349545915
:1058A00000000000000000240000404E4500FF0002
:1058B00000000000000000000000000000000000E8
:1058C0000000000000005468726F74746C652064FE
:1058D000697361726D656421005468726F74746CD1
:1058E000652061726D656421005468726F74746C18
:1058F000652061726D6564210050726541726D3A78
:1059000020526164696F206661696C73616665200D
:105910006F6E0050726541726D3A20486172647713
:105920006172652053616665747920537769746389
:10593000680050726541726D3A20426174746572FC
:1059400079206661696C73616665206F6E2E005008
:10595000726541726D3A2042616420475053205075
:105960006F736974696F6E0050726541726D3A2091
:10597000436865636B206D6167206669656C6400D0
:1059800050726541726D3A20436F6D706173732080
:105990006F66667365747320746F6F2068696768DB
:1059A0000050726541726D3A20436F6D7061737380
:1059B000206E6F742063616C69627261746564004B
:1059C00050726541726D3A20436F6D706173732040
:1059D0006E6F74206865616C74687921005072651F
:1059E00041726D3A20454B4620726571756972654A
:1059F0007320334420616363656C2063616C0050E5
:105A0000726541726D3A2041485253206E6F742086
:105A10006865616C746879210050726541726D3AF5
:105A200020616363656C73206E6F74206865616CC0
:105A3000746879210050726541726D3A20677972FD
:105A40006F73206E6F742063616C6962726174653C
:105A500064210050726541726D3A206779726F73EC
:105A6000206E6F74206865616C74687921005072D3
:105A70006541726D3A206169727370656564206E6C
:105A80006F74206865616C7468790050726541724A
:105A90006D3A204261726F6D65746572206E6F742D
:105AA000206865616C746879210001005245515588
:105AB0004952450000000000000000000001000005
:105AC00000000001014449535F52554400000000AA
:105AD0000000000000000200000000000202434835
